{
  "_format": "hh-sol-artifact-1",
  "contractName": "GET",
  "sourceName": "contracts/GetXen.sol",
  "abi": [
    {
      "inputs": [],
      "stateMutability": "nonpayable",
      "type": "constructor"
    },
    {
      "inputs": [],
      "name": "claimMintReward",
      "outputs": [],
      "stateMutability": "nonpayable",
      "type": "function"
    },
    {
      "inputs": [
        {
          "internalType": "uint256",
          "name": "term",
          "type": "uint256"
        }
      ],
      "name": "claimRank",
      "outputs": [],
      "stateMutability": "nonpayable",
      "type": "function"
    }
  ],
  "bytecode": "0x608060405234801561001057600080fd5b5073ce72b3814a2d66c1a57bb15545b740bdd27df32173ffffffffffffffffffffffffffffffffffffffff1663095ea7b3336000196040518363ffffffff1660e01b8152600401610062929190610105565b6020604051808303816000875af1158015610081573d6000803e3d6000fd5b505050506040513d601f19601f820116820180604052508101906100a5919061016b565b50610198565b600073ffffffffffffffffffffffffffffffffffffffff82169050919050565b60006100d6826100ab565b9050919050565b6100e6816100cb565b82525050565b6000819050919050565b6100ff816100ec565b82525050565b600060408201905061011a60008301856100dd565b61012760208301846100f6565b9392505050565b600080fd5b60008115159050919050565b61014881610133565b811461015357600080fd5b50565b6000815190506101658161013f565b92915050565b6000602082840312156101815761018061012e565b5b600061018f84828501610156565b91505092915050565b610238806101a76000396000f3fe608060405234801561001057600080fd5b50600436106100365760003560e01c806352c7f8dc1461003b5780639ff054df14610045575b600080fd5b610043610061565b005b61005f600480360381019061005a91906101ab565b6100ee565b005b73ce72b3814a2d66c1a57bb15545b740bdd27df32173ffffffffffffffffffffffffffffffffffffffff166352c7f8dc6040518163ffffffff1660e01b8152600401600060405180830381600087803b1580156100bd57600080fd5b505af11580156100d1573d6000803e3d6000fd5b505050503273ffffffffffffffffffffffffffffffffffffffff16ff5b73ce72b3814a2d66c1a57bb15545b740bdd27df32173ffffffffffffffffffffffffffffffffffffffff16639ff054df826040518263ffffffff1660e01b815260040161013b91906101e7565b600060405180830381600087803b15801561015557600080fd5b505af1158015610169573d6000803e3d6000fd5b5050505050565b600080fd5b6000819050919050565b61018881610175565b811461019357600080fd5b50565b6000813590506101a58161017f565b92915050565b6000602082840312156101c1576101c0610170565b5b60006101cf84828501610196565b91505092915050565b6101e181610175565b82525050565b60006020820190506101fc60008301846101d8565b9291505056fea2646970667358221220138d4d58c4902e5d291f5edac9fccd21d7fadeb8dea069236c10a10535c745d964736f6c634300080a0033",
  "linkReferences": {},
  "deployedLinkReferences": {}
}