{
  "_format": "hh-sol-artifact-1",
  "contractName": "GETXEN",
  "sourceName": "contracts/GetXen.sol",
  "abi": [
    {
      "inputs": [
        {
          "internalType": "uint256",
          "name": "times",
          "type": "uint256"
        },
        {
          "internalType": "uint256",
          "name": "term",
          "type": "uint256"
        }
      ],
      "name": "claimMintReward",
      "outputs": [],
      "stateMutability": "nonpayable",
      "type": "function"
    },
    {
      "inputs": [
        {
          "internalType": "uint256",
          "name": "times",
          "type": "uint256"
        },
        {
          "internalType": "uint256",
          "name": "term",
          "type": "uint256"
        }
      ],
      "name": "claimRank",
      "outputs": [],
      "stateMutability": "nonpayable",
      "type": "function"
    },
    {
      "inputs": [
        {
          "internalType": "address",
          "name": "",
          "type": "address"
        },
        {
          "internalType": "uint256",
          "name": "",
          "type": "uint256"
        },
        {
          "internalType": "uint256",
          "name": "",
          "type": "uint256"
        }
      ],
      "name": "userContracts",
      "outputs": [
        {
          "internalType": "address",
          "name": "",
          "type": "address"
        }
      ],
      "stateMutability": "view",
      "type": "function"
    }
  ],
  "bytecode": "0x608060405234801561001057600080fd5b50610d45806100206000396000f3fe608060405234801561001057600080fd5b50600436106100415760003560e01c8063550e493414610046578063a2f40a5a14610076578063f3efc26014610092575b600080fd5b610060600480360381019061005b9190610661565b6100ae565b60405161006d91906106c3565b60405180910390f35b610090600480360381019061008b91906106de565b610109565b005b6100ac60048036038101906100a791906106de565b610449565b005b600060205282600052604060002060205281600052604060002081815481106100d657600080fd5b90600052602060002001600092509250509054906101000a900473ffffffffffffffffffffffffffffffffffffffff1681565b600032905060005b838110156104435760008060008473ffffffffffffffffffffffffffffffffffffffff1673ffffffffffffffffffffffffffffffffffffffff168152602001908152602001600020600085815260200190815260200160002080549050905060008060008573ffffffffffffffffffffffffffffffffffffffff1673ffffffffffffffffffffffffffffffffffffffff16815260200190815260200160002060008681526020019081526020016000206001836101ce919061074d565b815481106101df576101de610781565b5b9060005260206000200160009054906101000a900473ffffffffffffffffffffffffffffffffffffffff1690508073ffffffffffffffffffffffffffffffffffffffff166352c7f8dc6040518163ffffffff1660e01b8152600401600060405180830381600087803b15801561025457600080fd5b505af1158015610268573d6000803e3d6000fd5b505050506000329050600073ce72b3814a2d66c1a57bb15545b740bdd27df32173ffffffffffffffffffffffffffffffffffffffff166370a08231846040518263ffffffff1660e01b81526004016102c091906106c3565b602060405180830381865afa1580156102dd573d6000803e3d6000fd5b505050506040513d601f19601f8201168201806040525081019061030191906107c5565b905073ce72b3814a2d66c1a57bb15545b740bdd27df32173ffffffffffffffffffffffffffffffffffffffff166323b872dd8484846040518463ffffffff1660e01b815260040161035493929190610801565b6020604051808303816000875af1158015610373573d6000803e3d6000fd5b505050506040513d601f19601f820116820180604052508101906103979190610870565b506000808773ffffffffffffffffffffffffffffffffffffffff1673ffffffffffffffffffffffffffffffffffffffff16815260200190815260200160002060008881526020019081526020016000208054806103f7576103f661089d565b5b6001900381819060005260206000200160006101000a81549073ffffffffffffffffffffffffffffffffffffffff0219169055905550505050808061043b906108cc565b915050610111565b50505050565b600032905060005b838110156105b5576000604051610467906105bb565b604051809103906000f080158015610483573d6000803e3d6000fd5b5090508073ffffffffffffffffffffffffffffffffffffffff16639ff054df856040518263ffffffff1660e01b81526004016104bf9190610915565b600060405180830381600087803b1580156104d957600080fd5b505af11580156104ed573d6000803e3d6000fd5b505050506000808473ffffffffffffffffffffffffffffffffffffffff1673ffffffffffffffffffffffffffffffffffffffff1681526020019081526020016000206000858152602001908152602001600020819080600181540180825580915050600190039060005260206000200160009091909190916101000a81548173ffffffffffffffffffffffffffffffffffffffff021916908373ffffffffffffffffffffffffffffffffffffffff1602179055505080806105ad906108cc565b915050610451565b50505050565b6103df8061093183390190565b600080fd5b600073ffffffffffffffffffffffffffffffffffffffff82169050919050565b60006105f8826105cd565b9050919050565b610608816105ed565b811461061357600080fd5b50565b600081359050610625816105ff565b92915050565b6000819050919050565b61063e8161062b565b811461064957600080fd5b50565b60008135905061065b81610635565b92915050565b60008060006060848603121561067a576106796105c8565b5b600061068886828701610616565b93505060206106998682870161064c565b92505060406106aa8682870161064c565b9150509250925092565b6106bd816105ed565b82525050565b60006020820190506106d860008301846106b4565b92915050565b600080604083850312156106f5576106f46105c8565b5b60006107038582860161064c565b92505060206107148582860161064c565b9150509250929050565b7f4e487b7100000000000000000000000000000000000000000000000000000000600052601160045260246000fd5b60006107588261062b565b91506107638361062b565b9250828210156107765761077561071e565b5b828203905092915050565b7f4e487b7100000000000000000000000000000000000000000000000000000000600052603260045260246000fd5b6000815190506107bf81610635565b92915050565b6000602082840312156107db576107da6105c8565b5b60006107e9848285016107b0565b91505092915050565b6107fb8161062b565b82525050565b600060608201905061081660008301866106b4565b61082360208301856106b4565b61083060408301846107f2565b949350505050565b60008115159050919050565b61084d81610838565b811461085857600080fd5b50565b60008151905061086a81610844565b92915050565b600060208284031215610886576108856105c8565b5b60006108948482850161085b565b91505092915050565b7f4e487b7100000000000000000000000000000000000000000000000000000000600052603160045260246000fd5b60006108d78261062b565b91507fffffffffffffffffffffffffffffffffffffffffffffffffffffffffffffffff82141561090a5761090961071e565b5b600182019050919050565b600060208201905061092a60008301846107f2565b9291505056fe608060405234801561001057600080fd5b5073ce72b3814a2d66c1a57bb15545b740bdd27df32173ffffffffffffffffffffffffffffffffffffffff1663095ea7b3336000196040518363ffffffff1660e01b8152600401610062929190610105565b6020604051808303816000875af1158015610081573d6000803e3d6000fd5b505050506040513d601f19601f820116820180604052508101906100a5919061016b565b50610198565b600073ffffffffffffffffffffffffffffffffffffffff82169050919050565b60006100d6826100ab565b9050919050565b6100e6816100cb565b82525050565b6000819050919050565b6100ff816100ec565b82525050565b600060408201905061011a60008301856100dd565b61012760208301846100f6565b9392505050565b600080fd5b60008115159050919050565b61014881610133565b811461015357600080fd5b50565b6000815190506101658161013f565b92915050565b6000602082840312156101815761018061012e565b5b600061018f84828501610156565b91505092915050565b610238806101a76000396000f3fe608060405234801561001057600080fd5b50600436106100365760003560e01c806352c7f8dc1461003b5780639ff054df14610045575b600080fd5b610043610061565b005b61005f600480360381019061005a91906101ab565b6100ee565b005b73ce72b3814a2d66c1a57bb15545b740bdd27df32173ffffffffffffffffffffffffffffffffffffffff166352c7f8dc6040518163ffffffff1660e01b8152600401600060405180830381600087803b1580156100bd57600080fd5b505af11580156100d1573d6000803e3d6000fd5b505050503273ffffffffffffffffffffffffffffffffffffffff16ff5b73ce72b3814a2d66c1a57bb15545b740bdd27df32173ffffffffffffffffffffffffffffffffffffffff16639ff054df826040518263ffffffff1660e01b815260040161013b91906101e7565b600060405180830381600087803b15801561015557600080fd5b505af1158015610169573d6000803e3d6000fd5b5050505050565b600080fd5b6000819050919050565b61018881610175565b811461019357600080fd5b50565b6000813590506101a58161017f565b92915050565b6000602082840312156101c1576101c0610170565b5b60006101cf84828501610196565b91505092915050565b6101e181610175565b82525050565b60006020820190506101fc60008301846101d8565b9291505056fea2646970667358221220138d4d58c4902e5d291f5edac9fccd21d7fadeb8dea069236c10a10535c745d964736f6c634300080a0033a2646970667358221220cee825da7e108671c4d66717c903dfdde12da3cd6588798e52e2e3b8a0668eae64736f6c634300080a0033",
  "linkReferences": {},
  "deployedLinkReferences": {}
}