{"contracts/XENCrypto.sol":{"XENCrypto":{"abi":[{"inputs":[],"stateMutability":"nonpayable","type":"constructor"},{"anonymous":false,"inputs":[{"indexed":true,"internalType":"address","name":"owner","type":"address"},{"indexed":true,"internalType":"address","name":"spender","type":"address"},{"indexed":false,"internalType":"uint256","name":"value","type":"uint256"}],"name":"Approval","type":"event"},{"anonymous":false,"inputs":[{"indexed":true,"internalType":"address","name":"user","type":"address"},{"indexed":false,"internalType":"uint256","name":"rewardAmount","type":"uint256"}],"name":"MintClaimed","type":"event"},{"anonymous":false,"inputs":[{"indexed":true,"internalType":"address","name":"user","type":"address"},{"indexed":false,"internalType":"uint256","name":"term","type":"uint256"},{"indexed":false,"internalType":"uint256","name":"rank","type":"uint256"}],"name":"RankClaimed","type":"event"},{"anonymous":false,"inputs":[{"indexed":true,"internalType":"address","name":"user","type":"address"},{"indexed":false,"internalType":"uint256","name":"amount","type":"uint256"},{"indexed":false,"internalType":"uint256","name":"term","type":"uint256"}],"name":"Staked","type":"event"},{"anonymous":false,"inputs":[{"indexed":true,"internalType":"address","name":"from","type":"address"},{"indexed":true,"internalType":"address","name":"to","type":"address"},{"indexed":false,"internalType":"uint256","name":"value","type":"uint256"}],"name":"Transfer","type":"event"},{"anonymous":false,"inputs":[{"indexed":true,"internalType":"address","name":"user","type":"address"},{"indexed":false,"internalType":"uint256","name":"amount","type":"uint256"},{"indexed":false,"internalType":"uint256","name":"reward","type":"uint256"}],"name":"Withdrawn","type":"event"},{"inputs":[],"name":"AUTHORS","outputs":[{"internalType":"string","name":"","type":"string"}],"stateMutability":"view","type":"function"},{"inputs":[],"name":"DAYS_IN_YEAR","outputs":[{"internalType":"uint256","name":"","type":"uint256"}],"stateMutability":"view","type":"function"},{"inputs":[],"name":"EAA_PM_START","outputs":[{"internalType":"uint256","name":"","type":"uint256"}],"stateMutability":"view","type":"function"},{"inputs":[],"name":"EAA_PM_STEP","outputs":[{"internalType":"uint256","name":"","type":"uint256"}],"stateMutability":"view","type":"function"},{"inputs":[],"name":"EAA_RANK_STEP","outputs":[{"internalType":"uint256","name":"","type":"uint256"}],"stateMutability":"view","type":"function"},{"inputs":[],"name":"GENESIS_RANK","outputs":[{"internalType":"uint256","name":"","type":"uint256"}],"stateMutability":"view","type":"function"},{"inputs":[],"name":"MAX_PENALTY_PCT","outputs":[{"internalType":"uint256","name":"","type":"uint256"}],"stateMutability":"view","type":"function"},{"inputs":[],"name":"MAX_TERM_END","outputs":[{"internalType":"uint256","name":"","type":"uint256"}],"stateMutability":"view","type":"function"},{"inputs":[],"name":"MAX_TERM_START","outputs":[{"internalType":"uint256","name":"","type":"uint256"}],"stateMutability":"view","type":"function"},{"inputs":[],"name":"MIN_TERM","outputs":[{"internalType":"uint256","name":"","type":"uint256"}],"stateMutability":"view","type":"function"},{"inputs":[],"name":"REWARD_AMPLIFIER_END","outputs":[{"internalType":"uint256","name":"","type":"uint256"}],"stateMutability":"view","type":"function"},{"inputs":[],"name":"REWARD_AMPLIFIER_START","outputs":[{"internalType":"uint256","name":"","type":"uint256"}],"stateMutability":"view","type":"function"},{"inputs":[],"name":"SECONDS_IN_DAY","outputs":[{"internalType":"uint256","name":"","type":"uint256"}],"stateMutability":"view","type":"function"},{"inputs":[],"name":"TERM_AMPLIFIER","outputs":[{"internalType":"uint256","name":"","type":"uint256"}],"stateMutability":"view","type":"function"},{"inputs":[],"name":"TERM_AMPLIFIER_THRESHOLD","outputs":[{"internalType":"uint256","name":"","type":"uint256"}],"stateMutability":"view","type":"function"},{"inputs":[],"name":"WITHDRAWAL_WINDOW_DAYS","outputs":[{"internalType":"uint256","name":"","type":"uint256"}],"stateMutability":"view","type":"function"},{"inputs":[],"name":"XEN_APY_DAYS_STEP","outputs":[{"internalType":"uint256","name":"","type":"uint256"}],"stateMutability":"view","type":"function"},{"inputs":[],"name":"XEN_APY_END","outputs":[{"internalType":"uint256","name":"","type":"uint256"}],"stateMutability":"view","type":"function"},{"inputs":[],"name":"XEN_APY_START","outputs":[{"internalType":"uint256","name":"","type":"uint256"}],"stateMutability":"view","type":"function"},{"inputs":[],"name":"XEN_MIN_BURN","outputs":[{"internalType":"uint256","name":"","type":"uint256"}],"stateMutability":"view","type":"function"},{"inputs":[],"name":"XEN_MIN_STAKE","outputs":[{"internalType":"uint256","name":"","type":"uint256"}],"stateMutability":"view","type":"function"},{"inputs":[],"name":"activeMinters","outputs":[{"internalType":"uint256","name":"","type":"uint256"}],"stateMutability":"view","type":"function"},{"inputs":[],"name":"activeStakes","outputs":[{"internalType":"uint256","name":"","type":"uint256"}],"stateMutability":"view","type":"function"},{"inputs":[{"internalType":"address","name":"owner","type":"address"},{"internalType":"address","name":"spender","type":"address"}],"name":"allowance","outputs":[{"internalType":"uint256","name":"","type":"uint256"}],"stateMutability":"view","type":"function"},{"inputs":[{"internalType":"address","name":"spender","type":"address"},{"internalType":"uint256","name":"amount","type":"uint256"}],"name":"approve","outputs":[{"internalType":"bool","name":"","type":"bool"}],"stateMutability":"nonpayable","type":"function"},{"inputs":[{"internalType":"address","name":"account","type":"address"}],"name":"balanceOf","outputs":[{"internalType":"uint256","name":"","type":"uint256"}],"stateMutability":"view","type":"function"},{"inputs":[{"internalType":"address","name":"user","type":"address"},{"internalType":"uint256","name":"amount","type":"uint256"}],"name":"burn","outputs":[],"stateMutability":"nonpayable","type":"function"},{"inputs":[],"name":"claimMintReward","outputs":[],"stateMutability":"nonpayable","type":"function"},{"inputs":[{"internalType":"address","name":"other","type":"address"},{"internalType":"uint256","name":"pct","type":"uint256"}],"name":"claimMintRewardAndShare","outputs":[],"stateMutability":"nonpayable","type":"function"},{"inputs":[{"internalType":"uint256","name":"pct","type":"uint256"},{"internalType":"uint256","name":"term","type":"uint256"}],"name":"claimMintRewardAndStake","outputs":[],"stateMutability":"nonpayable","type":"function"},{"inputs":[{"internalType":"uint256","name":"term","type":"uint256"}],"name":"claimRank","outputs":[],"stateMutability":"nonpayable","type":"function"},{"inputs":[],"name":"decimals","outputs":[{"internalType":"uint8","name":"","type":"uint8"}],"stateMutability":"view","type":"function"},{"inputs":[{"internalType":"address","name":"spender","type":"address"},{"internalType":"uint256","name":"subtractedValue","type":"uint256"}],"name":"decreaseAllowance","outputs":[{"internalType":"bool","name":"","type":"bool"}],"stateMutability":"nonpayable","type":"function"},{"inputs":[],"name":"genesisTs","outputs":[{"internalType":"uint256","name":"","type":"uint256"}],"stateMutability":"view","type":"function"},{"inputs":[],"name":"getCurrentAMP","outputs":[{"internalType":"uint256","name":"","type":"uint256"}],"stateMutability":"view","type":"function"},{"inputs":[],"name":"getCurrentAPY","outputs":[{"internalType":"uint256","name":"","type":"uint256"}],"stateMutability":"view","type":"function"},{"inputs":[],"name":"getCurrentEAAR","outputs":[{"internalType":"uint256","name":"","type":"uint256"}],"stateMutability":"view","type":"function"},{"inputs":[],"name":"getCurrentMaxTerm","outputs":[{"internalType":"uint256","name":"","type":"uint256"}],"stateMutability":"view","type":"function"},{"inputs":[{"internalType":"uint256","name":"rankDelta","type":"uint256"},{"internalType":"uint256","name":"amplifier","type":"uint256"},{"internalType":"uint256","name":"term","type":"uint256"},{"internalType":"uint256","name":"eaa","type":"uint256"}],"name":"getGrossReward","outputs":[{"internalType":"uint256","name":"","type":"uint256"}],"stateMutability":"pure","type":"function"},{"inputs":[],"name":"getUserMint","outputs":[{"components":[{"internalType":"address","name":"user","type":"address"},{"internalType":"uint256","name":"term","type":"uint256"},{"internalType":"uint256","name":"maturityTs","type":"uint256"},{"internalType":"uint256","name":"rank","type":"uint256"},{"internalType":"uint256","name":"amplifier","type":"uint256"},{"internalType":"uint256","name":"eaaRate","type":"uint256"}],"internalType":"struct XENCrypto.MintInfo","name":"","type":"tuple"}],"stateMutability":"view","type":"function"},{"inputs":[],"name":"getUserStake","outputs":[{"components":[{"internalType":"uint256","name":"term","type":"uint256"},{"internalType":"uint256","name":"maturityTs","type":"uint256"},{"internalType":"uint256","name":"amount","type":"uint256"},{"internalType":"uint256","name":"apy","type":"uint256"}],"internalType":"struct XENCrypto.StakeInfo","name":"","type":"tuple"}],"stateMutability":"view","type":"function"},{"inputs":[],"name":"globalRank","outputs":[{"internalType":"uint256","name":"","type":"uint256"}],"stateMutability":"view","type":"function"},{"inputs":[{"internalType":"address","name":"spender","type":"address"},{"internalType":"uint256","name":"addedValue","type":"uint256"}],"name":"increaseAllowance","outputs":[{"internalType":"bool","name":"","type":"bool"}],"stateMutability":"nonpayable","type":"function"},{"inputs":[],"name":"name","outputs":[{"internalType":"string","name":"","type":"string"}],"stateMutability":"view","type":"function"},{"inputs":[{"internalType":"uint256","name":"amount","type":"uint256"},{"internalType":"uint256","name":"term","type":"uint256"}],"name":"stake","outputs":[],"stateMutability":"nonpayable","type":"function"},{"inputs":[],"name":"symbol","outputs":[{"internalType":"string","name":"","type":"string"}],"stateMutability":"view","type":"function"},{"inputs":[],"name":"totalSupply","outputs":[{"internalType":"uint256","name":"","type":"uint256"}],"stateMutability":"view","type":"function"},{"inputs":[],"name":"totalXenStaked","outputs":[{"internalType":"uint256","name":"","type":"uint256"}],"stateMutability":"view","type":"function"},{"inputs":[{"internalType":"address","name":"to","type":"address"},{"internalType":"uint256","name":"amount","type":"uint256"}],"name":"transfer","outputs":[{"internalType":"bool","name":"","type":"bool"}],"stateMutability":"nonpayable","type":"function"},{"inputs":[{"internalType":"address","name":"from","type":"address"},{"internalType":"address","name":"to","type":"address"},{"internalType":"uint256","name":"amount","type":"uint256"}],"name":"transferFrom","outputs":[{"internalType":"bool","name":"","type":"bool"}],"stateMutability":"nonpayable","type":"function"},{"inputs":[{"internalType":"address","name":"","type":"address"}],"name":"userBurns","outputs":[{"internalType":"uint256","name":"","type":"uint256"}],"stateMutability":"view","type":"function"},{"inputs":[{"internalType":"address","name":"","type":"address"}],"name":"userMints","outputs":[{"internalType":"address","name":"user","type":"address"},{"internalType":"uint256","name":"term","type":"uint256"},{"internalType":"uint256","name":"maturityTs","type":"uint256"},{"internalType":"uint256","name":"rank","type":"uint256"},{"internalType":"uint256","name":"amplifier","type":"uint256"},{"internalType":"uint256","name":"eaaRate","type":"uint256"}],"stateMutability":"view","type":"function"},{"inputs":[{"internalType":"address","name":"","type":"address"}],"name":"userStakes","outputs":[{"internalType":"uint256","name":"term","type":"uint256"},{"internalType":"uint256","name":"maturityTs","type":"uint256"},{"internalType":"uint256","name":"amount","type":"uint256"},{"internalType":"uint256","name":"apy","type":"uint256"}],"stateMutability":"view","type":"function"},{"inputs":[],"name":"withdraw","outputs":[],"stateMutability":"nonpayable","type":"function"}],"devdoc":{"kind":"dev","methods":{"allowance(address,address)":{"details":"See {IERC20-allowance}."},"approve(address,uint256)":{"details":"See {IERC20-approve}. NOTE: If `amount` is the maximum `uint256`, the allowance is not updated on `transferFrom`. This is semantically equivalent to an infinite approval. Requirements: - `spender` cannot be the zero address."},"balanceOf(address)":{"details":"See {IERC20-balanceOf}."},"burn(address,uint256)":{"details":"burns XEN tokens and creates Proof-Of-Burn record to be used by connected DeFi services"},"claimMintReward()":{"details":"ends minting upon maturity (and within permitted Withdrawal Time Window), gets minted XEN"},"claimMintRewardAndShare(address,uint256)":{"details":"ends minting upon maturity (and within permitted Withdrawal time Window)       mints XEN coins and splits them between User and designated other address"},"claimMintRewardAndStake(uint256,uint256)":{"details":"ends minting upon maturity (and within permitted Withdrawal time Window)       mints XEN coins and stakes 'pct' of it for 'term'"},"claimRank(uint256)":{"details":"accepts User cRank claim provided all checks pass (incl. no current claim exists)"},"decimals()":{"details":"Returns the number of decimals used to get its user representation. For example, if `decimals` equals `2`, a balance of `505` tokens should be displayed to a user as `5.05` (`505 / 10 ** 2`). Tokens usually opt for a value of 18, imitating the relationship between Ether and Wei. This is the value {ERC20} uses, unless this function is overridden; NOTE: This information is only used for _display_ purposes: it in no way affects any of the arithmetic of the contract, including {IERC20-balanceOf} and {IERC20-transfer}."},"decreaseAllowance(address,uint256)":{"details":"Atomically decreases the allowance granted to `spender` by the caller. This is an alternative to {approve} that can be used as a mitigation for problems described in {IERC20-approve}. Emits an {Approval} event indicating the updated allowance. Requirements: - `spender` cannot be the zero address. - `spender` must have allowance for the caller of at least `subtractedValue`."},"getCurrentAMP()":{"details":"returns current AMP"},"getCurrentAPY()":{"details":"returns current APY"},"getCurrentEAAR()":{"details":"returns current EAA Rate"},"getCurrentMaxTerm()":{"details":"returns current MaxTerm"},"getGrossReward(uint256,uint256,uint256,uint256)":{"details":"calculates gross Mint Reward"},"getUserMint()":{"details":"returns User Mint object associated with User account address"},"getUserStake()":{"details":"returns XEN Stake object associated with User account address"},"increaseAllowance(address,uint256)":{"details":"Atomically increases the allowance granted to `spender` by the caller. This is an alternative to {approve} that can be used as a mitigation for problems described in {IERC20-approve}. Emits an {Approval} event indicating the updated allowance. Requirements: - `spender` cannot be the zero address."},"name()":{"details":"Returns the name of the token."},"stake(uint256,uint256)":{"details":"initiates XEN Stake in amount for a term (days)"},"symbol()":{"details":"Returns the symbol of the token, usually a shorter version of the name."},"totalSupply()":{"details":"See {IERC20-totalSupply}."},"transfer(address,uint256)":{"details":"See {IERC20-transfer}. Requirements: - `to` cannot be the zero address. - the caller must have a balance of at least `amount`."},"transferFrom(address,address,uint256)":{"details":"See {IERC20-transferFrom}. Emits an {Approval} event indicating the updated allowance. This is not required by the EIP. See the note at the beginning of {ERC20}. NOTE: Does not update the allowance if the current allowance is the maximum `uint256`. Requirements: - `from` and `to` cannot be the zero address. - `from` must have a balance of at least `amount`. - the caller must have allowance for ``from``'s tokens of at least `amount`."},"withdraw()":{"details":"ends XEN Stake and gets reward if the Stake is mature"}},"version":1},"evm":{"bytecode":{"linkReferences":{"contracts/Math.sol":{"Math":[{"length":20,"start":10430},{"length":20,"start":12202},{"length":20,"start":13345},{"length":20,"start":14199}]}},"object":"60a060405260016005553480156200001657600080fd5b506040518060400160405280600a81526020017f58454e2043727970746f000000000000000000000000000000000000000000008152506040518060400160405280600381526020017f58454e000000000000000000000000000000000000000000000000000000000081525081600390805190602001906200009b929190620000c5565b508060049080519060200190620000b4929190620000c5565b5050504260808181525050620001da565b828054620000d390620001a4565b90600052602060002090601f016020900481019282620000f7576000855562000143565b82601f106200011257805160ff191683800117855562000143565b8280016001018555821562000143579182015b828111156200014257825182559160200191906001019062000125565b5b50905062000152919062000156565b5090565b5b808211156200017157600081600090555060010162000157565b5090565b7f4e487b7100000000000000000000000000000000000000000000000000000000600052602260045260246000fd5b60006002820490506001821680620001bd57607f821691505b60208210811415620001d457620001d362000175565b5b50919050565b608051614d77620002046000396000818161246c0152818161316901526131db0152614d776000f3fe608060405234801561001057600080fd5b50600436106103425760003560e01c80637e7aa62e116101b8578063b4800cdc11610104578063df282331116100a2578063ed2f23691161007c578063ed2f2369146109bf578063f0604829146109dd578063f340faed146109fb578063fed7426914610a1957610342565b8063df2823311461094e578063e3af6d0a14610983578063e81917b4146109a157610342565b8063c0c65259116100de578063c0c65259146108b2578063c56f0bab146108d0578063ce653d5f146108ee578063dd62ed3e1461091e57610342565b8063b4800cdc14610858578063ba3ec74114610876578063bcfe394f1461089457610342565b80639920245411610171578063a457c2d71161014b578063a457c2d7146107aa578063a9059cbb146107da578063b0fd1fc21461080a578063b21d35f21461083a57610342565b806399202454146107545780639dc29fac146107725780639ff054df1461078e57610342565b80637e7aa62e1461068b5780638979c87c146106a95780638da7ad23146106c7578063909a2ff6146106fa57806395d89b4114610718578063962ca4961461073657610342565b80632a62d96611610292578063543d3652116102305780637010d7a11161020a5780637010d7a11461060357806370a082311461062157806372475f94146106515780637b0472f01461066f57610342565b8063543d3652146105ab5780635bccb4c4146105c957806361a52a36146105e557610342565b8063395093511161026c57806339509351146105495780633ccfd60b14610579578063451257151461058357806352c7f8dc146105a157610342565b80632a62d966146104ef578063313ce5671461050d57806332870fda1461052b57610342565b8063110d7fc2116102ff5780631c244082116102d95780631c244082146104675780631c560305146104855780631c6f212e146104a157806323b872dd146104bf57610342565b8063110d7fc21461040d57806316f9c8fd1461042b57806318160ddd1461044957610342565b80630237893214610347578063069612a51461036557806306fdde0314610383578063095ea7b3146103a15780630bfae56b146103d15780630f2e1228146103ef575b600080fd5b61034f610a37565b60405161035c919061368d565b60405180910390f35b61036d610a3d565b60405161037a919061368d565b60405180910390f35b61038b610a43565b6040516103989190613741565b60405180910390f35b6103bb60048036038101906103b691906137f2565b610ad5565b6040516103c8919061384d565b60405180910390f35b6103d9610af8565b6040516103e6919061368d565b60405180910390f35b6103f7610b0b565b604051610404919061368d565b60405180910390f35b610415610b10565b604051610422919061368d565b60405180910390f35b610433610b15565b60405161044091906138cc565b60405180910390f35b610451610b9b565b60405161045e919061368d565b60405180910390f35b61046f610ba5565b60405161047c919061368d565b60405180910390f35b61049f600480360381019061049a91906137f2565b610bab565b005b6104a9610eef565b6040516104b6919061368d565b60405180910390f35b6104d960048036038101906104d491906138e7565b610ef4565b6040516104e6919061384d565b60405180910390f35b6104f7610f23565b604051610504919061368d565b60405180910390f35b610515610f28565b6040516105229190613956565b60405180910390f35b610533610f31565b604051610540919061368d565b60405180910390f35b610563600480360381019061055e91906137f2565b610f36565b604051610570919061384d565b60405180910390f35b610581610f6d565b005b61058b61116e565b604051610598919061368d565b60405180910390f35b6105a961117d565b005b6105b3611391565b6040516105c0919061368d565b60405180910390f35b6105e360048036038101906105de9190613971565b611396565b005b6105ed611824565b6040516105fa919061368d565b60405180910390f35b61060b61182b565b6040516106189190613a3b565b60405180910390f35b61063b60048036038101906106369190613a56565b611911565b604051610648919061368d565b60405180910390f35b610659611959565b604051610666919061368d565b60405180910390f35b61068960048036038101906106849190613971565b61195e565b005b610693611bcc565b6040516106a0919061368d565b60405180910390f35b6106b1611bd1565b6040516106be919061368d565b60405180910390f35b6106e160048036038101906106dc9190613a56565b611be0565b6040516106f19493929190613a83565b60405180910390f35b610702611c10565b60405161070f919061368d565b60405180910390f35b610720611c15565b60405161072d9190613741565b60405180910390f35b61073e611ca7565b60405161074b919061368d565b60405180910390f35b61075c611cb6565b604051610769919061368d565b60405180910390f35b61078c600480360381019061078791906137f2565b611cc5565b005b6107a860048036038101906107a39190613ac8565b611ed2565b005b6107c460048036038101906107bf91906137f2565b6121d9565b6040516107d1919061384d565b60405180910390f35b6107f460048036038101906107ef91906137f2565b612250565b604051610801919061384d565b60405180910390f35b610824600480360381019061081f9190613af5565b612273565b604051610831919061368d565b60405180910390f35b610842612329565b60405161084f919061368d565b60405180910390f35b61086061232f565b60405161086d919061368d565b60405180910390f35b61087e612335565b60405161088b9190613741565b60405180910390f35b61089c612351565b6040516108a9919061368d565b60405180910390f35b6108ba612356565b6040516108c7919061368d565b60405180910390f35b6108d861236a565b6040516108e5919061368d565b60405180910390f35b61090860048036038101906109039190613a56565b61236f565b604051610915919061368d565b60405180910390f35b61093860048036038101906109339190613b5c565b612387565b604051610945919061368d565b60405180910390f35b61096860048036038101906109639190613a56565b61240e565b60405161097a96959493929190613bab565b60405180910390f35b61098b61246a565b604051610998919061368d565b60405180910390f35b6109a961248e565b6040516109b6919061368d565b60405180910390f35b6109c7612494565b6040516109d4919061368d565b60405180910390f35b6109e561249a565b6040516109f2919061368d565b60405180910390f35b610a036124b9565b604051610a10919061368d565b60405180910390f35b610a216124c0565b604051610a2e919061368d565b60405180910390f35b61016d81565b60085481565b606060038054610a5290613c3b565b80601f0160208091040260200160405190810160405280929190818152602001828054610a7e90613c3b565b8015610acb5780601f10610aa057610100808354040283529160200191610acb565b820191906000526020600020905b815481529060010190602001808311610aae57829003601f168201915b5050505050905090565b600080610ae06124c5565b9050610aed8185856124cd565b600191505092915050565b620151806064610b089190613c9c565b81565b606381565b600081565b610b1d613600565b600a6000610b296124c5565b73ffffffffffffffffffffffffffffffffffffffff1673ffffffffffffffffffffffffffffffffffffffff168152602001908152602001600020604051806080016040529081600082015481526020016001820154815260200160028201548152602001600382015481525050905090565b6000600254905090565b60055481565b600060096000610bb96124c5565b73ffffffffffffffffffffffffffffffffffffffff1673ffffffffffffffffffffffffffffffffffffffff1681526020019081526020016000206040518060c00160405290816000820160009054906101000a900473ffffffffffffffffffffffffffffffffffffffff1673ffffffffffffffffffffffffffffffffffffffff1673ffffffffffffffffffffffffffffffffffffffff168152602001600182015481526020016002820154815260200160038201548152602001600482015481526020016005820154815250509050600073ffffffffffffffffffffffffffffffffffffffff168373ffffffffffffffffffffffffffffffffffffffff161415610cf8576040517f08c379a0000000000000000000000000000000000000000000000000000000008152600401610cef90613d68565b60405180910390fd5b60008211610d3b576040517f08c379a0000000000000000000000000000000000000000000000000000000008152600401610d3290613dd4565b60405180910390fd5b60658210610d7e576040517f08c379a0000000000000000000000000000000000000000000000000000000008152600401610d7590613e40565b60405180910390fd5b6000816060015111610dc5576040517f08c379a0000000000000000000000000000000000000000000000000000000008152600401610dbc90613eac565b60405180910390fd5b80604001514211610e0b576040517f08c379a0000000000000000000000000000000000000000000000000000000008152600401610e0290613f18565b60405180910390fd5b6000670de0b6b3a7640000610e3783606001518460200151856040015186608001518760a00151612698565b610e419190613c9c565b9050600060648483610e539190613c9c565b610e5d9190613f67565b905060008183610e6d9190613f98565b9050610e80610e7a6124c5565b82612798565b610e8a8683612798565b610e926128f8565b610e9a6124c5565b73ffffffffffffffffffffffffffffffffffffffff167fd74752b13281df13701575f3a507e9b1242e0b5fb040143211c481c1fce573a684604051610edf919061368d565b60405180910390a2505050505050565b600181565b600080610eff6124c5565b9050610f0c8582856129aa565b610f17858585612a36565b60019150509392505050565b600081565b60006012905090565b605a81565b600080610f416124c5565b9050610f62818585610f538589612387565b610f5d9190613fcc565b6124cd565b600191505092915050565b6000600a6000610f7b6124c5565b73ffffffffffffffffffffffffffffffffffffffff1673ffffffffffffffffffffffffffffffffffffffff16815260200190815260200160002060405180608001604052908160008201548152602001600182015481526020016002820154815260200160038201548152505090506000816040015111611031576040517f08c379a00000000000000000000000000000000000000000000000000000000081526004016110289061406e565b60405180910390fd5b600061104f8260400151836000015184602001518560600151612cb7565b9050600760008154809291906110649061408e565b919050555081604001516008600082825461107f9190613f98565b925050819055506110a66110916124c5565b8284604001516110a19190613fcc565b612798565b6110ae6124c5565b73ffffffffffffffffffffffffffffffffffffffff167f92ccf450a286a957af52509bc1c9939d1a6a481783e142e41e2499f0bb66ebc68360400151836040516110f99291906140b8565b60405180910390a2600a600061110d6124c5565b73ffffffffffffffffffffffffffffffffffffffff1673ffffffffffffffffffffffffffffffffffffffff16815260200190815260200160002060008082016000905560018201600090556002820160009055600382016000905550505050565b6000611178612d1c565b905090565b60006009600061118b6124c5565b73ffffffffffffffffffffffffffffffffffffffff1673ffffffffffffffffffffffffffffffffffffffff1681526020019081526020016000206040518060c00160405290816000820160009054906101000a900473ffffffffffffffffffffffffffffffffffffffff1673ffffffffffffffffffffffffffffffffffffffff1673ffffffffffffffffffffffffffffffffffffffff16815260200160018201548152602001600282015481526020016003820154815260200160048201548152602001600582015481525050905060008160600151116112a1576040517f08c379a000000000000000000000000000000000000000000000000000000000815260040161129890613eac565b60405180910390fd5b806040015142116112e7576040517f08c379a00000000000000000000000000000000000000000000000000000000081526004016112de90613f18565b60405180910390fd5b6000670de0b6b3a764000061131383606001518460200151856040015186608001518760a00151612698565b61131d9190613c9c565b905061133061132a6124c5565b82612798565b6113386128f8565b6113406124c5565b73ffffffffffffffffffffffffffffffffffffffff167fd74752b13281df13701575f3a507e9b1242e0b5fb040143211c481c1fce573a682604051611385919061368d565b60405180910390a25050565b600181565b6000600960006113a46124c5565b73ffffffffffffffffffffffffffffffffffffffff1673ffffffffffffffffffffffffffffffffffffffff1681526020019081526020016000206040518060c00160405290816000820160009054906101000a900473ffffffffffffffffffffffffffffffffffffffff1673ffffffffffffffffffffffffffffffffffffffff1673ffffffffffffffffffffffffffffffffffffffff168152602001600182015481526020016002820154815260200160038201548152602001600482015481526020016005820154815250509050606583106114b6576040517f08c379a00000000000000000000000000000000000000000000000000000000081526004016114ad9061412d565b60405180910390fd5b60008160600151116114fd576040517f08c379a00000000000000000000000000000000000000000000000000000000081526004016114f490613eac565b60405180910390fd5b80604001514211611543576040517f08c379a000000000000000000000000000000000000000000000000000000000815260040161153a90613f18565b60405180910390fd5b6000670de0b6b3a764000061156f83606001518460200151856040015186608001518760a00151612698565b6115799190613c9c565b905060006064858361158b9190613c9c565b6115959190613f67565b9050600081836115a59190613f98565b90506115b86115b26124c5565b82612798565b6115c06128f8565b6115c86124c5565b73ffffffffffffffffffffffffffffffffffffffff167fd74752b13281df13701575f3a507e9b1242e0b5fb040143211c481c1fce573a68460405161160d919061368d565b60405180910390a260008211611658576040517f08c379a000000000000000000000000000000000000000000000000000000000815260040161164f90614199565b60405180910390fd5b600162015180600161166a9190613c9c565b6116749190613f98565b62015180866116839190613c9c565b116116c3576040517f08c379a00000000000000000000000000000000000000000000000000000000081526004016116ba90614205565b60405180910390fd5b6001620151806103e86116d69190613c9c565b6116e09190613fcc565b62015180866116ef9190613c9c565b1061172f576040517f08c379a000000000000000000000000000000000000000000000000000000000815260040161172690614271565b60405180910390fd5b6000600a600061173d6124c5565b73ffffffffffffffffffffffffffffffffffffffff1673ffffffffffffffffffffffffffffffffffffffff16815260200190815260200160002060020154146117bb576040517f08c379a00000000000000000000000000000000000000000000000000000000081526004016117b2906142dd565b60405180910390fd5b6117c58286612e4d565b6117cd6124c5565b73ffffffffffffffffffffffffffffffffffffffff167f1449c6dd7851abc30abf37f57715f492010519147cc2652fbc38202c18a6ee9083876040516118149291906140b8565b60405180910390a2505050505050565b6201518081565b611833613628565b6009600061183f6124c5565b73ffffffffffffffffffffffffffffffffffffffff1673ffffffffffffffffffffffffffffffffffffffff1681526020019081526020016000206040518060c00160405290816000820160009054906101000a900473ffffffffffffffffffffffffffffffffffffffff1673ffffffffffffffffffffffffffffffffffffffff1673ffffffffffffffffffffffffffffffffffffffff16815260200160018201548152602001600282015481526020016003820154815260200160048201548152602001600582015481525050905090565b60008060008373ffffffffffffffffffffffffffffffffffffffff1673ffffffffffffffffffffffffffffffffffffffff168152602001908152602001600020549050919050565b600f81565b8161196f61196a6124c5565b611911565b10156119b0576040517f08c379a00000000000000000000000000000000000000000000000000000000081526004016119a790614349565b60405180910390fd5b600082116119f3576040517f08c379a00000000000000000000000000000000000000000000000000000000081526004016119ea90614199565b60405180910390fd5b6001620151806001611a059190613c9c565b611a0f9190613f98565b6201518082611a1e9190613c9c565b11611a5e576040517f08c379a0000000000000000000000000000000000000000000000000000000008152600401611a5590614205565b60405180910390fd5b6001620151806103e8611a719190613c9c565b611a7b9190613fcc565b6201518082611a8a9190613c9c565b10611aca576040517f08c379a0000000000000000000000000000000000000000000000000000000008152600401611ac190614271565b60405180910390fd5b6000600a6000611ad86124c5565b73ffffffffffffffffffffffffffffffffffffffff1673ffffffffffffffffffffffffffffffffffffffff1681526020019081526020016000206002015414611b56576040517f08c379a0000000000000000000000000000000000000000000000000000000008152600401611b4d906142dd565b60405180910390fd5b611b67611b616124c5565b83612f34565b611b718282612e4d565b611b796124c5565b73ffffffffffffffffffffffffffffffffffffffff167f1449c6dd7851abc30abf37f57715f492010519147cc2652fbc38202c18a6ee908383604051611bc09291906140b8565b60405180910390a25050565b600281565b6000611bdb61310b565b905090565b600a6020528060005260406000206000915090508060000154908060010154908060020154908060030154905084565b606481565b606060048054611c2490613c3b565b80601f0160208091040260200160405190810160405280929190818152602001828054611c5090613c3b565b8015611c9d5780601f10611c7257610100808354040283529160200191611c9d565b820191906000526020600020905b815481529060010190602001808311611c8057829003601f168201915b5050505050905090565b6000611cb1613154565b905090565b6000611cc06131d2565b905090565b60008111611d08576040517f08c379a0000000000000000000000000000000000000000000000000000000008152600401611cff906143b5565b60405180910390fd5b611d106124c5565b73ffffffffffffffffffffffffffffffffffffffff166301ffc9a77f543746b1000000000000000000000000000000000000000000000000000000006040518263ffffffff1660e01b8152600401611d689190614410565b602060405180830381865afa158015611d85573d6000803e3d6000fd5b505050506040513d601f19601f82011682018060405250810190611da99190614457565b611de8576040517f08c379a0000000000000000000000000000000000000000000000000000000008152600401611ddf906144d0565b60405180910390fd5b611dfa82611df46124c5565b836129aa565b611e048282612f34565b80600b60008473ffffffffffffffffffffffffffffffffffffffff1673ffffffffffffffffffffffffffffffffffffffff1681526020019081526020016000206000828254611e539190613fcc565b92505081905550611e626124c5565b73ffffffffffffffffffffffffffffffffffffffff1663543746b183836040518363ffffffff1660e01b8152600401611e9c9291906144f0565b600060405180830381600087803b158015611eb657600080fd5b505af1158015611eca573d6000803e3d6000fd5b505050505050565b60006201518082611ee39190613c9c565b90506001620151806001611ef79190613c9c565b611f019190613f98565b8111611f42576040517f08c379a0000000000000000000000000000000000000000000000000000000008152600401611f3990614565565b60405180910390fd5b6001611f4c612d1c565b611f569190613fcc565b8110611f97576040517f08c379a0000000000000000000000000000000000000000000000000000000008152600401611f8e906145f7565b60405180910390fd5b600060096000611fa56124c5565b73ffffffffffffffffffffffffffffffffffffffff1673ffffffffffffffffffffffffffffffffffffffff1681526020019081526020016000206003015414612023576040517f08c379a000000000000000000000000000000000000000000000000000000000815260040161201a90614663565b60405180910390fd5b60006040518060c001604052806120386124c5565b73ffffffffffffffffffffffffffffffffffffffff16815260200184815260200183426120659190613fcc565b8152602001600554815260200161207a6131d2565b815260200161208761310b565b815250905080600960006120996124c5565b73ffffffffffffffffffffffffffffffffffffffff1673ffffffffffffffffffffffffffffffffffffffff16815260200190815260200160002060008201518160000160006101000a81548173ffffffffffffffffffffffffffffffffffffffff021916908373ffffffffffffffffffffffffffffffffffffffff1602179055506020820151816001015560408201518160020155606082015181600301556080820151816004015560a082015181600501559050506006600081548092919061216290614683565b919050555061216f6124c5565b73ffffffffffffffffffffffffffffffffffffffff167fe9149e1b5059238baed02fa659dbf4bd932fbcf760a431330df4d934bc942f3784600560008154809291906121ba90614683565b919050556040516121cc9291906140b8565b60405180910390a2505050565b6000806121e46124c5565b905060006121f28286612387565b905083811015612237576040517f08c379a000000000000000000000000000000000000000000000000000000000815260040161222e9061473e565b60405180910390fd5b61224482868684036124cd565b60019250505092915050565b60008061225b6124c5565b9050612268818585612a36565b600191505092915050565b60008061228a612282876132b4565b600f0b6132d7565b905060006122e661229a856132b4565b6122d56122a6886132b4565b6122c46122b28b6132b4565b87600f0b6133fb90919063ffffffff16565b600f0b6133fb90919063ffffffff16565b600f0b6133fb90919063ffffffff16565b905061231361230b6122f96103e86132b4565b83600f0b61346690919063ffffffff16565b600f0b6134f0565b67ffffffffffffffff1692505050949350505050565b61138881565b60065481565b604051806060016040528060258152602001614d1d6025913981565b600181565b620151806103e86123679190613c9c565b81565b600781565b600b6020528060005260406000206000915090505481565b6000600160008473ffffffffffffffffffffffffffffffffffffffff1673ffffffffffffffffffffffffffffffffffffffff16815260200190815260200160002060008373ffffffffffffffffffffffffffffffffffffffff1673ffffffffffffffffffffffffffffffffffffffff16815260200190815260200160002054905092915050565b60096020528060005260406000206000915090508060000160009054906101000a900473ffffffffffffffffffffffffffffffffffffffff16908060010154908060020154908060030154908060040154908060050154905086565b7f000000000000000000000000000000000000000000000000000000000000000081565b610bb881565b60075481565b60016201518060016124ac9190613c9c565b6124b69190613f98565b81565b620186a081565b601481565b600033905090565b600073ffffffffffffffffffffffffffffffffffffffff168373ffffffffffffffffffffffffffffffffffffffff16141561253d576040517f08c379a0000000000000000000000000000000000000000000000000000000008152600401612534906147d0565b60405180910390fd5b600073ffffffffffffffffffffffffffffffffffffffff168273ffffffffffffffffffffffffffffffffffffffff1614156125ad576040517f08c379a00000000000000000000000000000000000000000000000000000000081526004016125a490614862565b60405180910390fd5b80600160008573ffffffffffffffffffffffffffffffffffffffff1673ffffffffffffffffffffffffffffffffffffffff16815260200190815260200160002060008473ffffffffffffffffffffffffffffffffffffffff1673ffffffffffffffffffffffffffffffffffffffff168152602001908152602001600020819055508173ffffffffffffffffffffffffffffffffffffffff168373ffffffffffffffffffffffffffffffffffffffff167f8c5be1e5ebec7d5bd14f71427d1e84f3dd0314c0f7b2291e5b200ac8c7c3b9258360405161268b919061368d565b60405180910390a3505050565b60008084426126a79190613f98565b905060006126b482613511565b9050600073__$6ad30996409d058139477db06ae39abaac$__636d5433e68a6005546126e09190613f98565b60026040518363ffffffff1660e01b81526004016126ff9291906148d6565b602060405180830381865af415801561271c573d6000803e3d6000fd5b505050506040513d601f19601f820116820180604052508101906127409190614914565b90506000856103e86127529190613fcc565b9050600061276283898c85612273565b905060648460646127739190613f98565b8261277e9190613c9c565b6127889190613f67565b9550505050505095945050505050565b600073ffffffffffffffffffffffffffffffffffffffff168273ffffffffffffffffffffffffffffffffffffffff161415612808576040517f08c379a00000000000000000000000000000000000000000000000000000000081526004016127ff9061498d565b60405180910390fd5b612814600083836135f6565b80600260008282546128269190613fcc565b92505081905550806000808473ffffffffffffffffffffffffffffffffffffffff1673ffffffffffffffffffffffffffffffffffffffff168152602001908152602001600020600082825461287b9190613fcc565b925050819055508173ffffffffffffffffffffffffffffffffffffffff16600073ffffffffffffffffffffffffffffffffffffffff167fddf252ad1be2c89b69c2b068fc378daa952ba7f163c4a11628f55a4df523b3ef836040516128e0919061368d565b60405180910390a36128f4600083836135fb565b5050565b600960006129046124c5565b73ffffffffffffffffffffffffffffffffffffffff1673ffffffffffffffffffffffffffffffffffffffff168152602001908152602001600020600080820160006101000a81549073ffffffffffffffffffffffffffffffffffffffff0219169055600182016000905560028201600090556003820160009055600482016000905560058201600090555050600660008154809291906129a39061408e565b9190505550565b60006129b68484612387565b90507fffffffffffffffffffffffffffffffffffffffffffffffffffffffffffffffff8114612a305781811015612a22576040517f08c379a0000000000000000000000000000000000000000000000000000000008152600401612a19906149f9565b60405180910390fd5b612a2f84848484036124cd565b5b50505050565b600073ffffffffffffffffffffffffffffffffffffffff168373ffffffffffffffffffffffffffffffffffffffff161415612aa6576040517f08c379a0000000000000000000000000000000000000000000000000000000008152600401612a9d90614a8b565b60405180910390fd5b600073ffffffffffffffffffffffffffffffffffffffff168273ffffffffffffffffffffffffffffffffffffffff161415612b16576040517f08c379a0000000000000000000000000000000000000000000000000000000008152600401612b0d90614b1d565b60405180910390fd5b612b218383836135f6565b60008060008573ffffffffffffffffffffffffffffffffffffffff1673ffffffffffffffffffffffffffffffffffffffff16815260200190815260200160002054905081811015612ba7576040517f08c379a0000000000000000000000000000000000000000000000000000000008152600401612b9e90614baf565b60405180910390fd5b8181036000808673ffffffffffffffffffffffffffffffffffffffff1673ffffffffffffffffffffffffffffffffffffffff16815260200190815260200160002081905550816000808573ffffffffffffffffffffffffffffffffffffffff1673ffffffffffffffffffffffffffffffffffffffff1681526020019081526020016000206000828254612c3a9190613fcc565b925050819055508273ffffffffffffffffffffffffffffffffffffffff168473ffffffffffffffffffffffffffffffffffffffff167fddf252ad1be2c89b69c2b068fc378daa952ba7f163c4a11628f55a4df523b3ef84604051612c9e919061368d565b60405180910390a3612cb18484846135fb565b50505050565b600082421115612d0f57600061016d620f42408685612cd69190613c9c565b612ce09190613c9c565b612cea9190613f67565b90506305f5e1008187612cfd9190613c9c565b612d079190613f67565b915050612d14565b600090505b949350505050565b60006113886005541115612e37576000612d6b612d63612d3c600f6132b4565b612d52612d4a6005546132b4565b600f0b6132d7565b600f0b6133fb90919063ffffffff16565b600f0b6134f0565b67ffffffffffffffff16905060006201518082612d889190613c9c565b620151806064612d989190613c9c565b612da29190613fcc565b905073__$6ad30996409d058139477db06ae39abaac$__637ae2b5c782620151806103e8612dd09190613c9c565b6040518363ffffffff1660e01b8152600401612ded929190614bcf565b602060405180830381865af4158015612e0a573d6000803e3d6000fd5b505050506040513d601f19601f82011682018060405250810190612e2e9190614914565b92505050612e4a565b620151806064612e479190613c9c565b90505b90565b60405180608001604052808281526020016201518083612e6d9190613c9c565b42612e789190613fcc565b8152602001838152602001612e8b613154565b815250600a6000612e9a6124c5565b73ffffffffffffffffffffffffffffffffffffffff1673ffffffffffffffffffffffffffffffffffffffff1681526020019081526020016000206000820151816000015560208201518160010155604082015181600201556060820151816003015590505060076000815480929190612f1290614683565b91905055508160086000828254612f299190613fcc565b925050819055505050565b600073ffffffffffffffffffffffffffffffffffffffff168273ffffffffffffffffffffffffffffffffffffffff161415612fa4576040517f08c379a0000000000000000000000000000000000000000000000000000000008152600401612f9b90614c6a565b60405180910390fd5b612fb0826000836135f6565b60008060008473ffffffffffffffffffffffffffffffffffffffff1673ffffffffffffffffffffffffffffffffffffffff16815260200190815260200160002054905081811015613036576040517f08c379a000000000000000000000000000000000000000000000000000000000815260040161302d90614cfc565b60405180910390fd5b8181036000808573ffffffffffffffffffffffffffffffffffffffff1673ffffffffffffffffffffffffffffffffffffffff16815260200190815260200160002081905550816002600082825461308d9190613f98565b92505081905550600073ffffffffffffffffffffffffffffffffffffffff168373ffffffffffffffffffffffffffffffffffffffff167fddf252ad1be2c89b69c2b068fc378daa952ba7f163c4a11628f55a4df523b3ef846040516130f2919061368d565b60405180910390a3613106836000846135fb565b505050565b600080620186a060055460016131219190613c9c565b61312b9190613f67565b90506064811115613140576000915050613151565b80606461314d9190613f98565b9150505b90565b600080605a620151806131679190613c9c565b7f0000000000000000000000000000000000000000000000000000000000000000426131939190613f98565b61319d9190613f67565b905080600260146131ae9190613f98565b10156131be5760029150506131cf565b8060146131cb9190613f98565b9150505b90565b600080620151807f0000000000000000000000000000000000000000000000000000000000000000426132059190613f98565b61320f9190613f67565b9050610bb88110156132ab5773__$6ad30996409d058139477db06ae39abaac$__636d5433e682610bb86132439190613f98565b60016040518363ffffffff1660e01b8152600401613262929190614bcf565b602060405180830381865af415801561327f573d6000803e3d6000fd5b505050506040513d601f19601f820116820180604052508101906132a39190614914565b9150506132b1565b60019150505b90565b6000677fffffffffffffff8211156132cb57600080fd5b604082901b9050919050565b60008082600f0b136132e857600080fd5b60008083600f0b905068010000000000000000811261330f57604081901d90506040820191505b640100000000811261332957602081901d90506020820191505b62010000811261334157601081901d90506010820191505b610100811261335857600881901d90506008820191505b6010811261336e57600481901d90506004820191505b6004811261338457600281901d90506002820191505b60028112613393576001820191505b60006040808403901b9050600083607f0386600f0b901b9050600067800000000000000090505b60008113156133ee578182029150600060ff83901c905080607f0183901c92508082028401935050600181901d90506133ba565b5081945050505050919050565b600080604083600f0b85600f0b02901d90507fffffffffffffffffffffffffffffffff80000000000000000000000000000000600f0b811215801561345357506f7fffffffffffffffffffffffffffffff600f0b8113155b61345c57600080fd5b8091505092915050565b60008082600f0b141561347857600080fd5b600082600f0b604085600f0b901b8161349457613493613f38565b5b0590507fffffffffffffffffffffffffffffffff80000000000000000000000000000000600f0b81121580156134dd57506f7fffffffffffffffffffffffffffffff600f0b8113155b6134e657600080fd5b8091505092915050565b60008082600f0b121561350257600080fd5b604082600f0b901d9050919050565b60008062015180836135239190613f67565b9050600160076135339190613f98565b8111156135445760639150506135f1565b6000600160076003846135579190613fcc565b6001901b6135659190613f67565b61356f9190613f98565b905073__$6ad30996409d058139477db06ae39abaac$__637ae2b5c78260636040518363ffffffff1660e01b81526004016135ab929190614bcf565b602060405180830381865af41580156135c8573d6000803e3d6000fd5b505050506040513d601f19601f820116820180604052508101906135ec9190614914565b925050505b919050565b505050565b505050565b6040518060800160405280600081526020016000815260200160008152602001600081525090565b6040518060c00160405280600073ffffffffffffffffffffffffffffffffffffffff16815260200160008152602001600081526020016000815260200160008152602001600081525090565b6000819050919050565b61368781613674565b82525050565b60006020820190506136a2600083018461367e565b92915050565b600081519050919050565b600082825260208201905092915050565b60005b838110156136e25780820151818401526020810190506136c7565b838111156136f1576000848401525b50505050565b6000601f19601f8301169050919050565b6000613713826136a8565b61371d81856136b3565b935061372d8185602086016136c4565b613736816136f7565b840191505092915050565b6000602082019050818103600083015261375b8184613708565b905092915050565b600080fd5b600073ffffffffffffffffffffffffffffffffffffffff82169050919050565b600061379382613768565b9050919050565b6137a381613788565b81146137ae57600080fd5b50565b6000813590506137c08161379a565b92915050565b6137cf81613674565b81146137da57600080fd5b50565b6000813590506137ec816137c6565b92915050565b6000806040838503121561380957613808613763565b5b6000613817858286016137b1565b9250506020613828858286016137dd565b9150509250929050565b60008115159050919050565b61384781613832565b82525050565b6000602082019050613862600083018461383e565b92915050565b61387181613674565b82525050565b60808201600082015161388d6000850182613868565b5060208201516138a06020850182613868565b5060408201516138b36040850182613868565b5060608201516138c66060850182613868565b50505050565b60006080820190506138e16000830184613877565b92915050565b600080600060608486031215613900576138ff613763565b5b600061390e868287016137b1565b935050602061391f868287016137b1565b9250506040613930868287016137dd565b9150509250925092565b600060ff82169050919050565b6139508161393a565b82525050565b600060208201905061396b6000830184613947565b92915050565b6000806040838503121561398857613987613763565b5b6000613996858286016137dd565b92505060206139a7858286016137dd565b9150509250929050565b6139ba81613788565b82525050565b60c0820160008201516139d660008501826139b1565b5060208201516139e96020850182613868565b5060408201516139fc6040850182613868565b506060820151613a0f6060850182613868565b506080820151613a226080850182613868565b5060a0820151613a3560a0850182613868565b50505050565b600060c082019050613a5060008301846139c0565b92915050565b600060208284031215613a6c57613a6b613763565b5b6000613a7a848285016137b1565b91505092915050565b6000608082019050613a98600083018761367e565b613aa5602083018661367e565b613ab2604083018561367e565b613abf606083018461367e565b95945050505050565b600060208284031215613ade57613add613763565b5b6000613aec848285016137dd565b91505092915050565b60008060008060808587031215613b0f57613b0e613763565b5b6000613b1d878288016137dd565b9450506020613b2e878288016137dd565b9350506040613b3f878288016137dd565b9250506060613b50878288016137dd565b91505092959194509250565b60008060408385031215613b7357613b72613763565b5b6000613b81858286016137b1565b9250506020613b92858286016137b1565b9150509250929050565b613ba581613788565b82525050565b600060c082019050613bc06000830189613b9c565b613bcd602083018861367e565b613bda604083018761367e565b613be7606083018661367e565b613bf4608083018561367e565b613c0160a083018461367e565b979650505050505050565b7f4e487b7100000000000000000000000000000000000000000000000000000000600052602260045260246000fd5b60006002820490506001821680613c5357607f821691505b60208210811415613c6757613c66613c0c565b5b50919050565b7f4e487b7100000000000000000000000000000000000000000000000000000000600052601160045260246000fd5b6000613ca782613674565b9150613cb283613674565b9250817fffffffffffffffffffffffffffffffffffffffffffffffffffffffffffffffff0483118215151615613ceb57613cea613c6d565b5b828202905092915050565b7f4352616e6b3a2043616e6e6f742073686172652077697468207a65726f20616460008201527f6472657373000000000000000000000000000000000000000000000000000000602082015250565b6000613d526025836136b3565b9150613d5d82613cf6565b604082019050919050565b60006020820190508181036000830152613d8181613d45565b9050919050565b7f4352616e6b3a2043616e6e6f74207368617265207a65726f2070657263656e74600082015250565b6000613dbe6020836136b3565b9150613dc982613d88565b602082019050919050565b60006020820190508181036000830152613ded81613db1565b9050919050565b7f4352616e6b3a2043616e6e6f74207368617265203130302b2070657263656e74600082015250565b6000613e2a6020836136b3565b9150613e3582613df4565b602082019050919050565b60006020820190508181036000830152613e5981613e1d565b9050919050565b7f4352616e6b3a204e6f206d696e74206578697374730000000000000000000000600082015250565b6000613e966015836136b3565b9150613ea182613e60565b602082019050919050565b60006020820190508181036000830152613ec581613e89565b9050919050565b7f4352616e6b3a204d696e74206d61747572697479206e6f742072656163686564600082015250565b6000613f026020836136b3565b9150613f0d82613ecc565b602082019050919050565b60006020820190508181036000830152613f3181613ef5565b9050919050565b7f4e487b7100000000000000000000000000000000000000000000000000000000600052601260045260246000fd5b6000613f7282613674565b9150613f7d83613674565b925082613f8d57613f8c613f38565b5b828204905092915050565b6000613fa382613674565b9150613fae83613674565b925082821015613fc157613fc0613c6d565b5b828203905092915050565b6000613fd782613674565b9150613fe283613674565b9250827fffffffffffffffffffffffffffffffffffffffffffffffffffffffffffffffff0382111561401757614016613c6d565b5b828201905092915050565b7f58454e3a206e6f207374616b6520657869737473000000000000000000000000600082015250565b60006140586014836136b3565b915061406382614022565b602082019050919050565b600060208201905081810360008301526140878161404b565b9050919050565b600061409982613674565b915060008214156140ad576140ac613c6d565b5b600182039050919050565b60006040820190506140cd600083018561367e565b6140da602083018461367e565b9392505050565b7f4352616e6b3a2043616e6e6f74207368617265203e3130302070657263656e74600082015250565b60006141176020836136b3565b9150614122826140e1565b602082019050919050565b600060208201905081810360008301526141468161410a565b9050919050565b7f58454e3a2042656c6f77206d696e207374616b65000000000000000000000000600082015250565b60006141836014836136b3565b915061418e8261414d565b602082019050919050565b600060208201905081810360008301526141b281614176565b9050919050565b7f58454e3a2042656c6f77206d696e207374616b65207465726d00000000000000600082015250565b60006141ef6019836136b3565b91506141fa826141b9565b602082019050919050565b6000602082019050818103600083015261421e816141e2565b9050919050565b7f58454e3a2041626f7665206d6178207374616b65207465726d00000000000000600082015250565b600061425b6019836136b3565b915061426682614225565b602082019050919050565b6000602082019050818103600083015261428a8161424e565b9050919050565b7f58454e3a207374616b6520657869737473000000000000000000000000000000600082015250565b60006142c76011836136b3565b91506142d282614291565b602082019050919050565b600060208201905081810360008301526142f6816142ba565b9050919050565b7f58454e3a206e6f7420656e6f7567682062616c616e6365000000000000000000600082015250565b60006143336017836136b3565b915061433e826142fd565b602082019050919050565b6000602082019050818103600083015261436281614326565b9050919050565b7f4275726e3a2042656c6f77206d696e206c696d69740000000000000000000000600082015250565b600061439f6015836136b3565b91506143aa82614369565b602082019050919050565b600060208201905081810360008301526143ce81614392565b9050919050565b60007fffffffff0000000000000000000000000000000000000000000000000000000082169050919050565b61440a816143d5565b82525050565b60006020820190506144256000830184614401565b92915050565b61443481613832565b811461443f57600080fd5b50565b6000815190506144518161442b565b92915050565b60006020828403121561446d5761446c613763565b5b600061447b84828501614442565b91505092915050565b7f4275726e3a206e6f74206120737570706f7274656420636f6e74726163740000600082015250565b60006144ba601e836136b3565b91506144c582614484565b602082019050919050565b600060208201905081810360008301526144e9816144ad565b9050919050565b60006040820190506145056000830185613b9c565b614512602083018461367e565b9392505050565b7f4352616e6b3a205465726d206c657373207468616e206d696e00000000000000600082015250565b600061454f6019836136b3565b915061455a82614519565b602082019050919050565b6000602082019050818103600083015261457e81614542565b9050919050565b7f4352616e6b3a205465726d206d6f7265207468616e2063757272656e74206d6160008201527f78207465726d0000000000000000000000000000000000000000000000000000602082015250565b60006145e16026836136b3565b91506145ec82614585565b604082019050919050565b60006020820190508181036000830152614610816145d4565b9050919050565b7f4352616e6b3a204d696e7420616c726561647920696e2070726f677265737300600082015250565b600061464d601f836136b3565b915061465882614617565b602082019050919050565b6000602082019050818103600083015261467c81614640565b9050919050565b600061468e82613674565b91507fffffffffffffffffffffffffffffffffffffffffffffffffffffffffffffffff8214156146c1576146c0613c6d565b5b600182019050919050565b7f45524332303a2064656372656173656420616c6c6f77616e63652062656c6f7760008201527f207a65726f000000000000000000000000000000000000000000000000000000602082015250565b60006147286025836136b3565b9150614733826146cc565b604082019050919050565b600060208201905081810360008301526147578161471b565b9050919050565b7f45524332303a20617070726f76652066726f6d20746865207a65726f2061646460008201527f7265737300000000000000000000000000000000000000000000000000000000602082015250565b60006147ba6024836136b3565b91506147c58261475e565b604082019050919050565b600060208201905081810360008301526147e9816147ad565b9050919050565b7f45524332303a20617070726f766520746f20746865207a65726f20616464726560008201527f7373000000000000000000000000000000000000000000000000000000000000602082015250565b600061484c6022836136b3565b9150614857826147f0565b604082019050919050565b6000602082019050818103600083015261487b8161483f565b9050919050565b61488b81613674565b82525050565b6000819050919050565b6000819050919050565b60006148c06148bb6148b684614891565b61489b565b613674565b9050919050565b6148d0816148a5565b82525050565b60006040820190506148eb6000830185614882565b6148f860208301846148c7565b9392505050565b60008151905061490e816137c6565b92915050565b60006020828403121561492a57614929613763565b5b6000614938848285016148ff565b91505092915050565b7f45524332303a206d696e7420746f20746865207a65726f206164647265737300600082015250565b6000614977601f836136b3565b915061498282614941565b602082019050919050565b600060208201905081810360008301526149a68161496a565b9050919050565b7f45524332303a20696e73756666696369656e7420616c6c6f77616e6365000000600082015250565b60006149e3601d836136b3565b91506149ee826149ad565b602082019050919050565b60006020820190508181036000830152614a12816149d6565b9050919050565b7f45524332303a207472616e736665722066726f6d20746865207a65726f20616460008201527f6472657373000000000000000000000000000000000000000000000000000000602082015250565b6000614a756025836136b3565b9150614a8082614a19565b604082019050919050565b60006020820190508181036000830152614aa481614a68565b9050919050565b7f45524332303a207472616e7366657220746f20746865207a65726f206164647260008201527f6573730000000000000000000000000000000000000000000000000000000000602082015250565b6000614b076023836136b3565b9150614b1282614aab565b604082019050919050565b60006020820190508181036000830152614b3681614afa565b9050919050565b7f45524332303a207472616e7366657220616d6f756e742065786365656473206260008201527f616c616e63650000000000000000000000000000000000000000000000000000602082015250565b6000614b996026836136b3565b9150614ba482614b3d565b604082019050919050565b60006020820190508181036000830152614bc881614b8c565b9050919050565b6000604082019050614be46000830185614882565b614bf16020830184614882565b9392505050565b7f45524332303a206275726e2066726f6d20746865207a65726f2061646472657360008201527f7300000000000000000000000000000000000000000000000000000000000000602082015250565b6000614c546021836136b3565b9150614c5f82614bf8565b604082019050919050565b60006020820190508181036000830152614c8381614c47565b9050919050565b7f45524332303a206275726e20616d6f756e7420657863656564732062616c616e60008201527f6365000000000000000000000000000000000000000000000000000000000000602082015250565b6000614ce66022836136b3565b9150614cf182614c8a565b604082019050919050565b60006020820190508181036000830152614d1581614cd9565b905091905056fe404d724a61636b4c6576696e20406c62656c79616576206661697263727970746f2e6f7267a26469706673582212206210e575d52e158afc4b48a2b21f312ddbab54d51aa4c5bfcbaad8b0088e38ab64736f6c634300080a0033","opcodes":"PUSH1 0xA0 PUSH1 0x40 MSTORE PUSH1 0x1 PUSH1 0x5 SSTORE CALLVALUE DUP1 ISZERO PUSH3 0x16 JUMPI PUSH1 0x0 DUP1 REVERT JUMPDEST POP PUSH1 0x40 MLOAD DUP1 PUSH1 0x40 ADD PUSH1 0x40 MSTORE DUP1 PUSH1 0xA DUP2 MSTORE PUSH1 0x20 ADD PUSH32 0x58454E2043727970746F00000000000000000000000000000000000000000000 DUP2 MSTORE POP PUSH1 0x40 MLOAD DUP1 PUSH1 0x40 ADD PUSH1 0x40 MSTORE DUP1 PUSH1 0x3 DUP2 MSTORE PUSH1 0x20 ADD PUSH32 0x58454E0000000000000000000000000000000000000000000000000000000000 DUP2 MSTORE POP DUP2 PUSH1 0x3 SWAP1 DUP1 MLOAD SWAP1 PUSH1 0x20 ADD SWAP1 PUSH3 0x9B SWAP3 SWAP2 SWAP1 PUSH3 0xC5 JUMP JUMPDEST POP DUP1 PUSH1 0x4 SWAP1 DUP1 MLOAD SWAP1 PUSH1 0x20 ADD SWAP1 PUSH3 0xB4 SWAP3 SWAP2 SWAP1 PUSH3 0xC5 JUMP JUMPDEST POP POP POP TIMESTAMP PUSH1 0x80 DUP2 DUP2 MSTORE POP POP PUSH3 0x1DA JUMP JUMPDEST DUP3 DUP1 SLOAD PUSH3 0xD3 SWAP1 PUSH3 0x1A4 JUMP JUMPDEST SWAP1 PUSH1 0x0 MSTORE PUSH1 0x20 PUSH1 0x0 KECCAK256 SWAP1 PUSH1 0x1F ADD PUSH1 0x20 SWAP1 DIV DUP2 ADD SWAP3 DUP3 PUSH3 0xF7 JUMPI PUSH1 0x0 DUP6 SSTORE PUSH3 0x143 JUMP JUMPDEST DUP3 PUSH1 0x1F LT PUSH3 0x112 JUMPI DUP1 MLOAD PUSH1 0xFF NOT AND DUP4 DUP1 ADD OR DUP6 SSTORE PUSH3 0x143 JUMP JUMPDEST DUP3 DUP1 ADD PUSH1 0x1 ADD DUP6 SSTORE DUP3 ISZERO PUSH3 0x143 JUMPI SWAP2 DUP3 ADD JUMPDEST DUP3 DUP2 GT ISZERO PUSH3 0x142 JUMPI DUP3 MLOAD DUP3 SSTORE SWAP2 PUSH1 0x20 ADD SWAP2 SWAP1 PUSH1 0x1 ADD SWAP1 PUSH3 0x125 JUMP JUMPDEST JUMPDEST POP SWAP1 POP PUSH3 0x152 SWAP2 SWAP1 PUSH3 0x156 JUMP JUMPDEST POP SWAP1 JUMP JUMPDEST JUMPDEST DUP1 DUP3 GT ISZERO PUSH3 0x171 JUMPI PUSH1 0x0 DUP2 PUSH1 0x0 SWAP1 SSTORE POP PUSH1 0x1 ADD PUSH3 0x157 JUMP JUMPDEST POP SWAP1 JUMP JUMPDEST PUSH32 0x4E487B7100000000000000000000000000000000000000000000000000000000 PUSH1 0x0 MSTORE PUSH1 0x22 PUSH1 0x4 MSTORE PUSH1 0x24 PUSH1 0x0 REVERT JUMPDEST PUSH1 0x0 PUSH1 0x2 DUP3 DIV SWAP1 POP PUSH1 0x1 DUP3 AND DUP1 PUSH3 0x1BD JUMPI PUSH1 0x7F DUP3 AND SWAP2 POP JUMPDEST PUSH1 0x20 DUP3 LT DUP2 EQ ISZERO PUSH3 0x1D4 JUMPI PUSH3 0x1D3 PUSH3 0x175 JUMP JUMPDEST JUMPDEST POP SWAP2 SWAP1 POP JUMP JUMPDEST PUSH1 0x80 MLOAD PUSH2 0x4D77 PUSH3 0x204 PUSH1 0x0 CODECOPY PUSH1 0x0 DUP2 DUP2 PUSH2 0x246C ADD MSTORE DUP2 DUP2 PUSH2 0x3169 ADD MSTORE PUSH2 0x31DB ADD MSTORE PUSH2 0x4D77 PUSH1 0x0 RETURN INVALID PUSH1 0x80 PUSH1 0x40 MSTORE CALLVALUE DUP1 ISZERO PUSH2 0x10 JUMPI PUSH1 0x0 DUP1 REVERT JUMPDEST POP PUSH1 0x4 CALLDATASIZE LT PUSH2 0x342 JUMPI PUSH1 0x0 CALLDATALOAD PUSH1 0xE0 SHR DUP1 PUSH4 0x7E7AA62E GT PUSH2 0x1B8 JUMPI DUP1 PUSH4 0xB4800CDC GT PUSH2 0x104 JUMPI DUP1 PUSH4 0xDF282331 GT PUSH2 0xA2 JUMPI DUP1 PUSH4 0xED2F2369 GT PUSH2 0x7C JUMPI DUP1 PUSH4 0xED2F2369 EQ PUSH2 0x9BF JUMPI DUP1 PUSH4 0xF0604829 EQ PUSH2 0x9DD JUMPI DUP1 PUSH4 0xF340FAED EQ PUSH2 0x9FB JUMPI DUP1 PUSH4 0xFED74269 EQ PUSH2 0xA19 JUMPI PUSH2 0x342 JUMP JUMPDEST DUP1 PUSH4 0xDF282331 EQ PUSH2 0x94E JUMPI DUP1 PUSH4 0xE3AF6D0A EQ PUSH2 0x983 JUMPI DUP1 PUSH4 0xE81917B4 EQ PUSH2 0x9A1 JUMPI PUSH2 0x342 JUMP JUMPDEST DUP1 PUSH4 0xC0C65259 GT PUSH2 0xDE JUMPI DUP1 PUSH4 0xC0C65259 EQ PUSH2 0x8B2 JUMPI DUP1 PUSH4 0xC56F0BAB EQ PUSH2 0x8D0 JUMPI DUP1 PUSH4 0xCE653D5F EQ PUSH2 0x8EE JUMPI DUP1 PUSH4 0xDD62ED3E EQ PUSH2 0x91E JUMPI PUSH2 0x342 JUMP JUMPDEST DUP1 PUSH4 0xB4800CDC EQ PUSH2 0x858 JUMPI DUP1 PUSH4 0xBA3EC741 EQ PUSH2 0x876 JUMPI DUP1 PUSH4 0xBCFE394F EQ PUSH2 0x894 JUMPI PUSH2 0x342 JUMP JUMPDEST DUP1 PUSH4 0x99202454 GT PUSH2 0x171 JUMPI DUP1 PUSH4 0xA457C2D7 GT PUSH2 0x14B JUMPI DUP1 PUSH4 0xA457C2D7 EQ PUSH2 0x7AA JUMPI DUP1 PUSH4 0xA9059CBB EQ PUSH2 0x7DA JUMPI DUP1 PUSH4 0xB0FD1FC2 EQ PUSH2 0x80A JUMPI DUP1 PUSH4 0xB21D35F2 EQ PUSH2 0x83A JUMPI PUSH2 0x342 JUMP JUMPDEST DUP1 PUSH4 0x99202454 EQ PUSH2 0x754 JUMPI DUP1 PUSH4 0x9DC29FAC EQ PUSH2 0x772 JUMPI DUP1 PUSH4 0x9FF054DF EQ PUSH2 0x78E JUMPI PUSH2 0x342 JUMP JUMPDEST DUP1 PUSH4 0x7E7AA62E EQ PUSH2 0x68B JUMPI DUP1 PUSH4 0x8979C87C EQ PUSH2 0x6A9 JUMPI DUP1 PUSH4 0x8DA7AD23 EQ PUSH2 0x6C7 JUMPI DUP1 PUSH4 0x909A2FF6 EQ PUSH2 0x6FA JUMPI DUP1 PUSH4 0x95D89B41 EQ PUSH2 0x718 JUMPI DUP1 PUSH4 0x962CA496 EQ PUSH2 0x736 JUMPI PUSH2 0x342 JUMP JUMPDEST DUP1 PUSH4 0x2A62D966 GT PUSH2 0x292 JUMPI DUP1 PUSH4 0x543D3652 GT PUSH2 0x230 JUMPI DUP1 PUSH4 0x7010D7A1 GT PUSH2 0x20A JUMPI DUP1 PUSH4 0x7010D7A1 EQ PUSH2 0x603 JUMPI DUP1 PUSH4 0x70A08231 EQ PUSH2 0x621 JUMPI DUP1 PUSH4 0x72475F94 EQ PUSH2 0x651 JUMPI DUP1 PUSH4 0x7B0472F0 EQ PUSH2 0x66F JUMPI PUSH2 0x342 JUMP JUMPDEST DUP1 PUSH4 0x543D3652 EQ PUSH2 0x5AB JUMPI DUP1 PUSH4 0x5BCCB4C4 EQ PUSH2 0x5C9 JUMPI DUP1 PUSH4 0x61A52A36 EQ PUSH2 0x5E5 JUMPI PUSH2 0x342 JUMP JUMPDEST DUP1 PUSH4 0x39509351 GT PUSH2 0x26C JUMPI DUP1 PUSH4 0x39509351 EQ PUSH2 0x549 JUMPI DUP1 PUSH4 0x3CCFD60B EQ PUSH2 0x579 JUMPI DUP1 PUSH4 0x45125715 EQ PUSH2 0x583 JUMPI DUP1 PUSH4 0x52C7F8DC EQ PUSH2 0x5A1 JUMPI PUSH2 0x342 JUMP JUMPDEST DUP1 PUSH4 0x2A62D966 EQ PUSH2 0x4EF JUMPI DUP1 PUSH4 0x313CE567 EQ PUSH2 0x50D JUMPI DUP1 PUSH4 0x32870FDA EQ PUSH2 0x52B JUMPI PUSH2 0x342 JUMP JUMPDEST DUP1 PUSH4 0x110D7FC2 GT PUSH2 0x2FF JUMPI DUP1 PUSH4 0x1C244082 GT PUSH2 0x2D9 JUMPI DUP1 PUSH4 0x1C244082 EQ PUSH2 0x467 JUMPI DUP1 PUSH4 0x1C560305 EQ PUSH2 0x485 JUMPI DUP1 PUSH4 0x1C6F212E EQ PUSH2 0x4A1 JUMPI DUP1 PUSH4 0x23B872DD EQ PUSH2 0x4BF JUMPI PUSH2 0x342 JUMP JUMPDEST DUP1 PUSH4 0x110D7FC2 EQ PUSH2 0x40D JUMPI DUP1 PUSH4 0x16F9C8FD EQ PUSH2 0x42B JUMPI DUP1 PUSH4 0x18160DDD EQ PUSH2 0x449 JUMPI PUSH2 0x342 JUMP JUMPDEST DUP1 PUSH4 0x2378932 EQ PUSH2 0x347 JUMPI DUP1 PUSH4 0x69612A5 EQ PUSH2 0x365 JUMPI DUP1 PUSH4 0x6FDDE03 EQ PUSH2 0x383 JUMPI DUP1 PUSH4 0x95EA7B3 EQ PUSH2 0x3A1 JUMPI DUP1 PUSH4 0xBFAE56B EQ PUSH2 0x3D1 JUMPI DUP1 PUSH4 0xF2E1228 EQ PUSH2 0x3EF JUMPI JUMPDEST PUSH1 0x0 DUP1 REVERT JUMPDEST PUSH2 0x34F PUSH2 0xA37 JUMP JUMPDEST PUSH1 0x40 MLOAD PUSH2 0x35C SWAP2 SWAP1 PUSH2 0x368D JUMP JUMPDEST PUSH1 0x40 MLOAD DUP1 SWAP2 SUB SWAP1 RETURN JUMPDEST PUSH2 0x36D PUSH2 0xA3D JUMP JUMPDEST PUSH1 0x40 MLOAD PUSH2 0x37A SWAP2 SWAP1 PUSH2 0x368D JUMP JUMPDEST PUSH1 0x40 MLOAD DUP1 SWAP2 SUB SWAP1 RETURN JUMPDEST PUSH2 0x38B PUSH2 0xA43 JUMP JUMPDEST PUSH1 0x40 MLOAD PUSH2 0x398 SWAP2 SWAP1 PUSH2 0x3741 JUMP JUMPDEST PUSH1 0x40 MLOAD DUP1 SWAP2 SUB SWAP1 RETURN JUMPDEST PUSH2 0x3BB PUSH1 0x4 DUP1 CALLDATASIZE SUB DUP2 ADD SWAP1 PUSH2 0x3B6 SWAP2 SWAP1 PUSH2 0x37F2 JUMP JUMPDEST PUSH2 0xAD5 JUMP JUMPDEST PUSH1 0x40 MLOAD PUSH2 0x3C8 SWAP2 SWAP1 PUSH2 0x384D JUMP JUMPDEST PUSH1 0x40 MLOAD DUP1 SWAP2 SUB SWAP1 RETURN JUMPDEST PUSH2 0x3D9 PUSH2 0xAF8 JUMP JUMPDEST PUSH1 0x40 MLOAD PUSH2 0x3E6 SWAP2 SWAP1 PUSH2 0x368D JUMP JUMPDEST PUSH1 0x40 MLOAD DUP1 SWAP2 SUB SWAP1 RETURN JUMPDEST PUSH2 0x3F7 PUSH2 0xB0B JUMP JUMPDEST PUSH1 0x40 MLOAD PUSH2 0x404 SWAP2 SWAP1 PUSH2 0x368D JUMP JUMPDEST PUSH1 0x40 MLOAD DUP1 SWAP2 SUB SWAP1 RETURN JUMPDEST PUSH2 0x415 PUSH2 0xB10 JUMP JUMPDEST PUSH1 0x40 MLOAD PUSH2 0x422 SWAP2 SWAP1 PUSH2 0x368D JUMP JUMPDEST PUSH1 0x40 MLOAD DUP1 SWAP2 SUB SWAP1 RETURN JUMPDEST PUSH2 0x433 PUSH2 0xB15 JUMP JUMPDEST PUSH1 0x40 MLOAD PUSH2 0x440 SWAP2 SWAP1 PUSH2 0x38CC JUMP JUMPDEST PUSH1 0x40 MLOAD DUP1 SWAP2 SUB SWAP1 RETURN JUMPDEST PUSH2 0x451 PUSH2 0xB9B JUMP JUMPDEST PUSH1 0x40 MLOAD PUSH2 0x45E SWAP2 SWAP1 PUSH2 0x368D JUMP JUMPDEST PUSH1 0x40 MLOAD DUP1 SWAP2 SUB SWAP1 RETURN JUMPDEST PUSH2 0x46F PUSH2 0xBA5 JUMP JUMPDEST PUSH1 0x40 MLOAD PUSH2 0x47C SWAP2 SWAP1 PUSH2 0x368D JUMP JUMPDEST PUSH1 0x40 MLOAD DUP1 SWAP2 SUB SWAP1 RETURN JUMPDEST PUSH2 0x49F PUSH1 0x4 DUP1 CALLDATASIZE SUB DUP2 ADD SWAP1 PUSH2 0x49A SWAP2 SWAP1 PUSH2 0x37F2 JUMP JUMPDEST PUSH2 0xBAB JUMP JUMPDEST STOP JUMPDEST PUSH2 0x4A9 PUSH2 0xEEF JUMP JUMPDEST PUSH1 0x40 MLOAD PUSH2 0x4B6 SWAP2 SWAP1 PUSH2 0x368D JUMP JUMPDEST PUSH1 0x40 MLOAD DUP1 SWAP2 SUB SWAP1 RETURN JUMPDEST PUSH2 0x4D9 PUSH1 0x4 DUP1 CALLDATASIZE SUB DUP2 ADD SWAP1 PUSH2 0x4D4 SWAP2 SWAP1 PUSH2 0x38E7 JUMP JUMPDEST PUSH2 0xEF4 JUMP JUMPDEST PUSH1 0x40 MLOAD PUSH2 0x4E6 SWAP2 SWAP1 PUSH2 0x384D JUMP JUMPDEST PUSH1 0x40 MLOAD DUP1 SWAP2 SUB SWAP1 RETURN JUMPDEST PUSH2 0x4F7 PUSH2 0xF23 JUMP JUMPDEST PUSH1 0x40 MLOAD PUSH2 0x504 SWAP2 SWAP1 PUSH2 0x368D JUMP JUMPDEST PUSH1 0x40 MLOAD DUP1 SWAP2 SUB SWAP1 RETURN JUMPDEST PUSH2 0x515 PUSH2 0xF28 JUMP JUMPDEST PUSH1 0x40 MLOAD PUSH2 0x522 SWAP2 SWAP1 PUSH2 0x3956 JUMP JUMPDEST PUSH1 0x40 MLOAD DUP1 SWAP2 SUB SWAP1 RETURN JUMPDEST PUSH2 0x533 PUSH2 0xF31 JUMP JUMPDEST PUSH1 0x40 MLOAD PUSH2 0x540 SWAP2 SWAP1 PUSH2 0x368D JUMP JUMPDEST PUSH1 0x40 MLOAD DUP1 SWAP2 SUB SWAP1 RETURN JUMPDEST PUSH2 0x563 PUSH1 0x4 DUP1 CALLDATASIZE SUB DUP2 ADD SWAP1 PUSH2 0x55E SWAP2 SWAP1 PUSH2 0x37F2 JUMP JUMPDEST PUSH2 0xF36 JUMP JUMPDEST PUSH1 0x40 MLOAD PUSH2 0x570 SWAP2 SWAP1 PUSH2 0x384D JUMP JUMPDEST PUSH1 0x40 MLOAD DUP1 SWAP2 SUB SWAP1 RETURN JUMPDEST PUSH2 0x581 PUSH2 0xF6D JUMP JUMPDEST STOP JUMPDEST PUSH2 0x58B PUSH2 0x116E JUMP JUMPDEST PUSH1 0x40 MLOAD PUSH2 0x598 SWAP2 SWAP1 PUSH2 0x368D JUMP JUMPDEST PUSH1 0x40 MLOAD DUP1 SWAP2 SUB SWAP1 RETURN JUMPDEST PUSH2 0x5A9 PUSH2 0x117D JUMP JUMPDEST STOP JUMPDEST PUSH2 0x5B3 PUSH2 0x1391 JUMP JUMPDEST PUSH1 0x40 MLOAD PUSH2 0x5C0 SWAP2 SWAP1 PUSH2 0x368D JUMP JUMPDEST PUSH1 0x40 MLOAD DUP1 SWAP2 SUB SWAP1 RETURN JUMPDEST PUSH2 0x5E3 PUSH1 0x4 DUP1 CALLDATASIZE SUB DUP2 ADD SWAP1 PUSH2 0x5DE SWAP2 SWAP1 PUSH2 0x3971 JUMP JUMPDEST PUSH2 0x1396 JUMP JUMPDEST STOP JUMPDEST PUSH2 0x5ED PUSH2 0x1824 JUMP JUMPDEST PUSH1 0x40 MLOAD PUSH2 0x5FA SWAP2 SWAP1 PUSH2 0x368D JUMP JUMPDEST PUSH1 0x40 MLOAD DUP1 SWAP2 SUB SWAP1 RETURN JUMPDEST PUSH2 0x60B PUSH2 0x182B JUMP JUMPDEST PUSH1 0x40 MLOAD PUSH2 0x618 SWAP2 SWAP1 PUSH2 0x3A3B JUMP JUMPDEST PUSH1 0x40 MLOAD DUP1 SWAP2 SUB SWAP1 RETURN JUMPDEST PUSH2 0x63B PUSH1 0x4 DUP1 CALLDATASIZE SUB DUP2 ADD SWAP1 PUSH2 0x636 SWAP2 SWAP1 PUSH2 0x3A56 JUMP JUMPDEST PUSH2 0x1911 JUMP JUMPDEST PUSH1 0x40 MLOAD PUSH2 0x648 SWAP2 SWAP1 PUSH2 0x368D JUMP JUMPDEST PUSH1 0x40 MLOAD DUP1 SWAP2 SUB SWAP1 RETURN JUMPDEST PUSH2 0x659 PUSH2 0x1959 JUMP JUMPDEST PUSH1 0x40 MLOAD PUSH2 0x666 SWAP2 SWAP1 PUSH2 0x368D JUMP JUMPDEST PUSH1 0x40 MLOAD DUP1 SWAP2 SUB SWAP1 RETURN JUMPDEST PUSH2 0x689 PUSH1 0x4 DUP1 CALLDATASIZE SUB DUP2 ADD SWAP1 PUSH2 0x684 SWAP2 SWAP1 PUSH2 0x3971 JUMP JUMPDEST PUSH2 0x195E JUMP JUMPDEST STOP JUMPDEST PUSH2 0x693 PUSH2 0x1BCC JUMP JUMPDEST PUSH1 0x40 MLOAD PUSH2 0x6A0 SWAP2 SWAP1 PUSH2 0x368D JUMP JUMPDEST PUSH1 0x40 MLOAD DUP1 SWAP2 SUB SWAP1 RETURN JUMPDEST PUSH2 0x6B1 PUSH2 0x1BD1 JUMP JUMPDEST PUSH1 0x40 MLOAD PUSH2 0x6BE SWAP2 SWAP1 PUSH2 0x368D JUMP JUMPDEST PUSH1 0x40 MLOAD DUP1 SWAP2 SUB SWAP1 RETURN JUMPDEST PUSH2 0x6E1 PUSH1 0x4 DUP1 CALLDATASIZE SUB DUP2 ADD SWAP1 PUSH2 0x6DC SWAP2 SWAP1 PUSH2 0x3A56 JUMP JUMPDEST PUSH2 0x1BE0 JUMP JUMPDEST PUSH1 0x40 MLOAD PUSH2 0x6F1 SWAP5 SWAP4 SWAP3 SWAP2 SWAP1 PUSH2 0x3A83 JUMP JUMPDEST PUSH1 0x40 MLOAD DUP1 SWAP2 SUB SWAP1 RETURN JUMPDEST PUSH2 0x702 PUSH2 0x1C10 JUMP JUMPDEST PUSH1 0x40 MLOAD PUSH2 0x70F SWAP2 SWAP1 PUSH2 0x368D JUMP JUMPDEST PUSH1 0x40 MLOAD DUP1 SWAP2 SUB SWAP1 RETURN JUMPDEST PUSH2 0x720 PUSH2 0x1C15 JUMP JUMPDEST PUSH1 0x40 MLOAD PUSH2 0x72D SWAP2 SWAP1 PUSH2 0x3741 JUMP JUMPDEST PUSH1 0x40 MLOAD DUP1 SWAP2 SUB SWAP1 RETURN JUMPDEST PUSH2 0x73E PUSH2 0x1CA7 JUMP JUMPDEST PUSH1 0x40 MLOAD PUSH2 0x74B SWAP2 SWAP1 PUSH2 0x368D JUMP JUMPDEST PUSH1 0x40 MLOAD DUP1 SWAP2 SUB SWAP1 RETURN JUMPDEST PUSH2 0x75C PUSH2 0x1CB6 JUMP JUMPDEST PUSH1 0x40 MLOAD PUSH2 0x769 SWAP2 SWAP1 PUSH2 0x368D JUMP JUMPDEST PUSH1 0x40 MLOAD DUP1 SWAP2 SUB SWAP1 RETURN JUMPDEST PUSH2 0x78C PUSH1 0x4 DUP1 CALLDATASIZE SUB DUP2 ADD SWAP1 PUSH2 0x787 SWAP2 SWAP1 PUSH2 0x37F2 JUMP JUMPDEST PUSH2 0x1CC5 JUMP JUMPDEST STOP JUMPDEST PUSH2 0x7A8 PUSH1 0x4 DUP1 CALLDATASIZE SUB DUP2 ADD SWAP1 PUSH2 0x7A3 SWAP2 SWAP1 PUSH2 0x3AC8 JUMP JUMPDEST PUSH2 0x1ED2 JUMP JUMPDEST STOP JUMPDEST PUSH2 0x7C4 PUSH1 0x4 DUP1 CALLDATASIZE SUB DUP2 ADD SWAP1 PUSH2 0x7BF SWAP2 SWAP1 PUSH2 0x37F2 JUMP JUMPDEST PUSH2 0x21D9 JUMP JUMPDEST PUSH1 0x40 MLOAD PUSH2 0x7D1 SWAP2 SWAP1 PUSH2 0x384D JUMP JUMPDEST PUSH1 0x40 MLOAD DUP1 SWAP2 SUB SWAP1 RETURN JUMPDEST PUSH2 0x7F4 PUSH1 0x4 DUP1 CALLDATASIZE SUB DUP2 ADD SWAP1 PUSH2 0x7EF SWAP2 SWAP1 PUSH2 0x37F2 JUMP JUMPDEST PUSH2 0x2250 JUMP JUMPDEST PUSH1 0x40 MLOAD PUSH2 0x801 SWAP2 SWAP1 PUSH2 0x384D JUMP JUMPDEST PUSH1 0x40 MLOAD DUP1 SWAP2 SUB SWAP1 RETURN JUMPDEST PUSH2 0x824 PUSH1 0x4 DUP1 CALLDATASIZE SUB DUP2 ADD SWAP1 PUSH2 0x81F SWAP2 SWAP1 PUSH2 0x3AF5 JUMP JUMPDEST PUSH2 0x2273 JUMP JUMPDEST PUSH1 0x40 MLOAD PUSH2 0x831 SWAP2 SWAP1 PUSH2 0x368D JUMP JUMPDEST PUSH1 0x40 MLOAD DUP1 SWAP2 SUB SWAP1 RETURN JUMPDEST PUSH2 0x842 PUSH2 0x2329 JUMP JUMPDEST PUSH1 0x40 MLOAD PUSH2 0x84F SWAP2 SWAP1 PUSH2 0x368D JUMP JUMPDEST PUSH1 0x40 MLOAD DUP1 SWAP2 SUB SWAP1 RETURN JUMPDEST PUSH2 0x860 PUSH2 0x232F JUMP JUMPDEST PUSH1 0x40 MLOAD PUSH2 0x86D SWAP2 SWAP1 PUSH2 0x368D JUMP JUMPDEST PUSH1 0x40 MLOAD DUP1 SWAP2 SUB SWAP1 RETURN JUMPDEST PUSH2 0x87E PUSH2 0x2335 JUMP JUMPDEST PUSH1 0x40 MLOAD PUSH2 0x88B SWAP2 SWAP1 PUSH2 0x3741 JUMP JUMPDEST PUSH1 0x40 MLOAD DUP1 SWAP2 SUB SWAP1 RETURN JUMPDEST PUSH2 0x89C PUSH2 0x2351 JUMP JUMPDEST PUSH1 0x40 MLOAD PUSH2 0x8A9 SWAP2 SWAP1 PUSH2 0x368D JUMP JUMPDEST PUSH1 0x40 MLOAD DUP1 SWAP2 SUB SWAP1 RETURN JUMPDEST PUSH2 0x8BA PUSH2 0x2356 JUMP JUMPDEST PUSH1 0x40 MLOAD PUSH2 0x8C7 SWAP2 SWAP1 PUSH2 0x368D JUMP JUMPDEST PUSH1 0x40 MLOAD DUP1 SWAP2 SUB SWAP1 RETURN JUMPDEST PUSH2 0x8D8 PUSH2 0x236A JUMP JUMPDEST PUSH1 0x40 MLOAD PUSH2 0x8E5 SWAP2 SWAP1 PUSH2 0x368D JUMP JUMPDEST PUSH1 0x40 MLOAD DUP1 SWAP2 SUB SWAP1 RETURN JUMPDEST PUSH2 0x908 PUSH1 0x4 DUP1 CALLDATASIZE SUB DUP2 ADD SWAP1 PUSH2 0x903 SWAP2 SWAP1 PUSH2 0x3A56 JUMP JUMPDEST PUSH2 0x236F JUMP JUMPDEST PUSH1 0x40 MLOAD PUSH2 0x915 SWAP2 SWAP1 PUSH2 0x368D JUMP JUMPDEST PUSH1 0x40 MLOAD DUP1 SWAP2 SUB SWAP1 RETURN JUMPDEST PUSH2 0x938 PUSH1 0x4 DUP1 CALLDATASIZE SUB DUP2 ADD SWAP1 PUSH2 0x933 SWAP2 SWAP1 PUSH2 0x3B5C JUMP JUMPDEST PUSH2 0x2387 JUMP JUMPDEST PUSH1 0x40 MLOAD PUSH2 0x945 SWAP2 SWAP1 PUSH2 0x368D JUMP JUMPDEST PUSH1 0x40 MLOAD DUP1 SWAP2 SUB SWAP1 RETURN JUMPDEST PUSH2 0x968 PUSH1 0x4 DUP1 CALLDATASIZE SUB DUP2 ADD SWAP1 PUSH2 0x963 SWAP2 SWAP1 PUSH2 0x3A56 JUMP JUMPDEST PUSH2 0x240E JUMP JUMPDEST PUSH1 0x40 MLOAD PUSH2 0x97A SWAP7 SWAP6 SWAP5 SWAP4 SWAP3 SWAP2 SWAP1 PUSH2 0x3BAB JUMP JUMPDEST PUSH1 0x40 MLOAD DUP1 SWAP2 SUB SWAP1 RETURN JUMPDEST PUSH2 0x98B PUSH2 0x246A JUMP JUMPDEST PUSH1 0x40 MLOAD PUSH2 0x998 SWAP2 SWAP1 PUSH2 0x368D JUMP JUMPDEST PUSH1 0x40 MLOAD DUP1 SWAP2 SUB SWAP1 RETURN JUMPDEST PUSH2 0x9A9 PUSH2 0x248E JUMP JUMPDEST PUSH1 0x40 MLOAD PUSH2 0x9B6 SWAP2 SWAP1 PUSH2 0x368D JUMP JUMPDEST PUSH1 0x40 MLOAD DUP1 SWAP2 SUB SWAP1 RETURN JUMPDEST PUSH2 0x9C7 PUSH2 0x2494 JUMP JUMPDEST PUSH1 0x40 MLOAD PUSH2 0x9D4 SWAP2 SWAP1 PUSH2 0x368D JUMP JUMPDEST PUSH1 0x40 MLOAD DUP1 SWAP2 SUB SWAP1 RETURN JUMPDEST PUSH2 0x9E5 PUSH2 0x249A JUMP JUMPDEST PUSH1 0x40 MLOAD PUSH2 0x9F2 SWAP2 SWAP1 PUSH2 0x368D JUMP JUMPDEST PUSH1 0x40 MLOAD DUP1 SWAP2 SUB SWAP1 RETURN JUMPDEST PUSH2 0xA03 PUSH2 0x24B9 JUMP JUMPDEST PUSH1 0x40 MLOAD PUSH2 0xA10 SWAP2 SWAP1 PUSH2 0x368D JUMP JUMPDEST PUSH1 0x40 MLOAD DUP1 SWAP2 SUB SWAP1 RETURN JUMPDEST PUSH2 0xA21 PUSH2 0x24C0 JUMP JUMPDEST PUSH1 0x40 MLOAD PUSH2 0xA2E SWAP2 SWAP1 PUSH2 0x368D JUMP JUMPDEST PUSH1 0x40 MLOAD DUP1 SWAP2 SUB SWAP1 RETURN JUMPDEST PUSH2 0x16D DUP2 JUMP JUMPDEST PUSH1 0x8 SLOAD DUP2 JUMP JUMPDEST PUSH1 0x60 PUSH1 0x3 DUP1 SLOAD PUSH2 0xA52 SWAP1 PUSH2 0x3C3B JUMP JUMPDEST DUP1 PUSH1 0x1F ADD PUSH1 0x20 DUP1 SWAP2 DIV MUL PUSH1 0x20 ADD PUSH1 0x40 MLOAD SWAP1 DUP2 ADD PUSH1 0x40 MSTORE DUP1 SWAP3 SWAP2 SWAP1 DUP2 DUP2 MSTORE PUSH1 0x20 ADD DUP3 DUP1 SLOAD PUSH2 0xA7E SWAP1 PUSH2 0x3C3B JUMP JUMPDEST DUP1 ISZERO PUSH2 0xACB JUMPI DUP1 PUSH1 0x1F LT PUSH2 0xAA0 JUMPI PUSH2 0x100 DUP1 DUP4 SLOAD DIV MUL DUP4 MSTORE SWAP2 PUSH1 0x20 ADD SWAP2 PUSH2 0xACB JUMP JUMPDEST DUP3 ADD SWAP2 SWAP1 PUSH1 0x0 MSTORE PUSH1 0x20 PUSH1 0x0 KECCAK256 SWAP1 JUMPDEST DUP2 SLOAD DUP2 MSTORE SWAP1 PUSH1 0x1 ADD SWAP1 PUSH1 0x20 ADD DUP1 DUP4 GT PUSH2 0xAAE JUMPI DUP3 SWAP1 SUB PUSH1 0x1F AND DUP3 ADD SWAP2 JUMPDEST POP POP POP POP POP SWAP1 POP SWAP1 JUMP JUMPDEST PUSH1 0x0 DUP1 PUSH2 0xAE0 PUSH2 0x24C5 JUMP JUMPDEST SWAP1 POP PUSH2 0xAED DUP2 DUP6 DUP6 PUSH2 0x24CD JUMP JUMPDEST PUSH1 0x1 SWAP2 POP POP SWAP3 SWAP2 POP POP JUMP JUMPDEST PUSH3 0x15180 PUSH1 0x64 PUSH2 0xB08 SWAP2 SWAP1 PUSH2 0x3C9C JUMP JUMPDEST DUP2 JUMP JUMPDEST PUSH1 0x63 DUP2 JUMP JUMPDEST PUSH1 0x0 DUP2 JUMP JUMPDEST PUSH2 0xB1D PUSH2 0x3600 JUMP JUMPDEST PUSH1 0xA PUSH1 0x0 PUSH2 0xB29 PUSH2 0x24C5 JUMP JUMPDEST PUSH20 0xFFFFFFFFFFFFFFFFFFFFFFFFFFFFFFFFFFFFFFFF AND PUSH20 0xFFFFFFFFFFFFFFFFFFFFFFFFFFFFFFFFFFFFFFFF AND DUP2 MSTORE PUSH1 0x20 ADD SWAP1 DUP2 MSTORE PUSH1 0x20 ADD PUSH1 0x0 KECCAK256 PUSH1 0x40 MLOAD DUP1 PUSH1 0x80 ADD PUSH1 0x40 MSTORE SWAP1 DUP2 PUSH1 0x0 DUP3 ADD SLOAD DUP2 MSTORE PUSH1 0x20 ADD PUSH1 0x1 DUP3 ADD SLOAD DUP2 MSTORE PUSH1 0x20 ADD PUSH1 0x2 DUP3 ADD SLOAD DUP2 MSTORE PUSH1 0x20 ADD PUSH1 0x3 DUP3 ADD SLOAD DUP2 MSTORE POP POP SWAP1 POP SWAP1 JUMP JUMPDEST PUSH1 0x0 PUSH1 0x2 SLOAD SWAP1 POP SWAP1 JUMP JUMPDEST PUSH1 0x5 SLOAD DUP2 JUMP JUMPDEST PUSH1 0x0 PUSH1 0x9 PUSH1 0x0 PUSH2 0xBB9 PUSH2 0x24C5 JUMP JUMPDEST PUSH20 0xFFFFFFFFFFFFFFFFFFFFFFFFFFFFFFFFFFFFFFFF AND PUSH20 0xFFFFFFFFFFFFFFFFFFFFFFFFFFFFFFFFFFFFFFFF AND DUP2 MSTORE PUSH1 0x20 ADD SWAP1 DUP2 MSTORE PUSH1 0x20 ADD PUSH1 0x0 KECCAK256 PUSH1 0x40 MLOAD DUP1 PUSH1 0xC0 ADD PUSH1 0x40 MSTORE SWAP1 DUP2 PUSH1 0x0 DUP3 ADD PUSH1 0x0 SWAP1 SLOAD SWAP1 PUSH2 0x100 EXP SWAP1 DIV PUSH20 0xFFFFFFFFFFFFFFFFFFFFFFFFFFFFFFFFFFFFFFFF AND PUSH20 0xFFFFFFFFFFFFFFFFFFFFFFFFFFFFFFFFFFFFFFFF AND PUSH20 0xFFFFFFFFFFFFFFFFFFFFFFFFFFFFFFFFFFFFFFFF AND DUP2 MSTORE PUSH1 0x20 ADD PUSH1 0x1 DUP3 ADD SLOAD DUP2 MSTORE PUSH1 0x20 ADD PUSH1 0x2 DUP3 ADD SLOAD DUP2 MSTORE PUSH1 0x20 ADD PUSH1 0x3 DUP3 ADD SLOAD DUP2 MSTORE PUSH1 0x20 ADD PUSH1 0x4 DUP3 ADD SLOAD DUP2 MSTORE PUSH1 0x20 ADD PUSH1 0x5 DUP3 ADD SLOAD DUP2 MSTORE POP POP SWAP1 POP PUSH1 0x0 PUSH20 0xFFFFFFFFFFFFFFFFFFFFFFFFFFFFFFFFFFFFFFFF AND DUP4 PUSH20 0xFFFFFFFFFFFFFFFFFFFFFFFFFFFFFFFFFFFFFFFF AND EQ ISZERO PUSH2 0xCF8 JUMPI PUSH1 0x40 MLOAD PUSH32 0x8C379A000000000000000000000000000000000000000000000000000000000 DUP2 MSTORE PUSH1 0x4 ADD PUSH2 0xCEF SWAP1 PUSH2 0x3D68 JUMP JUMPDEST PUSH1 0x40 MLOAD DUP1 SWAP2 SUB SWAP1 REVERT JUMPDEST PUSH1 0x0 DUP3 GT PUSH2 0xD3B JUMPI PUSH1 0x40 MLOAD PUSH32 0x8C379A000000000000000000000000000000000000000000000000000000000 DUP2 MSTORE PUSH1 0x4 ADD PUSH2 0xD32 SWAP1 PUSH2 0x3DD4 JUMP JUMPDEST PUSH1 0x40 MLOAD DUP1 SWAP2 SUB SWAP1 REVERT JUMPDEST PUSH1 0x65 DUP3 LT PUSH2 0xD7E JUMPI PUSH1 0x40 MLOAD PUSH32 0x8C379A000000000000000000000000000000000000000000000000000000000 DUP2 MSTORE PUSH1 0x4 ADD PUSH2 0xD75 SWAP1 PUSH2 0x3E40 JUMP JUMPDEST PUSH1 0x40 MLOAD DUP1 SWAP2 SUB SWAP1 REVERT JUMPDEST PUSH1 0x0 DUP2 PUSH1 0x60 ADD MLOAD GT PUSH2 0xDC5 JUMPI PUSH1 0x40 MLOAD PUSH32 0x8C379A000000000000000000000000000000000000000000000000000000000 DUP2 MSTORE PUSH1 0x4 ADD PUSH2 0xDBC SWAP1 PUSH2 0x3EAC JUMP JUMPDEST PUSH1 0x40 MLOAD DUP1 SWAP2 SUB SWAP1 REVERT JUMPDEST DUP1 PUSH1 0x40 ADD MLOAD TIMESTAMP GT PUSH2 0xE0B JUMPI PUSH1 0x40 MLOAD PUSH32 0x8C379A000000000000000000000000000000000000000000000000000000000 DUP2 MSTORE PUSH1 0x4 ADD PUSH2 0xE02 SWAP1 PUSH2 0x3F18 JUMP JUMPDEST PUSH1 0x40 MLOAD DUP1 SWAP2 SUB SWAP1 REVERT JUMPDEST PUSH1 0x0 PUSH8 0xDE0B6B3A7640000 PUSH2 0xE37 DUP4 PUSH1 0x60 ADD MLOAD DUP5 PUSH1 0x20 ADD MLOAD DUP6 PUSH1 0x40 ADD MLOAD DUP7 PUSH1 0x80 ADD MLOAD DUP8 PUSH1 0xA0 ADD MLOAD PUSH2 0x2698 JUMP JUMPDEST PUSH2 0xE41 SWAP2 SWAP1 PUSH2 0x3C9C JUMP JUMPDEST SWAP1 POP PUSH1 0x0 PUSH1 0x64 DUP5 DUP4 PUSH2 0xE53 SWAP2 SWAP1 PUSH2 0x3C9C JUMP JUMPDEST PUSH2 0xE5D SWAP2 SWAP1 PUSH2 0x3F67 JUMP JUMPDEST SWAP1 POP PUSH1 0x0 DUP2 DUP4 PUSH2 0xE6D SWAP2 SWAP1 PUSH2 0x3F98 JUMP JUMPDEST SWAP1 POP PUSH2 0xE80 PUSH2 0xE7A PUSH2 0x24C5 JUMP JUMPDEST DUP3 PUSH2 0x2798 JUMP JUMPDEST PUSH2 0xE8A DUP7 DUP4 PUSH2 0x2798 JUMP JUMPDEST PUSH2 0xE92 PUSH2 0x28F8 JUMP JUMPDEST PUSH2 0xE9A PUSH2 0x24C5 JUMP JUMPDEST PUSH20 0xFFFFFFFFFFFFFFFFFFFFFFFFFFFFFFFFFFFFFFFF AND PUSH32 0xD74752B13281DF13701575F3A507E9B1242E0B5FB040143211C481C1FCE573A6 DUP5 PUSH1 0x40 MLOAD PUSH2 0xEDF SWAP2 SWAP1 PUSH2 0x368D JUMP JUMPDEST PUSH1 0x40 MLOAD DUP1 SWAP2 SUB SWAP1 LOG2 POP POP POP POP POP POP JUMP JUMPDEST PUSH1 0x1 DUP2 JUMP JUMPDEST PUSH1 0x0 DUP1 PUSH2 0xEFF PUSH2 0x24C5 JUMP JUMPDEST SWAP1 POP PUSH2 0xF0C DUP6 DUP3 DUP6 PUSH2 0x29AA JUMP JUMPDEST PUSH2 0xF17 DUP6 DUP6 DUP6 PUSH2 0x2A36 JUMP JUMPDEST PUSH1 0x1 SWAP2 POP POP SWAP4 SWAP3 POP POP POP JUMP JUMPDEST PUSH1 0x0 DUP2 JUMP JUMPDEST PUSH1 0x0 PUSH1 0x12 SWAP1 POP SWAP1 JUMP JUMPDEST PUSH1 0x5A DUP2 JUMP JUMPDEST PUSH1 0x0 DUP1 PUSH2 0xF41 PUSH2 0x24C5 JUMP JUMPDEST SWAP1 POP PUSH2 0xF62 DUP2 DUP6 DUP6 PUSH2 0xF53 DUP6 DUP10 PUSH2 0x2387 JUMP JUMPDEST PUSH2 0xF5D SWAP2 SWAP1 PUSH2 0x3FCC JUMP JUMPDEST PUSH2 0x24CD JUMP JUMPDEST PUSH1 0x1 SWAP2 POP POP SWAP3 SWAP2 POP POP JUMP JUMPDEST PUSH1 0x0 PUSH1 0xA PUSH1 0x0 PUSH2 0xF7B PUSH2 0x24C5 JUMP JUMPDEST PUSH20 0xFFFFFFFFFFFFFFFFFFFFFFFFFFFFFFFFFFFFFFFF AND PUSH20 0xFFFFFFFFFFFFFFFFFFFFFFFFFFFFFFFFFFFFFFFF AND DUP2 MSTORE PUSH1 0x20 ADD SWAP1 DUP2 MSTORE PUSH1 0x20 ADD PUSH1 0x0 KECCAK256 PUSH1 0x40 MLOAD DUP1 PUSH1 0x80 ADD PUSH1 0x40 MSTORE SWAP1 DUP2 PUSH1 0x0 DUP3 ADD SLOAD DUP2 MSTORE PUSH1 0x20 ADD PUSH1 0x1 DUP3 ADD SLOAD DUP2 MSTORE PUSH1 0x20 ADD PUSH1 0x2 DUP3 ADD SLOAD DUP2 MSTORE PUSH1 0x20 ADD PUSH1 0x3 DUP3 ADD SLOAD DUP2 MSTORE POP POP SWAP1 POP PUSH1 0x0 DUP2 PUSH1 0x40 ADD MLOAD GT PUSH2 0x1031 JUMPI PUSH1 0x40 MLOAD PUSH32 0x8C379A000000000000000000000000000000000000000000000000000000000 DUP2 MSTORE PUSH1 0x4 ADD PUSH2 0x1028 SWAP1 PUSH2 0x406E JUMP JUMPDEST PUSH1 0x40 MLOAD DUP1 SWAP2 SUB SWAP1 REVERT JUMPDEST PUSH1 0x0 PUSH2 0x104F DUP3 PUSH1 0x40 ADD MLOAD DUP4 PUSH1 0x0 ADD MLOAD DUP5 PUSH1 0x20 ADD MLOAD DUP6 PUSH1 0x60 ADD MLOAD PUSH2 0x2CB7 JUMP JUMPDEST SWAP1 POP PUSH1 0x7 PUSH1 0x0 DUP2 SLOAD DUP1 SWAP3 SWAP2 SWAP1 PUSH2 0x1064 SWAP1 PUSH2 0x408E JUMP JUMPDEST SWAP2 SWAP1 POP SSTORE POP DUP2 PUSH1 0x40 ADD MLOAD PUSH1 0x8 PUSH1 0x0 DUP3 DUP3 SLOAD PUSH2 0x107F SWAP2 SWAP1 PUSH2 0x3F98 JUMP JUMPDEST SWAP3 POP POP DUP2 SWAP1 SSTORE POP PUSH2 0x10A6 PUSH2 0x1091 PUSH2 0x24C5 JUMP JUMPDEST DUP3 DUP5 PUSH1 0x40 ADD MLOAD PUSH2 0x10A1 SWAP2 SWAP1 PUSH2 0x3FCC JUMP JUMPDEST PUSH2 0x2798 JUMP JUMPDEST PUSH2 0x10AE PUSH2 0x24C5 JUMP JUMPDEST PUSH20 0xFFFFFFFFFFFFFFFFFFFFFFFFFFFFFFFFFFFFFFFF AND PUSH32 0x92CCF450A286A957AF52509BC1C9939D1A6A481783E142E41E2499F0BB66EBC6 DUP4 PUSH1 0x40 ADD MLOAD DUP4 PUSH1 0x40 MLOAD PUSH2 0x10F9 SWAP3 SWAP2 SWAP1 PUSH2 0x40B8 JUMP JUMPDEST PUSH1 0x40 MLOAD DUP1 SWAP2 SUB SWAP1 LOG2 PUSH1 0xA PUSH1 0x0 PUSH2 0x110D PUSH2 0x24C5 JUMP JUMPDEST PUSH20 0xFFFFFFFFFFFFFFFFFFFFFFFFFFFFFFFFFFFFFFFF AND PUSH20 0xFFFFFFFFFFFFFFFFFFFFFFFFFFFFFFFFFFFFFFFF AND DUP2 MSTORE PUSH1 0x20 ADD SWAP1 DUP2 MSTORE PUSH1 0x20 ADD PUSH1 0x0 KECCAK256 PUSH1 0x0 DUP1 DUP3 ADD PUSH1 0x0 SWAP1 SSTORE PUSH1 0x1 DUP3 ADD PUSH1 0x0 SWAP1 SSTORE PUSH1 0x2 DUP3 ADD PUSH1 0x0 SWAP1 SSTORE PUSH1 0x3 DUP3 ADD PUSH1 0x0 SWAP1 SSTORE POP POP POP POP JUMP JUMPDEST PUSH1 0x0 PUSH2 0x1178 PUSH2 0x2D1C JUMP JUMPDEST SWAP1 POP SWAP1 JUMP JUMPDEST PUSH1 0x0 PUSH1 0x9 PUSH1 0x0 PUSH2 0x118B PUSH2 0x24C5 JUMP JUMPDEST PUSH20 0xFFFFFFFFFFFFFFFFFFFFFFFFFFFFFFFFFFFFFFFF AND PUSH20 0xFFFFFFFFFFFFFFFFFFFFFFFFFFFFFFFFFFFFFFFF AND DUP2 MSTORE PUSH1 0x20 ADD SWAP1 DUP2 MSTORE PUSH1 0x20 ADD PUSH1 0x0 KECCAK256 PUSH1 0x40 MLOAD DUP1 PUSH1 0xC0 ADD PUSH1 0x40 MSTORE SWAP1 DUP2 PUSH1 0x0 DUP3 ADD PUSH1 0x0 SWAP1 SLOAD SWAP1 PUSH2 0x100 EXP SWAP1 DIV PUSH20 0xFFFFFFFFFFFFFFFFFFFFFFFFFFFFFFFFFFFFFFFF AND PUSH20 0xFFFFFFFFFFFFFFFFFFFFFFFFFFFFFFFFFFFFFFFF AND PUSH20 0xFFFFFFFFFFFFFFFFFFFFFFFFFFFFFFFFFFFFFFFF AND DUP2 MSTORE PUSH1 0x20 ADD PUSH1 0x1 DUP3 ADD SLOAD DUP2 MSTORE PUSH1 0x20 ADD PUSH1 0x2 DUP3 ADD SLOAD DUP2 MSTORE PUSH1 0x20 ADD PUSH1 0x3 DUP3 ADD SLOAD DUP2 MSTORE PUSH1 0x20 ADD PUSH1 0x4 DUP3 ADD SLOAD DUP2 MSTORE PUSH1 0x20 ADD PUSH1 0x5 DUP3 ADD SLOAD DUP2 MSTORE POP POP SWAP1 POP PUSH1 0x0 DUP2 PUSH1 0x60 ADD MLOAD GT PUSH2 0x12A1 JUMPI PUSH1 0x40 MLOAD PUSH32 0x8C379A000000000000000000000000000000000000000000000000000000000 DUP2 MSTORE PUSH1 0x4 ADD PUSH2 0x1298 SWAP1 PUSH2 0x3EAC JUMP JUMPDEST PUSH1 0x40 MLOAD DUP1 SWAP2 SUB SWAP1 REVERT JUMPDEST DUP1 PUSH1 0x40 ADD MLOAD TIMESTAMP GT PUSH2 0x12E7 JUMPI PUSH1 0x40 MLOAD PUSH32 0x8C379A000000000000000000000000000000000000000000000000000000000 DUP2 MSTORE PUSH1 0x4 ADD PUSH2 0x12DE SWAP1 PUSH2 0x3F18 JUMP JUMPDEST PUSH1 0x40 MLOAD DUP1 SWAP2 SUB SWAP1 REVERT JUMPDEST PUSH1 0x0 PUSH8 0xDE0B6B3A7640000 PUSH2 0x1313 DUP4 PUSH1 0x60 ADD MLOAD DUP5 PUSH1 0x20 ADD MLOAD DUP6 PUSH1 0x40 ADD MLOAD DUP7 PUSH1 0x80 ADD MLOAD DUP8 PUSH1 0xA0 ADD MLOAD PUSH2 0x2698 JUMP JUMPDEST PUSH2 0x131D SWAP2 SWAP1 PUSH2 0x3C9C JUMP JUMPDEST SWAP1 POP PUSH2 0x1330 PUSH2 0x132A PUSH2 0x24C5 JUMP JUMPDEST DUP3 PUSH2 0x2798 JUMP JUMPDEST PUSH2 0x1338 PUSH2 0x28F8 JUMP JUMPDEST PUSH2 0x1340 PUSH2 0x24C5 JUMP JUMPDEST PUSH20 0xFFFFFFFFFFFFFFFFFFFFFFFFFFFFFFFFFFFFFFFF AND PUSH32 0xD74752B13281DF13701575F3A507E9B1242E0B5FB040143211C481C1FCE573A6 DUP3 PUSH1 0x40 MLOAD PUSH2 0x1385 SWAP2 SWAP1 PUSH2 0x368D JUMP JUMPDEST PUSH1 0x40 MLOAD DUP1 SWAP2 SUB SWAP1 LOG2 POP POP JUMP JUMPDEST PUSH1 0x1 DUP2 JUMP JUMPDEST PUSH1 0x0 PUSH1 0x9 PUSH1 0x0 PUSH2 0x13A4 PUSH2 0x24C5 JUMP JUMPDEST PUSH20 0xFFFFFFFFFFFFFFFFFFFFFFFFFFFFFFFFFFFFFFFF AND PUSH20 0xFFFFFFFFFFFFFFFFFFFFFFFFFFFFFFFFFFFFFFFF AND DUP2 MSTORE PUSH1 0x20 ADD SWAP1 DUP2 MSTORE PUSH1 0x20 ADD PUSH1 0x0 KECCAK256 PUSH1 0x40 MLOAD DUP1 PUSH1 0xC0 ADD PUSH1 0x40 MSTORE SWAP1 DUP2 PUSH1 0x0 DUP3 ADD PUSH1 0x0 SWAP1 SLOAD SWAP1 PUSH2 0x100 EXP SWAP1 DIV PUSH20 0xFFFFFFFFFFFFFFFFFFFFFFFFFFFFFFFFFFFFFFFF AND PUSH20 0xFFFFFFFFFFFFFFFFFFFFFFFFFFFFFFFFFFFFFFFF AND PUSH20 0xFFFFFFFFFFFFFFFFFFFFFFFFFFFFFFFFFFFFFFFF AND DUP2 MSTORE PUSH1 0x20 ADD PUSH1 0x1 DUP3 ADD SLOAD DUP2 MSTORE PUSH1 0x20 ADD PUSH1 0x2 DUP3 ADD SLOAD DUP2 MSTORE PUSH1 0x20 ADD PUSH1 0x3 DUP3 ADD SLOAD DUP2 MSTORE PUSH1 0x20 ADD PUSH1 0x4 DUP3 ADD SLOAD DUP2 MSTORE PUSH1 0x20 ADD PUSH1 0x5 DUP3 ADD SLOAD DUP2 MSTORE POP POP SWAP1 POP PUSH1 0x65 DUP4 LT PUSH2 0x14B6 JUMPI PUSH1 0x40 MLOAD PUSH32 0x8C379A000000000000000000000000000000000000000000000000000000000 DUP2 MSTORE PUSH1 0x4 ADD PUSH2 0x14AD SWAP1 PUSH2 0x412D JUMP JUMPDEST PUSH1 0x40 MLOAD DUP1 SWAP2 SUB SWAP1 REVERT JUMPDEST PUSH1 0x0 DUP2 PUSH1 0x60 ADD MLOAD GT PUSH2 0x14FD JUMPI PUSH1 0x40 MLOAD PUSH32 0x8C379A000000000000000000000000000000000000000000000000000000000 DUP2 MSTORE PUSH1 0x4 ADD PUSH2 0x14F4 SWAP1 PUSH2 0x3EAC JUMP JUMPDEST PUSH1 0x40 MLOAD DUP1 SWAP2 SUB SWAP1 REVERT JUMPDEST DUP1 PUSH1 0x40 ADD MLOAD TIMESTAMP GT PUSH2 0x1543 JUMPI PUSH1 0x40 MLOAD PUSH32 0x8C379A000000000000000000000000000000000000000000000000000000000 DUP2 MSTORE PUSH1 0x4 ADD PUSH2 0x153A SWAP1 PUSH2 0x3F18 JUMP JUMPDEST PUSH1 0x40 MLOAD DUP1 SWAP2 SUB SWAP1 REVERT JUMPDEST PUSH1 0x0 PUSH8 0xDE0B6B3A7640000 PUSH2 0x156F DUP4 PUSH1 0x60 ADD MLOAD DUP5 PUSH1 0x20 ADD MLOAD DUP6 PUSH1 0x40 ADD MLOAD DUP7 PUSH1 0x80 ADD MLOAD DUP8 PUSH1 0xA0 ADD MLOAD PUSH2 0x2698 JUMP JUMPDEST PUSH2 0x1579 SWAP2 SWAP1 PUSH2 0x3C9C JUMP JUMPDEST SWAP1 POP PUSH1 0x0 PUSH1 0x64 DUP6 DUP4 PUSH2 0x158B SWAP2 SWAP1 PUSH2 0x3C9C JUMP JUMPDEST PUSH2 0x1595 SWAP2 SWAP1 PUSH2 0x3F67 JUMP JUMPDEST SWAP1 POP PUSH1 0x0 DUP2 DUP4 PUSH2 0x15A5 SWAP2 SWAP1 PUSH2 0x3F98 JUMP JUMPDEST SWAP1 POP PUSH2 0x15B8 PUSH2 0x15B2 PUSH2 0x24C5 JUMP JUMPDEST DUP3 PUSH2 0x2798 JUMP JUMPDEST PUSH2 0x15C0 PUSH2 0x28F8 JUMP JUMPDEST PUSH2 0x15C8 PUSH2 0x24C5 JUMP JUMPDEST PUSH20 0xFFFFFFFFFFFFFFFFFFFFFFFFFFFFFFFFFFFFFFFF AND PUSH32 0xD74752B13281DF13701575F3A507E9B1242E0B5FB040143211C481C1FCE573A6 DUP5 PUSH1 0x40 MLOAD PUSH2 0x160D SWAP2 SWAP1 PUSH2 0x368D JUMP JUMPDEST PUSH1 0x40 MLOAD DUP1 SWAP2 SUB SWAP1 LOG2 PUSH1 0x0 DUP3 GT PUSH2 0x1658 JUMPI PUSH1 0x40 MLOAD PUSH32 0x8C379A000000000000000000000000000000000000000000000000000000000 DUP2 MSTORE PUSH1 0x4 ADD PUSH2 0x164F SWAP1 PUSH2 0x4199 JUMP JUMPDEST PUSH1 0x40 MLOAD DUP1 SWAP2 SUB SWAP1 REVERT JUMPDEST PUSH1 0x1 PUSH3 0x15180 PUSH1 0x1 PUSH2 0x166A SWAP2 SWAP1 PUSH2 0x3C9C JUMP JUMPDEST PUSH2 0x1674 SWAP2 SWAP1 PUSH2 0x3F98 JUMP JUMPDEST PUSH3 0x15180 DUP7 PUSH2 0x1683 SWAP2 SWAP1 PUSH2 0x3C9C JUMP JUMPDEST GT PUSH2 0x16C3 JUMPI PUSH1 0x40 MLOAD PUSH32 0x8C379A000000000000000000000000000000000000000000000000000000000 DUP2 MSTORE PUSH1 0x4 ADD PUSH2 0x16BA SWAP1 PUSH2 0x4205 JUMP JUMPDEST PUSH1 0x40 MLOAD DUP1 SWAP2 SUB SWAP1 REVERT JUMPDEST PUSH1 0x1 PUSH3 0x15180 PUSH2 0x3E8 PUSH2 0x16D6 SWAP2 SWAP1 PUSH2 0x3C9C JUMP JUMPDEST PUSH2 0x16E0 SWAP2 SWAP1 PUSH2 0x3FCC JUMP JUMPDEST PUSH3 0x15180 DUP7 PUSH2 0x16EF SWAP2 SWAP1 PUSH2 0x3C9C JUMP JUMPDEST LT PUSH2 0x172F JUMPI PUSH1 0x40 MLOAD PUSH32 0x8C379A000000000000000000000000000000000000000000000000000000000 DUP2 MSTORE PUSH1 0x4 ADD PUSH2 0x1726 SWAP1 PUSH2 0x4271 JUMP JUMPDEST PUSH1 0x40 MLOAD DUP1 SWAP2 SUB SWAP1 REVERT JUMPDEST PUSH1 0x0 PUSH1 0xA PUSH1 0x0 PUSH2 0x173D PUSH2 0x24C5 JUMP JUMPDEST PUSH20 0xFFFFFFFFFFFFFFFFFFFFFFFFFFFFFFFFFFFFFFFF AND PUSH20 0xFFFFFFFFFFFFFFFFFFFFFFFFFFFFFFFFFFFFFFFF AND DUP2 MSTORE PUSH1 0x20 ADD SWAP1 DUP2 MSTORE PUSH1 0x20 ADD PUSH1 0x0 KECCAK256 PUSH1 0x2 ADD SLOAD EQ PUSH2 0x17BB JUMPI PUSH1 0x40 MLOAD PUSH32 0x8C379A000000000000000000000000000000000000000000000000000000000 DUP2 MSTORE PUSH1 0x4 ADD PUSH2 0x17B2 SWAP1 PUSH2 0x42DD JUMP JUMPDEST PUSH1 0x40 MLOAD DUP1 SWAP2 SUB SWAP1 REVERT JUMPDEST PUSH2 0x17C5 DUP3 DUP7 PUSH2 0x2E4D JUMP JUMPDEST PUSH2 0x17CD PUSH2 0x24C5 JUMP JUMPDEST PUSH20 0xFFFFFFFFFFFFFFFFFFFFFFFFFFFFFFFFFFFFFFFF AND PUSH32 0x1449C6DD7851ABC30ABF37F57715F492010519147CC2652FBC38202C18A6EE90 DUP4 DUP8 PUSH1 0x40 MLOAD PUSH2 0x1814 SWAP3 SWAP2 SWAP1 PUSH2 0x40B8 JUMP JUMPDEST PUSH1 0x40 MLOAD DUP1 SWAP2 SUB SWAP1 LOG2 POP POP POP POP POP POP JUMP JUMPDEST PUSH3 0x15180 DUP2 JUMP JUMPDEST PUSH2 0x1833 PUSH2 0x3628 JUMP JUMPDEST PUSH1 0x9 PUSH1 0x0 PUSH2 0x183F PUSH2 0x24C5 JUMP JUMPDEST PUSH20 0xFFFFFFFFFFFFFFFFFFFFFFFFFFFFFFFFFFFFFFFF AND PUSH20 0xFFFFFFFFFFFFFFFFFFFFFFFFFFFFFFFFFFFFFFFF AND DUP2 MSTORE PUSH1 0x20 ADD SWAP1 DUP2 MSTORE PUSH1 0x20 ADD PUSH1 0x0 KECCAK256 PUSH1 0x40 MLOAD DUP1 PUSH1 0xC0 ADD PUSH1 0x40 MSTORE SWAP1 DUP2 PUSH1 0x0 DUP3 ADD PUSH1 0x0 SWAP1 SLOAD SWAP1 PUSH2 0x100 EXP SWAP1 DIV PUSH20 0xFFFFFFFFFFFFFFFFFFFFFFFFFFFFFFFFFFFFFFFF AND PUSH20 0xFFFFFFFFFFFFFFFFFFFFFFFFFFFFFFFFFFFFFFFF AND PUSH20 0xFFFFFFFFFFFFFFFFFFFFFFFFFFFFFFFFFFFFFFFF AND DUP2 MSTORE PUSH1 0x20 ADD PUSH1 0x1 DUP3 ADD SLOAD DUP2 MSTORE PUSH1 0x20 ADD PUSH1 0x2 DUP3 ADD SLOAD DUP2 MSTORE PUSH1 0x20 ADD PUSH1 0x3 DUP3 ADD SLOAD DUP2 MSTORE PUSH1 0x20 ADD PUSH1 0x4 DUP3 ADD SLOAD DUP2 MSTORE PUSH1 0x20 ADD PUSH1 0x5 DUP3 ADD SLOAD DUP2 MSTORE POP POP SWAP1 POP SWAP1 JUMP JUMPDEST PUSH1 0x0 DUP1 PUSH1 0x0 DUP4 PUSH20 0xFFFFFFFFFFFFFFFFFFFFFFFFFFFFFFFFFFFFFFFF AND PUSH20 0xFFFFFFFFFFFFFFFFFFFFFFFFFFFFFFFFFFFFFFFF AND DUP2 MSTORE PUSH1 0x20 ADD SWAP1 DUP2 MSTORE PUSH1 0x20 ADD PUSH1 0x0 KECCAK256 SLOAD SWAP1 POP SWAP2 SWAP1 POP JUMP JUMPDEST PUSH1 0xF DUP2 JUMP JUMPDEST DUP2 PUSH2 0x196F PUSH2 0x196A PUSH2 0x24C5 JUMP JUMPDEST PUSH2 0x1911 JUMP JUMPDEST LT ISZERO PUSH2 0x19B0 JUMPI PUSH1 0x40 MLOAD PUSH32 0x8C379A000000000000000000000000000000000000000000000000000000000 DUP2 MSTORE PUSH1 0x4 ADD PUSH2 0x19A7 SWAP1 PUSH2 0x4349 JUMP JUMPDEST PUSH1 0x40 MLOAD DUP1 SWAP2 SUB SWAP1 REVERT JUMPDEST PUSH1 0x0 DUP3 GT PUSH2 0x19F3 JUMPI PUSH1 0x40 MLOAD PUSH32 0x8C379A000000000000000000000000000000000000000000000000000000000 DUP2 MSTORE PUSH1 0x4 ADD PUSH2 0x19EA SWAP1 PUSH2 0x4199 JUMP JUMPDEST PUSH1 0x40 MLOAD DUP1 SWAP2 SUB SWAP1 REVERT JUMPDEST PUSH1 0x1 PUSH3 0x15180 PUSH1 0x1 PUSH2 0x1A05 SWAP2 SWAP1 PUSH2 0x3C9C JUMP JUMPDEST PUSH2 0x1A0F SWAP2 SWAP1 PUSH2 0x3F98 JUMP JUMPDEST PUSH3 0x15180 DUP3 PUSH2 0x1A1E SWAP2 SWAP1 PUSH2 0x3C9C JUMP JUMPDEST GT PUSH2 0x1A5E JUMPI PUSH1 0x40 MLOAD PUSH32 0x8C379A000000000000000000000000000000000000000000000000000000000 DUP2 MSTORE PUSH1 0x4 ADD PUSH2 0x1A55 SWAP1 PUSH2 0x4205 JUMP JUMPDEST PUSH1 0x40 MLOAD DUP1 SWAP2 SUB SWAP1 REVERT JUMPDEST PUSH1 0x1 PUSH3 0x15180 PUSH2 0x3E8 PUSH2 0x1A71 SWAP2 SWAP1 PUSH2 0x3C9C JUMP JUMPDEST PUSH2 0x1A7B SWAP2 SWAP1 PUSH2 0x3FCC JUMP JUMPDEST PUSH3 0x15180 DUP3 PUSH2 0x1A8A SWAP2 SWAP1 PUSH2 0x3C9C JUMP JUMPDEST LT PUSH2 0x1ACA JUMPI PUSH1 0x40 MLOAD PUSH32 0x8C379A000000000000000000000000000000000000000000000000000000000 DUP2 MSTORE PUSH1 0x4 ADD PUSH2 0x1AC1 SWAP1 PUSH2 0x4271 JUMP JUMPDEST PUSH1 0x40 MLOAD DUP1 SWAP2 SUB SWAP1 REVERT JUMPDEST PUSH1 0x0 PUSH1 0xA PUSH1 0x0 PUSH2 0x1AD8 PUSH2 0x24C5 JUMP JUMPDEST PUSH20 0xFFFFFFFFFFFFFFFFFFFFFFFFFFFFFFFFFFFFFFFF AND PUSH20 0xFFFFFFFFFFFFFFFFFFFFFFFFFFFFFFFFFFFFFFFF AND DUP2 MSTORE PUSH1 0x20 ADD SWAP1 DUP2 MSTORE PUSH1 0x20 ADD PUSH1 0x0 KECCAK256 PUSH1 0x2 ADD SLOAD EQ PUSH2 0x1B56 JUMPI PUSH1 0x40 MLOAD PUSH32 0x8C379A000000000000000000000000000000000000000000000000000000000 DUP2 MSTORE PUSH1 0x4 ADD PUSH2 0x1B4D SWAP1 PUSH2 0x42DD JUMP JUMPDEST PUSH1 0x40 MLOAD DUP1 SWAP2 SUB SWAP1 REVERT JUMPDEST PUSH2 0x1B67 PUSH2 0x1B61 PUSH2 0x24C5 JUMP JUMPDEST DUP4 PUSH2 0x2F34 JUMP JUMPDEST PUSH2 0x1B71 DUP3 DUP3 PUSH2 0x2E4D JUMP JUMPDEST PUSH2 0x1B79 PUSH2 0x24C5 JUMP JUMPDEST PUSH20 0xFFFFFFFFFFFFFFFFFFFFFFFFFFFFFFFFFFFFFFFF AND PUSH32 0x1449C6DD7851ABC30ABF37F57715F492010519147CC2652FBC38202C18A6EE90 DUP4 DUP4 PUSH1 0x40 MLOAD PUSH2 0x1BC0 SWAP3 SWAP2 SWAP1 PUSH2 0x40B8 JUMP JUMPDEST PUSH1 0x40 MLOAD DUP1 SWAP2 SUB SWAP1 LOG2 POP POP JUMP JUMPDEST PUSH1 0x2 DUP2 JUMP JUMPDEST PUSH1 0x0 PUSH2 0x1BDB PUSH2 0x310B JUMP JUMPDEST SWAP1 POP SWAP1 JUMP JUMPDEST PUSH1 0xA PUSH1 0x20 MSTORE DUP1 PUSH1 0x0 MSTORE PUSH1 0x40 PUSH1 0x0 KECCAK256 PUSH1 0x0 SWAP2 POP SWAP1 POP DUP1 PUSH1 0x0 ADD SLOAD SWAP1 DUP1 PUSH1 0x1 ADD SLOAD SWAP1 DUP1 PUSH1 0x2 ADD SLOAD SWAP1 DUP1 PUSH1 0x3 ADD SLOAD SWAP1 POP DUP5 JUMP JUMPDEST PUSH1 0x64 DUP2 JUMP JUMPDEST PUSH1 0x60 PUSH1 0x4 DUP1 SLOAD PUSH2 0x1C24 SWAP1 PUSH2 0x3C3B JUMP JUMPDEST DUP1 PUSH1 0x1F ADD PUSH1 0x20 DUP1 SWAP2 DIV MUL PUSH1 0x20 ADD PUSH1 0x40 MLOAD SWAP1 DUP2 ADD PUSH1 0x40 MSTORE DUP1 SWAP3 SWAP2 SWAP1 DUP2 DUP2 MSTORE PUSH1 0x20 ADD DUP3 DUP1 SLOAD PUSH2 0x1C50 SWAP1 PUSH2 0x3C3B JUMP JUMPDEST DUP1 ISZERO PUSH2 0x1C9D JUMPI DUP1 PUSH1 0x1F LT PUSH2 0x1C72 JUMPI PUSH2 0x100 DUP1 DUP4 SLOAD DIV MUL DUP4 MSTORE SWAP2 PUSH1 0x20 ADD SWAP2 PUSH2 0x1C9D JUMP JUMPDEST DUP3 ADD SWAP2 SWAP1 PUSH1 0x0 MSTORE PUSH1 0x20 PUSH1 0x0 KECCAK256 SWAP1 JUMPDEST DUP2 SLOAD DUP2 MSTORE SWAP1 PUSH1 0x1 ADD SWAP1 PUSH1 0x20 ADD DUP1 DUP4 GT PUSH2 0x1C80 JUMPI DUP3 SWAP1 SUB PUSH1 0x1F AND DUP3 ADD SWAP2 JUMPDEST POP POP POP POP POP SWAP1 POP SWAP1 JUMP JUMPDEST PUSH1 0x0 PUSH2 0x1CB1 PUSH2 0x3154 JUMP JUMPDEST SWAP1 POP SWAP1 JUMP JUMPDEST PUSH1 0x0 PUSH2 0x1CC0 PUSH2 0x31D2 JUMP JUMPDEST SWAP1 POP SWAP1 JUMP JUMPDEST PUSH1 0x0 DUP2 GT PUSH2 0x1D08 JUMPI PUSH1 0x40 MLOAD PUSH32 0x8C379A000000000000000000000000000000000000000000000000000000000 DUP2 MSTORE PUSH1 0x4 ADD PUSH2 0x1CFF SWAP1 PUSH2 0x43B5 JUMP JUMPDEST PUSH1 0x40 MLOAD DUP1 SWAP2 SUB SWAP1 REVERT JUMPDEST PUSH2 0x1D10 PUSH2 0x24C5 JUMP JUMPDEST PUSH20 0xFFFFFFFFFFFFFFFFFFFFFFFFFFFFFFFFFFFFFFFF AND PUSH4 0x1FFC9A7 PUSH32 0x543746B100000000000000000000000000000000000000000000000000000000 PUSH1 0x40 MLOAD DUP3 PUSH4 0xFFFFFFFF AND PUSH1 0xE0 SHL DUP2 MSTORE PUSH1 0x4 ADD PUSH2 0x1D68 SWAP2 SWAP1 PUSH2 0x4410 JUMP JUMPDEST PUSH1 0x20 PUSH1 0x40 MLOAD DUP1 DUP4 SUB DUP2 DUP7 GAS STATICCALL ISZERO DUP1 ISZERO PUSH2 0x1D85 JUMPI RETURNDATASIZE PUSH1 0x0 DUP1 RETURNDATACOPY RETURNDATASIZE PUSH1 0x0 REVERT JUMPDEST POP POP POP POP PUSH1 0x40 MLOAD RETURNDATASIZE PUSH1 0x1F NOT PUSH1 0x1F DUP3 ADD AND DUP3 ADD DUP1 PUSH1 0x40 MSTORE POP DUP2 ADD SWAP1 PUSH2 0x1DA9 SWAP2 SWAP1 PUSH2 0x4457 JUMP JUMPDEST PUSH2 0x1DE8 JUMPI PUSH1 0x40 MLOAD PUSH32 0x8C379A000000000000000000000000000000000000000000000000000000000 DUP2 MSTORE PUSH1 0x4 ADD PUSH2 0x1DDF SWAP1 PUSH2 0x44D0 JUMP JUMPDEST PUSH1 0x40 MLOAD DUP1 SWAP2 SUB SWAP1 REVERT JUMPDEST PUSH2 0x1DFA DUP3 PUSH2 0x1DF4 PUSH2 0x24C5 JUMP JUMPDEST DUP4 PUSH2 0x29AA JUMP JUMPDEST PUSH2 0x1E04 DUP3 DUP3 PUSH2 0x2F34 JUMP JUMPDEST DUP1 PUSH1 0xB PUSH1 0x0 DUP5 PUSH20 0xFFFFFFFFFFFFFFFFFFFFFFFFFFFFFFFFFFFFFFFF AND PUSH20 0xFFFFFFFFFFFFFFFFFFFFFFFFFFFFFFFFFFFFFFFF AND DUP2 MSTORE PUSH1 0x20 ADD SWAP1 DUP2 MSTORE PUSH1 0x20 ADD PUSH1 0x0 KECCAK256 PUSH1 0x0 DUP3 DUP3 SLOAD PUSH2 0x1E53 SWAP2 SWAP1 PUSH2 0x3FCC JUMP JUMPDEST SWAP3 POP POP DUP2 SWAP1 SSTORE POP PUSH2 0x1E62 PUSH2 0x24C5 JUMP JUMPDEST PUSH20 0xFFFFFFFFFFFFFFFFFFFFFFFFFFFFFFFFFFFFFFFF AND PUSH4 0x543746B1 DUP4 DUP4 PUSH1 0x40 MLOAD DUP4 PUSH4 0xFFFFFFFF AND PUSH1 0xE0 SHL DUP2 MSTORE PUSH1 0x4 ADD PUSH2 0x1E9C SWAP3 SWAP2 SWAP1 PUSH2 0x44F0 JUMP JUMPDEST PUSH1 0x0 PUSH1 0x40 MLOAD DUP1 DUP4 SUB DUP2 PUSH1 0x0 DUP8 DUP1 EXTCODESIZE ISZERO DUP1 ISZERO PUSH2 0x1EB6 JUMPI PUSH1 0x0 DUP1 REVERT JUMPDEST POP GAS CALL ISZERO DUP1 ISZERO PUSH2 0x1ECA JUMPI RETURNDATASIZE PUSH1 0x0 DUP1 RETURNDATACOPY RETURNDATASIZE PUSH1 0x0 REVERT JUMPDEST POP POP POP POP POP POP JUMP JUMPDEST PUSH1 0x0 PUSH3 0x15180 DUP3 PUSH2 0x1EE3 SWAP2 SWAP1 PUSH2 0x3C9C JUMP JUMPDEST SWAP1 POP PUSH1 0x1 PUSH3 0x15180 PUSH1 0x1 PUSH2 0x1EF7 SWAP2 SWAP1 PUSH2 0x3C9C JUMP JUMPDEST PUSH2 0x1F01 SWAP2 SWAP1 PUSH2 0x3F98 JUMP JUMPDEST DUP2 GT PUSH2 0x1F42 JUMPI PUSH1 0x40 MLOAD PUSH32 0x8C379A000000000000000000000000000000000000000000000000000000000 DUP2 MSTORE PUSH1 0x4 ADD PUSH2 0x1F39 SWAP1 PUSH2 0x4565 JUMP JUMPDEST PUSH1 0x40 MLOAD DUP1 SWAP2 SUB SWAP1 REVERT JUMPDEST PUSH1 0x1 PUSH2 0x1F4C PUSH2 0x2D1C JUMP JUMPDEST PUSH2 0x1F56 SWAP2 SWAP1 PUSH2 0x3FCC JUMP JUMPDEST DUP2 LT PUSH2 0x1F97 JUMPI PUSH1 0x40 MLOAD PUSH32 0x8C379A000000000000000000000000000000000000000000000000000000000 DUP2 MSTORE PUSH1 0x4 ADD PUSH2 0x1F8E SWAP1 PUSH2 0x45F7 JUMP JUMPDEST PUSH1 0x40 MLOAD DUP1 SWAP2 SUB SWAP1 REVERT JUMPDEST PUSH1 0x0 PUSH1 0x9 PUSH1 0x0 PUSH2 0x1FA5 PUSH2 0x24C5 JUMP JUMPDEST PUSH20 0xFFFFFFFFFFFFFFFFFFFFFFFFFFFFFFFFFFFFFFFF AND PUSH20 0xFFFFFFFFFFFFFFFFFFFFFFFFFFFFFFFFFFFFFFFF AND DUP2 MSTORE PUSH1 0x20 ADD SWAP1 DUP2 MSTORE PUSH1 0x20 ADD PUSH1 0x0 KECCAK256 PUSH1 0x3 ADD SLOAD EQ PUSH2 0x2023 JUMPI PUSH1 0x40 MLOAD PUSH32 0x8C379A000000000000000000000000000000000000000000000000000000000 DUP2 MSTORE PUSH1 0x4 ADD PUSH2 0x201A SWAP1 PUSH2 0x4663 JUMP JUMPDEST PUSH1 0x40 MLOAD DUP1 SWAP2 SUB SWAP1 REVERT JUMPDEST PUSH1 0x0 PUSH1 0x40 MLOAD DUP1 PUSH1 0xC0 ADD PUSH1 0x40 MSTORE DUP1 PUSH2 0x2038 PUSH2 0x24C5 JUMP JUMPDEST PUSH20 0xFFFFFFFFFFFFFFFFFFFFFFFFFFFFFFFFFFFFFFFF AND DUP2 MSTORE PUSH1 0x20 ADD DUP5 DUP2 MSTORE PUSH1 0x20 ADD DUP4 TIMESTAMP PUSH2 0x2065 SWAP2 SWAP1 PUSH2 0x3FCC JUMP JUMPDEST DUP2 MSTORE PUSH1 0x20 ADD PUSH1 0x5 SLOAD DUP2 MSTORE PUSH1 0x20 ADD PUSH2 0x207A PUSH2 0x31D2 JUMP JUMPDEST DUP2 MSTORE PUSH1 0x20 ADD PUSH2 0x2087 PUSH2 0x310B JUMP JUMPDEST DUP2 MSTORE POP SWAP1 POP DUP1 PUSH1 0x9 PUSH1 0x0 PUSH2 0x2099 PUSH2 0x24C5 JUMP JUMPDEST PUSH20 0xFFFFFFFFFFFFFFFFFFFFFFFFFFFFFFFFFFFFFFFF AND PUSH20 0xFFFFFFFFFFFFFFFFFFFFFFFFFFFFFFFFFFFFFFFF AND DUP2 MSTORE PUSH1 0x20 ADD SWAP1 DUP2 MSTORE PUSH1 0x20 ADD PUSH1 0x0 KECCAK256 PUSH1 0x0 DUP3 ADD MLOAD DUP2 PUSH1 0x0 ADD PUSH1 0x0 PUSH2 0x100 EXP DUP2 SLOAD DUP2 PUSH20 0xFFFFFFFFFFFFFFFFFFFFFFFFFFFFFFFFFFFFFFFF MUL NOT AND SWAP1 DUP4 PUSH20 0xFFFFFFFFFFFFFFFFFFFFFFFFFFFFFFFFFFFFFFFF AND MUL OR SWAP1 SSTORE POP PUSH1 0x20 DUP3 ADD MLOAD DUP2 PUSH1 0x1 ADD SSTORE PUSH1 0x40 DUP3 ADD MLOAD DUP2 PUSH1 0x2 ADD SSTORE PUSH1 0x60 DUP3 ADD MLOAD DUP2 PUSH1 0x3 ADD SSTORE PUSH1 0x80 DUP3 ADD MLOAD DUP2 PUSH1 0x4 ADD SSTORE PUSH1 0xA0 DUP3 ADD MLOAD DUP2 PUSH1 0x5 ADD SSTORE SWAP1 POP POP PUSH1 0x6 PUSH1 0x0 DUP2 SLOAD DUP1 SWAP3 SWAP2 SWAP1 PUSH2 0x2162 SWAP1 PUSH2 0x4683 JUMP JUMPDEST SWAP2 SWAP1 POP SSTORE POP PUSH2 0x216F PUSH2 0x24C5 JUMP JUMPDEST PUSH20 0xFFFFFFFFFFFFFFFFFFFFFFFFFFFFFFFFFFFFFFFF AND PUSH32 0xE9149E1B5059238BAED02FA659DBF4BD932FBCF760A431330DF4D934BC942F37 DUP5 PUSH1 0x5 PUSH1 0x0 DUP2 SLOAD DUP1 SWAP3 SWAP2 SWAP1 PUSH2 0x21BA SWAP1 PUSH2 0x4683 JUMP JUMPDEST SWAP2 SWAP1 POP SSTORE PUSH1 0x40 MLOAD PUSH2 0x21CC SWAP3 SWAP2 SWAP1 PUSH2 0x40B8 JUMP JUMPDEST PUSH1 0x40 MLOAD DUP1 SWAP2 SUB SWAP1 LOG2 POP POP POP JUMP JUMPDEST PUSH1 0x0 DUP1 PUSH2 0x21E4 PUSH2 0x24C5 JUMP JUMPDEST SWAP1 POP PUSH1 0x0 PUSH2 0x21F2 DUP3 DUP7 PUSH2 0x2387 JUMP JUMPDEST SWAP1 POP DUP4 DUP2 LT ISZERO PUSH2 0x2237 JUMPI PUSH1 0x40 MLOAD PUSH32 0x8C379A000000000000000000000000000000000000000000000000000000000 DUP2 MSTORE PUSH1 0x4 ADD PUSH2 0x222E SWAP1 PUSH2 0x473E JUMP JUMPDEST PUSH1 0x40 MLOAD DUP1 SWAP2 SUB SWAP1 REVERT JUMPDEST PUSH2 0x2244 DUP3 DUP7 DUP7 DUP5 SUB PUSH2 0x24CD JUMP JUMPDEST PUSH1 0x1 SWAP3 POP POP POP SWAP3 SWAP2 POP POP JUMP JUMPDEST PUSH1 0x0 DUP1 PUSH2 0x225B PUSH2 0x24C5 JUMP JUMPDEST SWAP1 POP PUSH2 0x2268 DUP2 DUP6 DUP6 PUSH2 0x2A36 JUMP JUMPDEST PUSH1 0x1 SWAP2 POP POP SWAP3 SWAP2 POP POP JUMP JUMPDEST PUSH1 0x0 DUP1 PUSH2 0x228A PUSH2 0x2282 DUP8 PUSH2 0x32B4 JUMP JUMPDEST PUSH1 0xF SIGNEXTEND PUSH2 0x32D7 JUMP JUMPDEST SWAP1 POP PUSH1 0x0 PUSH2 0x22E6 PUSH2 0x229A DUP6 PUSH2 0x32B4 JUMP JUMPDEST PUSH2 0x22D5 PUSH2 0x22A6 DUP9 PUSH2 0x32B4 JUMP JUMPDEST PUSH2 0x22C4 PUSH2 0x22B2 DUP12 PUSH2 0x32B4 JUMP JUMPDEST DUP8 PUSH1 0xF SIGNEXTEND PUSH2 0x33FB SWAP1 SWAP2 SWAP1 PUSH4 0xFFFFFFFF AND JUMP JUMPDEST PUSH1 0xF SIGNEXTEND PUSH2 0x33FB SWAP1 SWAP2 SWAP1 PUSH4 0xFFFFFFFF AND JUMP JUMPDEST PUSH1 0xF SIGNEXTEND PUSH2 0x33FB SWAP1 SWAP2 SWAP1 PUSH4 0xFFFFFFFF AND JUMP JUMPDEST SWAP1 POP PUSH2 0x2313 PUSH2 0x230B PUSH2 0x22F9 PUSH2 0x3E8 PUSH2 0x32B4 JUMP JUMPDEST DUP4 PUSH1 0xF SIGNEXTEND PUSH2 0x3466 SWAP1 SWAP2 SWAP1 PUSH4 0xFFFFFFFF AND JUMP JUMPDEST PUSH1 0xF SIGNEXTEND PUSH2 0x34F0 JUMP JUMPDEST PUSH8 0xFFFFFFFFFFFFFFFF AND SWAP3 POP POP POP SWAP5 SWAP4 POP POP POP POP JUMP JUMPDEST PUSH2 0x1388 DUP2 JUMP JUMPDEST PUSH1 0x6 SLOAD DUP2 JUMP JUMPDEST PUSH1 0x40 MLOAD DUP1 PUSH1 0x60 ADD PUSH1 0x40 MSTORE DUP1 PUSH1 0x25 DUP2 MSTORE PUSH1 0x20 ADD PUSH2 0x4D1D PUSH1 0x25 SWAP2 CODECOPY DUP2 JUMP JUMPDEST PUSH1 0x1 DUP2 JUMP JUMPDEST PUSH3 0x15180 PUSH2 0x3E8 PUSH2 0x2367 SWAP2 SWAP1 PUSH2 0x3C9C JUMP JUMPDEST DUP2 JUMP JUMPDEST PUSH1 0x7 DUP2 JUMP JUMPDEST PUSH1 0xB PUSH1 0x20 MSTORE DUP1 PUSH1 0x0 MSTORE PUSH1 0x40 PUSH1 0x0 KECCAK256 PUSH1 0x0 SWAP2 POP SWAP1 POP SLOAD DUP2 JUMP JUMPDEST PUSH1 0x0 PUSH1 0x1 PUSH1 0x0 DUP5 PUSH20 0xFFFFFFFFFFFFFFFFFFFFFFFFFFFFFFFFFFFFFFFF AND PUSH20 0xFFFFFFFFFFFFFFFFFFFFFFFFFFFFFFFFFFFFFFFF AND DUP2 MSTORE PUSH1 0x20 ADD SWAP1 DUP2 MSTORE PUSH1 0x20 ADD PUSH1 0x0 KECCAK256 PUSH1 0x0 DUP4 PUSH20 0xFFFFFFFFFFFFFFFFFFFFFFFFFFFFFFFFFFFFFFFF AND PUSH20 0xFFFFFFFFFFFFFFFFFFFFFFFFFFFFFFFFFFFFFFFF AND DUP2 MSTORE PUSH1 0x20 ADD SWAP1 DUP2 MSTORE PUSH1 0x20 ADD PUSH1 0x0 KECCAK256 SLOAD SWAP1 POP SWAP3 SWAP2 POP POP JUMP JUMPDEST PUSH1 0x9 PUSH1 0x20 MSTORE DUP1 PUSH1 0x0 MSTORE PUSH1 0x40 PUSH1 0x0 KECCAK256 PUSH1 0x0 SWAP2 POP SWAP1 POP DUP1 PUSH1 0x0 ADD PUSH1 0x0 SWAP1 SLOAD SWAP1 PUSH2 0x100 EXP SWAP1 DIV PUSH20 0xFFFFFFFFFFFFFFFFFFFFFFFFFFFFFFFFFFFFFFFF AND SWAP1 DUP1 PUSH1 0x1 ADD SLOAD SWAP1 DUP1 PUSH1 0x2 ADD SLOAD SWAP1 DUP1 PUSH1 0x3 ADD SLOAD SWAP1 DUP1 PUSH1 0x4 ADD SLOAD SWAP1 DUP1 PUSH1 0x5 ADD SLOAD SWAP1 POP DUP7 JUMP JUMPDEST PUSH32 0x0 DUP2 JUMP JUMPDEST PUSH2 0xBB8 DUP2 JUMP JUMPDEST PUSH1 0x7 SLOAD DUP2 JUMP JUMPDEST PUSH1 0x1 PUSH3 0x15180 PUSH1 0x1 PUSH2 0x24AC SWAP2 SWAP1 PUSH2 0x3C9C JUMP JUMPDEST PUSH2 0x24B6 SWAP2 SWAP1 PUSH2 0x3F98 JUMP JUMPDEST DUP2 JUMP JUMPDEST PUSH3 0x186A0 DUP2 JUMP JUMPDEST PUSH1 0x14 DUP2 JUMP JUMPDEST PUSH1 0x0 CALLER SWAP1 POP SWAP1 JUMP JUMPDEST PUSH1 0x0 PUSH20 0xFFFFFFFFFFFFFFFFFFFFFFFFFFFFFFFFFFFFFFFF AND DUP4 PUSH20 0xFFFFFFFFFFFFFFFFFFFFFFFFFFFFFFFFFFFFFFFF AND EQ ISZERO PUSH2 0x253D JUMPI PUSH1 0x40 MLOAD PUSH32 0x8C379A000000000000000000000000000000000000000000000000000000000 DUP2 MSTORE PUSH1 0x4 ADD PUSH2 0x2534 SWAP1 PUSH2 0x47D0 JUMP JUMPDEST PUSH1 0x40 MLOAD DUP1 SWAP2 SUB SWAP1 REVERT JUMPDEST PUSH1 0x0 PUSH20 0xFFFFFFFFFFFFFFFFFFFFFFFFFFFFFFFFFFFFFFFF AND DUP3 PUSH20 0xFFFFFFFFFFFFFFFFFFFFFFFFFFFFFFFFFFFFFFFF AND EQ ISZERO PUSH2 0x25AD JUMPI PUSH1 0x40 MLOAD PUSH32 0x8C379A000000000000000000000000000000000000000000000000000000000 DUP2 MSTORE PUSH1 0x4 ADD PUSH2 0x25A4 SWAP1 PUSH2 0x4862 JUMP JUMPDEST PUSH1 0x40 MLOAD DUP1 SWAP2 SUB SWAP1 REVERT JUMPDEST DUP1 PUSH1 0x1 PUSH1 0x0 DUP6 PUSH20 0xFFFFFFFFFFFFFFFFFFFFFFFFFFFFFFFFFFFFFFFF AND PUSH20 0xFFFFFFFFFFFFFFFFFFFFFFFFFFFFFFFFFFFFFFFF AND DUP2 MSTORE PUSH1 0x20 ADD SWAP1 DUP2 MSTORE PUSH1 0x20 ADD PUSH1 0x0 KECCAK256 PUSH1 0x0 DUP5 PUSH20 0xFFFFFFFFFFFFFFFFFFFFFFFFFFFFFFFFFFFFFFFF AND PUSH20 0xFFFFFFFFFFFFFFFFFFFFFFFFFFFFFFFFFFFFFFFF AND DUP2 MSTORE PUSH1 0x20 ADD SWAP1 DUP2 MSTORE PUSH1 0x20 ADD PUSH1 0x0 KECCAK256 DUP2 SWAP1 SSTORE POP DUP2 PUSH20 0xFFFFFFFFFFFFFFFFFFFFFFFFFFFFFFFFFFFFFFFF AND DUP4 PUSH20 0xFFFFFFFFFFFFFFFFFFFFFFFFFFFFFFFFFFFFFFFF AND PUSH32 0x8C5BE1E5EBEC7D5BD14F71427D1E84F3DD0314C0F7B2291E5B200AC8C7C3B925 DUP4 PUSH1 0x40 MLOAD PUSH2 0x268B SWAP2 SWAP1 PUSH2 0x368D JUMP JUMPDEST PUSH1 0x40 MLOAD DUP1 SWAP2 SUB SWAP1 LOG3 POP POP POP JUMP JUMPDEST PUSH1 0x0 DUP1 DUP5 TIMESTAMP PUSH2 0x26A7 SWAP2 SWAP1 PUSH2 0x3F98 JUMP JUMPDEST SWAP1 POP PUSH1 0x0 PUSH2 0x26B4 DUP3 PUSH2 0x3511 JUMP JUMPDEST SWAP1 POP PUSH1 0x0 PUSH20 0x0 PUSH4 0x6D5433E6 DUP11 PUSH1 0x5 SLOAD PUSH2 0x26E0 SWAP2 SWAP1 PUSH2 0x3F98 JUMP JUMPDEST PUSH1 0x2 PUSH1 0x40 MLOAD DUP4 PUSH4 0xFFFFFFFF AND PUSH1 0xE0 SHL DUP2 MSTORE PUSH1 0x4 ADD PUSH2 0x26FF SWAP3 SWAP2 SWAP1 PUSH2 0x48D6 JUMP JUMPDEST PUSH1 0x20 PUSH1 0x40 MLOAD DUP1 DUP4 SUB DUP2 DUP7 GAS DELEGATECALL ISZERO DUP1 ISZERO PUSH2 0x271C JUMPI RETURNDATASIZE PUSH1 0x0 DUP1 RETURNDATACOPY RETURNDATASIZE PUSH1 0x0 REVERT JUMPDEST POP POP POP POP PUSH1 0x40 MLOAD RETURNDATASIZE PUSH1 0x1F NOT PUSH1 0x1F DUP3 ADD AND DUP3 ADD DUP1 PUSH1 0x40 MSTORE POP DUP2 ADD SWAP1 PUSH2 0x2740 SWAP2 SWAP1 PUSH2 0x4914 JUMP JUMPDEST SWAP1 POP PUSH1 0x0 DUP6 PUSH2 0x3E8 PUSH2 0x2752 SWAP2 SWAP1 PUSH2 0x3FCC JUMP JUMPDEST SWAP1 POP PUSH1 0x0 PUSH2 0x2762 DUP4 DUP10 DUP13 DUP6 PUSH2 0x2273 JUMP JUMPDEST SWAP1 POP PUSH1 0x64 DUP5 PUSH1 0x64 PUSH2 0x2773 SWAP2 SWAP1 PUSH2 0x3F98 JUMP JUMPDEST DUP3 PUSH2 0x277E SWAP2 SWAP1 PUSH2 0x3C9C JUMP JUMPDEST PUSH2 0x2788 SWAP2 SWAP1 PUSH2 0x3F67 JUMP JUMPDEST SWAP6 POP POP POP POP POP POP SWAP6 SWAP5 POP POP POP POP POP JUMP JUMPDEST PUSH1 0x0 PUSH20 0xFFFFFFFFFFFFFFFFFFFFFFFFFFFFFFFFFFFFFFFF AND DUP3 PUSH20 0xFFFFFFFFFFFFFFFFFFFFFFFFFFFFFFFFFFFFFFFF AND EQ ISZERO PUSH2 0x2808 JUMPI PUSH1 0x40 MLOAD PUSH32 0x8C379A000000000000000000000000000000000000000000000000000000000 DUP2 MSTORE PUSH1 0x4 ADD PUSH2 0x27FF SWAP1 PUSH2 0x498D JUMP JUMPDEST PUSH1 0x40 MLOAD DUP1 SWAP2 SUB SWAP1 REVERT JUMPDEST PUSH2 0x2814 PUSH1 0x0 DUP4 DUP4 PUSH2 0x35F6 JUMP JUMPDEST DUP1 PUSH1 0x2 PUSH1 0x0 DUP3 DUP3 SLOAD PUSH2 0x2826 SWAP2 SWAP1 PUSH2 0x3FCC JUMP JUMPDEST SWAP3 POP POP DUP2 SWAP1 SSTORE POP DUP1 PUSH1 0x0 DUP1 DUP5 PUSH20 0xFFFFFFFFFFFFFFFFFFFFFFFFFFFFFFFFFFFFFFFF AND PUSH20 0xFFFFFFFFFFFFFFFFFFFFFFFFFFFFFFFFFFFFFFFF AND DUP2 MSTORE PUSH1 0x20 ADD SWAP1 DUP2 MSTORE PUSH1 0x20 ADD PUSH1 0x0 KECCAK256 PUSH1 0x0 DUP3 DUP3 SLOAD PUSH2 0x287B SWAP2 SWAP1 PUSH2 0x3FCC JUMP JUMPDEST SWAP3 POP POP DUP2 SWAP1 SSTORE POP DUP2 PUSH20 0xFFFFFFFFFFFFFFFFFFFFFFFFFFFFFFFFFFFFFFFF AND PUSH1 0x0 PUSH20 0xFFFFFFFFFFFFFFFFFFFFFFFFFFFFFFFFFFFFFFFF AND PUSH32 0xDDF252AD1BE2C89B69C2B068FC378DAA952BA7F163C4A11628F55A4DF523B3EF DUP4 PUSH1 0x40 MLOAD PUSH2 0x28E0 SWAP2 SWAP1 PUSH2 0x368D JUMP JUMPDEST PUSH1 0x40 MLOAD DUP1 SWAP2 SUB SWAP1 LOG3 PUSH2 0x28F4 PUSH1 0x0 DUP4 DUP4 PUSH2 0x35FB JUMP JUMPDEST POP POP JUMP JUMPDEST PUSH1 0x9 PUSH1 0x0 PUSH2 0x2904 PUSH2 0x24C5 JUMP JUMPDEST PUSH20 0xFFFFFFFFFFFFFFFFFFFFFFFFFFFFFFFFFFFFFFFF AND PUSH20 0xFFFFFFFFFFFFFFFFFFFFFFFFFFFFFFFFFFFFFFFF AND DUP2 MSTORE PUSH1 0x20 ADD SWAP1 DUP2 MSTORE PUSH1 0x20 ADD PUSH1 0x0 KECCAK256 PUSH1 0x0 DUP1 DUP3 ADD PUSH1 0x0 PUSH2 0x100 EXP DUP2 SLOAD SWAP1 PUSH20 0xFFFFFFFFFFFFFFFFFFFFFFFFFFFFFFFFFFFFFFFF MUL NOT AND SWAP1 SSTORE PUSH1 0x1 DUP3 ADD PUSH1 0x0 SWAP1 SSTORE PUSH1 0x2 DUP3 ADD PUSH1 0x0 SWAP1 SSTORE PUSH1 0x3 DUP3 ADD PUSH1 0x0 SWAP1 SSTORE PUSH1 0x4 DUP3 ADD PUSH1 0x0 SWAP1 SSTORE PUSH1 0x5 DUP3 ADD PUSH1 0x0 SWAP1 SSTORE POP POP PUSH1 0x6 PUSH1 0x0 DUP2 SLOAD DUP1 SWAP3 SWAP2 SWAP1 PUSH2 0x29A3 SWAP1 PUSH2 0x408E JUMP JUMPDEST SWAP2 SWAP1 POP SSTORE POP JUMP JUMPDEST PUSH1 0x0 PUSH2 0x29B6 DUP5 DUP5 PUSH2 0x2387 JUMP JUMPDEST SWAP1 POP PUSH32 0xFFFFFFFFFFFFFFFFFFFFFFFFFFFFFFFFFFFFFFFFFFFFFFFFFFFFFFFFFFFFFFFF DUP2 EQ PUSH2 0x2A30 JUMPI DUP2 DUP2 LT ISZERO PUSH2 0x2A22 JUMPI PUSH1 0x40 MLOAD PUSH32 0x8C379A000000000000000000000000000000000000000000000000000000000 DUP2 MSTORE PUSH1 0x4 ADD PUSH2 0x2A19 SWAP1 PUSH2 0x49F9 JUMP JUMPDEST PUSH1 0x40 MLOAD DUP1 SWAP2 SUB SWAP1 REVERT JUMPDEST PUSH2 0x2A2F DUP5 DUP5 DUP5 DUP5 SUB PUSH2 0x24CD JUMP JUMPDEST JUMPDEST POP POP POP POP JUMP JUMPDEST PUSH1 0x0 PUSH20 0xFFFFFFFFFFFFFFFFFFFFFFFFFFFFFFFFFFFFFFFF AND DUP4 PUSH20 0xFFFFFFFFFFFFFFFFFFFFFFFFFFFFFFFFFFFFFFFF AND EQ ISZERO PUSH2 0x2AA6 JUMPI PUSH1 0x40 MLOAD PUSH32 0x8C379A000000000000000000000000000000000000000000000000000000000 DUP2 MSTORE PUSH1 0x4 ADD PUSH2 0x2A9D SWAP1 PUSH2 0x4A8B JUMP JUMPDEST PUSH1 0x40 MLOAD DUP1 SWAP2 SUB SWAP1 REVERT JUMPDEST PUSH1 0x0 PUSH20 0xFFFFFFFFFFFFFFFFFFFFFFFFFFFFFFFFFFFFFFFF AND DUP3 PUSH20 0xFFFFFFFFFFFFFFFFFFFFFFFFFFFFFFFFFFFFFFFF AND EQ ISZERO PUSH2 0x2B16 JUMPI PUSH1 0x40 MLOAD PUSH32 0x8C379A000000000000000000000000000000000000000000000000000000000 DUP2 MSTORE PUSH1 0x4 ADD PUSH2 0x2B0D SWAP1 PUSH2 0x4B1D JUMP JUMPDEST PUSH1 0x40 MLOAD DUP1 SWAP2 SUB SWAP1 REVERT JUMPDEST PUSH2 0x2B21 DUP4 DUP4 DUP4 PUSH2 0x35F6 JUMP JUMPDEST PUSH1 0x0 DUP1 PUSH1 0x0 DUP6 PUSH20 0xFFFFFFFFFFFFFFFFFFFFFFFFFFFFFFFFFFFFFFFF AND PUSH20 0xFFFFFFFFFFFFFFFFFFFFFFFFFFFFFFFFFFFFFFFF AND DUP2 MSTORE PUSH1 0x20 ADD SWAP1 DUP2 MSTORE PUSH1 0x20 ADD PUSH1 0x0 KECCAK256 SLOAD SWAP1 POP DUP2 DUP2 LT ISZERO PUSH2 0x2BA7 JUMPI PUSH1 0x40 MLOAD PUSH32 0x8C379A000000000000000000000000000000000000000000000000000000000 DUP2 MSTORE PUSH1 0x4 ADD PUSH2 0x2B9E SWAP1 PUSH2 0x4BAF JUMP JUMPDEST PUSH1 0x40 MLOAD DUP1 SWAP2 SUB SWAP1 REVERT JUMPDEST DUP2 DUP2 SUB PUSH1 0x0 DUP1 DUP7 PUSH20 0xFFFFFFFFFFFFFFFFFFFFFFFFFFFFFFFFFFFFFFFF AND PUSH20 0xFFFFFFFFFFFFFFFFFFFFFFFFFFFFFFFFFFFFFFFF AND DUP2 MSTORE PUSH1 0x20 ADD SWAP1 DUP2 MSTORE PUSH1 0x20 ADD PUSH1 0x0 KECCAK256 DUP2 SWAP1 SSTORE POP DUP2 PUSH1 0x0 DUP1 DUP6 PUSH20 0xFFFFFFFFFFFFFFFFFFFFFFFFFFFFFFFFFFFFFFFF AND PUSH20 0xFFFFFFFFFFFFFFFFFFFFFFFFFFFFFFFFFFFFFFFF AND DUP2 MSTORE PUSH1 0x20 ADD SWAP1 DUP2 MSTORE PUSH1 0x20 ADD PUSH1 0x0 KECCAK256 PUSH1 0x0 DUP3 DUP3 SLOAD PUSH2 0x2C3A SWAP2 SWAP1 PUSH2 0x3FCC JUMP JUMPDEST SWAP3 POP POP DUP2 SWAP1 SSTORE POP DUP3 PUSH20 0xFFFFFFFFFFFFFFFFFFFFFFFFFFFFFFFFFFFFFFFF AND DUP5 PUSH20 0xFFFFFFFFFFFFFFFFFFFFFFFFFFFFFFFFFFFFFFFF AND PUSH32 0xDDF252AD1BE2C89B69C2B068FC378DAA952BA7F163C4A11628F55A4DF523B3EF DUP5 PUSH1 0x40 MLOAD PUSH2 0x2C9E SWAP2 SWAP1 PUSH2 0x368D JUMP JUMPDEST PUSH1 0x40 MLOAD DUP1 SWAP2 SUB SWAP1 LOG3 PUSH2 0x2CB1 DUP5 DUP5 DUP5 PUSH2 0x35FB JUMP JUMPDEST POP POP POP POP JUMP JUMPDEST PUSH1 0x0 DUP3 TIMESTAMP GT ISZERO PUSH2 0x2D0F JUMPI PUSH1 0x0 PUSH2 0x16D PUSH3 0xF4240 DUP7 DUP6 PUSH2 0x2CD6 SWAP2 SWAP1 PUSH2 0x3C9C JUMP JUMPDEST PUSH2 0x2CE0 SWAP2 SWAP1 PUSH2 0x3C9C JUMP JUMPDEST PUSH2 0x2CEA SWAP2 SWAP1 PUSH2 0x3F67 JUMP JUMPDEST SWAP1 POP PUSH4 0x5F5E100 DUP2 DUP8 PUSH2 0x2CFD SWAP2 SWAP1 PUSH2 0x3C9C JUMP JUMPDEST PUSH2 0x2D07 SWAP2 SWAP1 PUSH2 0x3F67 JUMP JUMPDEST SWAP2 POP POP PUSH2 0x2D14 JUMP JUMPDEST PUSH1 0x0 SWAP1 POP JUMPDEST SWAP5 SWAP4 POP POP POP POP JUMP JUMPDEST PUSH1 0x0 PUSH2 0x1388 PUSH1 0x5 SLOAD GT ISZERO PUSH2 0x2E37 JUMPI PUSH1 0x0 PUSH2 0x2D6B PUSH2 0x2D63 PUSH2 0x2D3C PUSH1 0xF PUSH2 0x32B4 JUMP JUMPDEST PUSH2 0x2D52 PUSH2 0x2D4A PUSH1 0x5 SLOAD PUSH2 0x32B4 JUMP JUMPDEST PUSH1 0xF SIGNEXTEND PUSH2 0x32D7 JUMP JUMPDEST PUSH1 0xF SIGNEXTEND PUSH2 0x33FB SWAP1 SWAP2 SWAP1 PUSH4 0xFFFFFFFF AND JUMP JUMPDEST PUSH1 0xF SIGNEXTEND PUSH2 0x34F0 JUMP JUMPDEST PUSH8 0xFFFFFFFFFFFFFFFF AND SWAP1 POP PUSH1 0x0 PUSH3 0x15180 DUP3 PUSH2 0x2D88 SWAP2 SWAP1 PUSH2 0x3C9C JUMP JUMPDEST PUSH3 0x15180 PUSH1 0x64 PUSH2 0x2D98 SWAP2 SWAP1 PUSH2 0x3C9C JUMP JUMPDEST PUSH2 0x2DA2 SWAP2 SWAP1 PUSH2 0x3FCC JUMP JUMPDEST SWAP1 POP PUSH20 0x0 PUSH4 0x7AE2B5C7 DUP3 PUSH3 0x15180 PUSH2 0x3E8 PUSH2 0x2DD0 SWAP2 SWAP1 PUSH2 0x3C9C JUMP JUMPDEST PUSH1 0x40 MLOAD DUP4 PUSH4 0xFFFFFFFF AND PUSH1 0xE0 SHL DUP2 MSTORE PUSH1 0x4 ADD PUSH2 0x2DED SWAP3 SWAP2 SWAP1 PUSH2 0x4BCF JUMP JUMPDEST PUSH1 0x20 PUSH1 0x40 MLOAD DUP1 DUP4 SUB DUP2 DUP7 GAS DELEGATECALL ISZERO DUP1 ISZERO PUSH2 0x2E0A JUMPI RETURNDATASIZE PUSH1 0x0 DUP1 RETURNDATACOPY RETURNDATASIZE PUSH1 0x0 REVERT JUMPDEST POP POP POP POP PUSH1 0x40 MLOAD RETURNDATASIZE PUSH1 0x1F NOT PUSH1 0x1F DUP3 ADD AND DUP3 ADD DUP1 PUSH1 0x40 MSTORE POP DUP2 ADD SWAP1 PUSH2 0x2E2E SWAP2 SWAP1 PUSH2 0x4914 JUMP JUMPDEST SWAP3 POP POP POP PUSH2 0x2E4A JUMP JUMPDEST PUSH3 0x15180 PUSH1 0x64 PUSH2 0x2E47 SWAP2 SWAP1 PUSH2 0x3C9C JUMP JUMPDEST SWAP1 POP JUMPDEST SWAP1 JUMP JUMPDEST PUSH1 0x40 MLOAD DUP1 PUSH1 0x80 ADD PUSH1 0x40 MSTORE DUP1 DUP3 DUP2 MSTORE PUSH1 0x20 ADD PUSH3 0x15180 DUP4 PUSH2 0x2E6D SWAP2 SWAP1 PUSH2 0x3C9C JUMP JUMPDEST TIMESTAMP PUSH2 0x2E78 SWAP2 SWAP1 PUSH2 0x3FCC JUMP JUMPDEST DUP2 MSTORE PUSH1 0x20 ADD DUP4 DUP2 MSTORE PUSH1 0x20 ADD PUSH2 0x2E8B PUSH2 0x3154 JUMP JUMPDEST DUP2 MSTORE POP PUSH1 0xA PUSH1 0x0 PUSH2 0x2E9A PUSH2 0x24C5 JUMP JUMPDEST PUSH20 0xFFFFFFFFFFFFFFFFFFFFFFFFFFFFFFFFFFFFFFFF AND PUSH20 0xFFFFFFFFFFFFFFFFFFFFFFFFFFFFFFFFFFFFFFFF AND DUP2 MSTORE PUSH1 0x20 ADD SWAP1 DUP2 MSTORE PUSH1 0x20 ADD PUSH1 0x0 KECCAK256 PUSH1 0x0 DUP3 ADD MLOAD DUP2 PUSH1 0x0 ADD SSTORE PUSH1 0x20 DUP3 ADD MLOAD DUP2 PUSH1 0x1 ADD SSTORE PUSH1 0x40 DUP3 ADD MLOAD DUP2 PUSH1 0x2 ADD SSTORE PUSH1 0x60 DUP3 ADD MLOAD DUP2 PUSH1 0x3 ADD SSTORE SWAP1 POP POP PUSH1 0x7 PUSH1 0x0 DUP2 SLOAD DUP1 SWAP3 SWAP2 SWAP1 PUSH2 0x2F12 SWAP1 PUSH2 0x4683 JUMP JUMPDEST SWAP2 SWAP1 POP SSTORE POP DUP2 PUSH1 0x8 PUSH1 0x0 DUP3 DUP3 SLOAD PUSH2 0x2F29 SWAP2 SWAP1 PUSH2 0x3FCC JUMP JUMPDEST SWAP3 POP POP DUP2 SWAP1 SSTORE POP POP POP JUMP JUMPDEST PUSH1 0x0 PUSH20 0xFFFFFFFFFFFFFFFFFFFFFFFFFFFFFFFFFFFFFFFF AND DUP3 PUSH20 0xFFFFFFFFFFFFFFFFFFFFFFFFFFFFFFFFFFFFFFFF AND EQ ISZERO PUSH2 0x2FA4 JUMPI PUSH1 0x40 MLOAD PUSH32 0x8C379A000000000000000000000000000000000000000000000000000000000 DUP2 MSTORE PUSH1 0x4 ADD PUSH2 0x2F9B SWAP1 PUSH2 0x4C6A JUMP JUMPDEST PUSH1 0x40 MLOAD DUP1 SWAP2 SUB SWAP1 REVERT JUMPDEST PUSH2 0x2FB0 DUP3 PUSH1 0x0 DUP4 PUSH2 0x35F6 JUMP JUMPDEST PUSH1 0x0 DUP1 PUSH1 0x0 DUP5 PUSH20 0xFFFFFFFFFFFFFFFFFFFFFFFFFFFFFFFFFFFFFFFF AND PUSH20 0xFFFFFFFFFFFFFFFFFFFFFFFFFFFFFFFFFFFFFFFF AND DUP2 MSTORE PUSH1 0x20 ADD SWAP1 DUP2 MSTORE PUSH1 0x20 ADD PUSH1 0x0 KECCAK256 SLOAD SWAP1 POP DUP2 DUP2 LT ISZERO PUSH2 0x3036 JUMPI PUSH1 0x40 MLOAD PUSH32 0x8C379A000000000000000000000000000000000000000000000000000000000 DUP2 MSTORE PUSH1 0x4 ADD PUSH2 0x302D SWAP1 PUSH2 0x4CFC JUMP JUMPDEST PUSH1 0x40 MLOAD DUP1 SWAP2 SUB SWAP1 REVERT JUMPDEST DUP2 DUP2 SUB PUSH1 0x0 DUP1 DUP6 PUSH20 0xFFFFFFFFFFFFFFFFFFFFFFFFFFFFFFFFFFFFFFFF AND PUSH20 0xFFFFFFFFFFFFFFFFFFFFFFFFFFFFFFFFFFFFFFFF AND DUP2 MSTORE PUSH1 0x20 ADD SWAP1 DUP2 MSTORE PUSH1 0x20 ADD PUSH1 0x0 KECCAK256 DUP2 SWAP1 SSTORE POP DUP2 PUSH1 0x2 PUSH1 0x0 DUP3 DUP3 SLOAD PUSH2 0x308D SWAP2 SWAP1 PUSH2 0x3F98 JUMP JUMPDEST SWAP3 POP POP DUP2 SWAP1 SSTORE POP PUSH1 0x0 PUSH20 0xFFFFFFFFFFFFFFFFFFFFFFFFFFFFFFFFFFFFFFFF AND DUP4 PUSH20 0xFFFFFFFFFFFFFFFFFFFFFFFFFFFFFFFFFFFFFFFF AND PUSH32 0xDDF252AD1BE2C89B69C2B068FC378DAA952BA7F163C4A11628F55A4DF523B3EF DUP5 PUSH1 0x40 MLOAD PUSH2 0x30F2 SWAP2 SWAP1 PUSH2 0x368D JUMP JUMPDEST PUSH1 0x40 MLOAD DUP1 SWAP2 SUB SWAP1 LOG3 PUSH2 0x3106 DUP4 PUSH1 0x0 DUP5 PUSH2 0x35FB JUMP JUMPDEST POP POP POP JUMP JUMPDEST PUSH1 0x0 DUP1 PUSH3 0x186A0 PUSH1 0x5 SLOAD PUSH1 0x1 PUSH2 0x3121 SWAP2 SWAP1 PUSH2 0x3C9C JUMP JUMPDEST PUSH2 0x312B SWAP2 SWAP1 PUSH2 0x3F67 JUMP JUMPDEST SWAP1 POP PUSH1 0x64 DUP2 GT ISZERO PUSH2 0x3140 JUMPI PUSH1 0x0 SWAP2 POP POP PUSH2 0x3151 JUMP JUMPDEST DUP1 PUSH1 0x64 PUSH2 0x314D SWAP2 SWAP1 PUSH2 0x3F98 JUMP JUMPDEST SWAP2 POP POP JUMPDEST SWAP1 JUMP JUMPDEST PUSH1 0x0 DUP1 PUSH1 0x5A PUSH3 0x15180 PUSH2 0x3167 SWAP2 SWAP1 PUSH2 0x3C9C JUMP JUMPDEST PUSH32 0x0 TIMESTAMP PUSH2 0x3193 SWAP2 SWAP1 PUSH2 0x3F98 JUMP JUMPDEST PUSH2 0x319D SWAP2 SWAP1 PUSH2 0x3F67 JUMP JUMPDEST SWAP1 POP DUP1 PUSH1 0x2 PUSH1 0x14 PUSH2 0x31AE SWAP2 SWAP1 PUSH2 0x3F98 JUMP JUMPDEST LT ISZERO PUSH2 0x31BE JUMPI PUSH1 0x2 SWAP2 POP POP PUSH2 0x31CF JUMP JUMPDEST DUP1 PUSH1 0x14 PUSH2 0x31CB SWAP2 SWAP1 PUSH2 0x3F98 JUMP JUMPDEST SWAP2 POP POP JUMPDEST SWAP1 JUMP JUMPDEST PUSH1 0x0 DUP1 PUSH3 0x15180 PUSH32 0x0 TIMESTAMP PUSH2 0x3205 SWAP2 SWAP1 PUSH2 0x3F98 JUMP JUMPDEST PUSH2 0x320F SWAP2 SWAP1 PUSH2 0x3F67 JUMP JUMPDEST SWAP1 POP PUSH2 0xBB8 DUP2 LT ISZERO PUSH2 0x32AB JUMPI PUSH20 0x0 PUSH4 0x6D5433E6 DUP3 PUSH2 0xBB8 PUSH2 0x3243 SWAP2 SWAP1 PUSH2 0x3F98 JUMP JUMPDEST PUSH1 0x1 PUSH1 0x40 MLOAD DUP4 PUSH4 0xFFFFFFFF AND PUSH1 0xE0 SHL DUP2 MSTORE PUSH1 0x4 ADD PUSH2 0x3262 SWAP3 SWAP2 SWAP1 PUSH2 0x4BCF JUMP JUMPDEST PUSH1 0x20 PUSH1 0x40 MLOAD DUP1 DUP4 SUB DUP2 DUP7 GAS DELEGATECALL ISZERO DUP1 ISZERO PUSH2 0x327F JUMPI RETURNDATASIZE PUSH1 0x0 DUP1 RETURNDATACOPY RETURNDATASIZE PUSH1 0x0 REVERT JUMPDEST POP POP POP POP PUSH1 0x40 MLOAD RETURNDATASIZE PUSH1 0x1F NOT PUSH1 0x1F DUP3 ADD AND DUP3 ADD DUP1 PUSH1 0x40 MSTORE POP DUP2 ADD SWAP1 PUSH2 0x32A3 SWAP2 SWAP1 PUSH2 0x4914 JUMP JUMPDEST SWAP2 POP POP PUSH2 0x32B1 JUMP JUMPDEST PUSH1 0x1 SWAP2 POP POP JUMPDEST SWAP1 JUMP JUMPDEST PUSH1 0x0 PUSH8 0x7FFFFFFFFFFFFFFF DUP3 GT ISZERO PUSH2 0x32CB JUMPI PUSH1 0x0 DUP1 REVERT JUMPDEST PUSH1 0x40 DUP3 SWAP1 SHL SWAP1 POP SWAP2 SWAP1 POP JUMP JUMPDEST PUSH1 0x0 DUP1 DUP3 PUSH1 0xF SIGNEXTEND SGT PUSH2 0x32E8 JUMPI PUSH1 0x0 DUP1 REVERT JUMPDEST PUSH1 0x0 DUP1 DUP4 PUSH1 0xF SIGNEXTEND SWAP1 POP PUSH9 0x10000000000000000 DUP2 SLT PUSH2 0x330F JUMPI PUSH1 0x40 DUP2 SWAP1 SAR SWAP1 POP PUSH1 0x40 DUP3 ADD SWAP2 POP JUMPDEST PUSH5 0x100000000 DUP2 SLT PUSH2 0x3329 JUMPI PUSH1 0x20 DUP2 SWAP1 SAR SWAP1 POP PUSH1 0x20 DUP3 ADD SWAP2 POP JUMPDEST PUSH3 0x10000 DUP2 SLT PUSH2 0x3341 JUMPI PUSH1 0x10 DUP2 SWAP1 SAR SWAP1 POP PUSH1 0x10 DUP3 ADD SWAP2 POP JUMPDEST PUSH2 0x100 DUP2 SLT PUSH2 0x3358 JUMPI PUSH1 0x8 DUP2 SWAP1 SAR SWAP1 POP PUSH1 0x8 DUP3 ADD SWAP2 POP JUMPDEST PUSH1 0x10 DUP2 SLT PUSH2 0x336E JUMPI PUSH1 0x4 DUP2 SWAP1 SAR SWAP1 POP PUSH1 0x4 DUP3 ADD SWAP2 POP JUMPDEST PUSH1 0x4 DUP2 SLT PUSH2 0x3384 JUMPI PUSH1 0x2 DUP2 SWAP1 SAR SWAP1 POP PUSH1 0x2 DUP3 ADD SWAP2 POP JUMPDEST PUSH1 0x2 DUP2 SLT PUSH2 0x3393 JUMPI PUSH1 0x1 DUP3 ADD SWAP2 POP JUMPDEST PUSH1 0x0 PUSH1 0x40 DUP1 DUP5 SUB SWAP1 SHL SWAP1 POP PUSH1 0x0 DUP4 PUSH1 0x7F SUB DUP7 PUSH1 0xF SIGNEXTEND SWAP1 SHL SWAP1 POP PUSH1 0x0 PUSH8 0x8000000000000000 SWAP1 POP JUMPDEST PUSH1 0x0 DUP2 SGT ISZERO PUSH2 0x33EE JUMPI DUP2 DUP3 MUL SWAP2 POP PUSH1 0x0 PUSH1 0xFF DUP4 SWAP1 SHR SWAP1 POP DUP1 PUSH1 0x7F ADD DUP4 SWAP1 SHR SWAP3 POP DUP1 DUP3 MUL DUP5 ADD SWAP4 POP POP PUSH1 0x1 DUP2 SWAP1 SAR SWAP1 POP PUSH2 0x33BA JUMP JUMPDEST POP DUP2 SWAP5 POP POP POP POP POP SWAP2 SWAP1 POP JUMP JUMPDEST PUSH1 0x0 DUP1 PUSH1 0x40 DUP4 PUSH1 0xF SIGNEXTEND DUP6 PUSH1 0xF SIGNEXTEND MUL SWAP1 SAR SWAP1 POP PUSH32 0xFFFFFFFFFFFFFFFFFFFFFFFFFFFFFFFF80000000000000000000000000000000 PUSH1 0xF SIGNEXTEND DUP2 SLT ISZERO DUP1 ISZERO PUSH2 0x3453 JUMPI POP PUSH16 0x7FFFFFFFFFFFFFFFFFFFFFFFFFFFFFFF PUSH1 0xF SIGNEXTEND DUP2 SGT ISZERO JUMPDEST PUSH2 0x345C JUMPI PUSH1 0x0 DUP1 REVERT JUMPDEST DUP1 SWAP2 POP POP SWAP3 SWAP2 POP POP JUMP JUMPDEST PUSH1 0x0 DUP1 DUP3 PUSH1 0xF SIGNEXTEND EQ ISZERO PUSH2 0x3478 JUMPI PUSH1 0x0 DUP1 REVERT JUMPDEST PUSH1 0x0 DUP3 PUSH1 0xF SIGNEXTEND PUSH1 0x40 DUP6 PUSH1 0xF SIGNEXTEND SWAP1 SHL DUP2 PUSH2 0x3494 JUMPI PUSH2 0x3493 PUSH2 0x3F38 JUMP JUMPDEST JUMPDEST SDIV SWAP1 POP PUSH32 0xFFFFFFFFFFFFFFFFFFFFFFFFFFFFFFFF80000000000000000000000000000000 PUSH1 0xF SIGNEXTEND DUP2 SLT ISZERO DUP1 ISZERO PUSH2 0x34DD JUMPI POP PUSH16 0x7FFFFFFFFFFFFFFFFFFFFFFFFFFFFFFF PUSH1 0xF SIGNEXTEND DUP2 SGT ISZERO JUMPDEST PUSH2 0x34E6 JUMPI PUSH1 0x0 DUP1 REVERT JUMPDEST DUP1 SWAP2 POP POP SWAP3 SWAP2 POP POP JUMP JUMPDEST PUSH1 0x0 DUP1 DUP3 PUSH1 0xF SIGNEXTEND SLT ISZERO PUSH2 0x3502 JUMPI PUSH1 0x0 DUP1 REVERT JUMPDEST PUSH1 0x40 DUP3 PUSH1 0xF SIGNEXTEND SWAP1 SAR SWAP1 POP SWAP2 SWAP1 POP JUMP JUMPDEST PUSH1 0x0 DUP1 PUSH3 0x15180 DUP4 PUSH2 0x3523 SWAP2 SWAP1 PUSH2 0x3F67 JUMP JUMPDEST SWAP1 POP PUSH1 0x1 PUSH1 0x7 PUSH2 0x3533 SWAP2 SWAP1 PUSH2 0x3F98 JUMP JUMPDEST DUP2 GT ISZERO PUSH2 0x3544 JUMPI PUSH1 0x63 SWAP2 POP POP PUSH2 0x35F1 JUMP JUMPDEST PUSH1 0x0 PUSH1 0x1 PUSH1 0x7 PUSH1 0x3 DUP5 PUSH2 0x3557 SWAP2 SWAP1 PUSH2 0x3FCC JUMP JUMPDEST PUSH1 0x1 SWAP1 SHL PUSH2 0x3565 SWAP2 SWAP1 PUSH2 0x3F67 JUMP JUMPDEST PUSH2 0x356F SWAP2 SWAP1 PUSH2 0x3F98 JUMP JUMPDEST SWAP1 POP PUSH20 0x0 PUSH4 0x7AE2B5C7 DUP3 PUSH1 0x63 PUSH1 0x40 MLOAD DUP4 PUSH4 0xFFFFFFFF AND PUSH1 0xE0 SHL DUP2 MSTORE PUSH1 0x4 ADD PUSH2 0x35AB SWAP3 SWAP2 SWAP1 PUSH2 0x4BCF JUMP JUMPDEST PUSH1 0x20 PUSH1 0x40 MLOAD DUP1 DUP4 SUB DUP2 DUP7 GAS DELEGATECALL ISZERO DUP1 ISZERO PUSH2 0x35C8 JUMPI RETURNDATASIZE PUSH1 0x0 DUP1 RETURNDATACOPY RETURNDATASIZE PUSH1 0x0 REVERT JUMPDEST POP POP POP POP PUSH1 0x40 MLOAD RETURNDATASIZE PUSH1 0x1F NOT PUSH1 0x1F DUP3 ADD AND DUP3 ADD DUP1 PUSH1 0x40 MSTORE POP DUP2 ADD SWAP1 PUSH2 0x35EC SWAP2 SWAP1 PUSH2 0x4914 JUMP JUMPDEST SWAP3 POP POP POP JUMPDEST SWAP2 SWAP1 POP JUMP JUMPDEST POP POP POP JUMP JUMPDEST POP POP POP JUMP JUMPDEST PUSH1 0x40 MLOAD DUP1 PUSH1 0x80 ADD PUSH1 0x40 MSTORE DUP1 PUSH1 0x0 DUP2 MSTORE PUSH1 0x20 ADD PUSH1 0x0 DUP2 MSTORE PUSH1 0x20 ADD PUSH1 0x0 DUP2 MSTORE PUSH1 0x20 ADD PUSH1 0x0 DUP2 MSTORE POP SWAP1 JUMP JUMPDEST PUSH1 0x40 MLOAD DUP1 PUSH1 0xC0 ADD PUSH1 0x40 MSTORE DUP1 PUSH1 0x0 PUSH20 0xFFFFFFFFFFFFFFFFFFFFFFFFFFFFFFFFFFFFFFFF AND DUP2 MSTORE PUSH1 0x20 ADD PUSH1 0x0 DUP2 MSTORE PUSH1 0x20 ADD PUSH1 0x0 DUP2 MSTORE PUSH1 0x20 ADD PUSH1 0x0 DUP2 MSTORE PUSH1 0x20 ADD PUSH1 0x0 DUP2 MSTORE PUSH1 0x20 ADD PUSH1 0x0 DUP2 MSTORE POP SWAP1 JUMP JUMPDEST PUSH1 0x0 DUP2 SWAP1 POP SWAP2 SWAP1 POP JUMP JUMPDEST PUSH2 0x3687 DUP2 PUSH2 0x3674 JUMP JUMPDEST DUP3 MSTORE POP POP JUMP JUMPDEST PUSH1 0x0 PUSH1 0x20 DUP3 ADD SWAP1 POP PUSH2 0x36A2 PUSH1 0x0 DUP4 ADD DUP5 PUSH2 0x367E JUMP JUMPDEST SWAP3 SWAP2 POP POP JUMP JUMPDEST PUSH1 0x0 DUP2 MLOAD SWAP1 POP SWAP2 SWAP1 POP JUMP JUMPDEST PUSH1 0x0 DUP3 DUP3 MSTORE PUSH1 0x20 DUP3 ADD SWAP1 POP SWAP3 SWAP2 POP POP JUMP JUMPDEST PUSH1 0x0 JUMPDEST DUP4 DUP2 LT ISZERO PUSH2 0x36E2 JUMPI DUP1 DUP3 ADD MLOAD DUP2 DUP5 ADD MSTORE PUSH1 0x20 DUP2 ADD SWAP1 POP PUSH2 0x36C7 JUMP JUMPDEST DUP4 DUP2 GT ISZERO PUSH2 0x36F1 JUMPI PUSH1 0x0 DUP5 DUP5 ADD MSTORE JUMPDEST POP POP POP POP JUMP JUMPDEST PUSH1 0x0 PUSH1 0x1F NOT PUSH1 0x1F DUP4 ADD AND SWAP1 POP SWAP2 SWAP1 POP JUMP JUMPDEST PUSH1 0x0 PUSH2 0x3713 DUP3 PUSH2 0x36A8 JUMP JUMPDEST PUSH2 0x371D DUP2 DUP6 PUSH2 0x36B3 JUMP JUMPDEST SWAP4 POP PUSH2 0x372D DUP2 DUP6 PUSH1 0x20 DUP7 ADD PUSH2 0x36C4 JUMP JUMPDEST PUSH2 0x3736 DUP2 PUSH2 0x36F7 JUMP JUMPDEST DUP5 ADD SWAP2 POP POP SWAP3 SWAP2 POP POP JUMP JUMPDEST PUSH1 0x0 PUSH1 0x20 DUP3 ADD SWAP1 POP DUP2 DUP2 SUB PUSH1 0x0 DUP4 ADD MSTORE PUSH2 0x375B DUP2 DUP5 PUSH2 0x3708 JUMP JUMPDEST SWAP1 POP SWAP3 SWAP2 POP POP JUMP JUMPDEST PUSH1 0x0 DUP1 REVERT JUMPDEST PUSH1 0x0 PUSH20 0xFFFFFFFFFFFFFFFFFFFFFFFFFFFFFFFFFFFFFFFF DUP3 AND SWAP1 POP SWAP2 SWAP1 POP JUMP JUMPDEST PUSH1 0x0 PUSH2 0x3793 DUP3 PUSH2 0x3768 JUMP JUMPDEST SWAP1 POP SWAP2 SWAP1 POP JUMP JUMPDEST PUSH2 0x37A3 DUP2 PUSH2 0x3788 JUMP JUMPDEST DUP2 EQ PUSH2 0x37AE JUMPI PUSH1 0x0 DUP1 REVERT JUMPDEST POP JUMP JUMPDEST PUSH1 0x0 DUP2 CALLDATALOAD SWAP1 POP PUSH2 0x37C0 DUP2 PUSH2 0x379A JUMP JUMPDEST SWAP3 SWAP2 POP POP JUMP JUMPDEST PUSH2 0x37CF DUP2 PUSH2 0x3674 JUMP JUMPDEST DUP2 EQ PUSH2 0x37DA JUMPI PUSH1 0x0 DUP1 REVERT JUMPDEST POP JUMP JUMPDEST PUSH1 0x0 DUP2 CALLDATALOAD SWAP1 POP PUSH2 0x37EC DUP2 PUSH2 0x37C6 JUMP JUMPDEST SWAP3 SWAP2 POP POP JUMP JUMPDEST PUSH1 0x0 DUP1 PUSH1 0x40 DUP4 DUP6 SUB SLT ISZERO PUSH2 0x3809 JUMPI PUSH2 0x3808 PUSH2 0x3763 JUMP JUMPDEST JUMPDEST PUSH1 0x0 PUSH2 0x3817 DUP6 DUP3 DUP7 ADD PUSH2 0x37B1 JUMP JUMPDEST SWAP3 POP POP PUSH1 0x20 PUSH2 0x3828 DUP6 DUP3 DUP7 ADD PUSH2 0x37DD JUMP JUMPDEST SWAP2 POP POP SWAP3 POP SWAP3 SWAP1 POP JUMP JUMPDEST PUSH1 0x0 DUP2 ISZERO ISZERO SWAP1 POP SWAP2 SWAP1 POP JUMP JUMPDEST PUSH2 0x3847 DUP2 PUSH2 0x3832 JUMP JUMPDEST DUP3 MSTORE POP POP JUMP JUMPDEST PUSH1 0x0 PUSH1 0x20 DUP3 ADD SWAP1 POP PUSH2 0x3862 PUSH1 0x0 DUP4 ADD DUP5 PUSH2 0x383E JUMP JUMPDEST SWAP3 SWAP2 POP POP JUMP JUMPDEST PUSH2 0x3871 DUP2 PUSH2 0x3674 JUMP JUMPDEST DUP3 MSTORE POP POP JUMP JUMPDEST PUSH1 0x80 DUP3 ADD PUSH1 0x0 DUP3 ADD MLOAD PUSH2 0x388D PUSH1 0x0 DUP6 ADD DUP3 PUSH2 0x3868 JUMP JUMPDEST POP PUSH1 0x20 DUP3 ADD MLOAD PUSH2 0x38A0 PUSH1 0x20 DUP6 ADD DUP3 PUSH2 0x3868 JUMP JUMPDEST POP PUSH1 0x40 DUP3 ADD MLOAD PUSH2 0x38B3 PUSH1 0x40 DUP6 ADD DUP3 PUSH2 0x3868 JUMP JUMPDEST POP PUSH1 0x60 DUP3 ADD MLOAD PUSH2 0x38C6 PUSH1 0x60 DUP6 ADD DUP3 PUSH2 0x3868 JUMP JUMPDEST POP POP POP POP JUMP JUMPDEST PUSH1 0x0 PUSH1 0x80 DUP3 ADD SWAP1 POP PUSH2 0x38E1 PUSH1 0x0 DUP4 ADD DUP5 PUSH2 0x3877 JUMP JUMPDEST SWAP3 SWAP2 POP POP JUMP JUMPDEST PUSH1 0x0 DUP1 PUSH1 0x0 PUSH1 0x60 DUP5 DUP7 SUB SLT ISZERO PUSH2 0x3900 JUMPI PUSH2 0x38FF PUSH2 0x3763 JUMP JUMPDEST JUMPDEST PUSH1 0x0 PUSH2 0x390E DUP7 DUP3 DUP8 ADD PUSH2 0x37B1 JUMP JUMPDEST SWAP4 POP POP PUSH1 0x20 PUSH2 0x391F DUP7 DUP3 DUP8 ADD PUSH2 0x37B1 JUMP JUMPDEST SWAP3 POP POP PUSH1 0x40 PUSH2 0x3930 DUP7 DUP3 DUP8 ADD PUSH2 0x37DD JUMP JUMPDEST SWAP2 POP POP SWAP3 POP SWAP3 POP SWAP3 JUMP JUMPDEST PUSH1 0x0 PUSH1 0xFF DUP3 AND SWAP1 POP SWAP2 SWAP1 POP JUMP JUMPDEST PUSH2 0x3950 DUP2 PUSH2 0x393A JUMP JUMPDEST DUP3 MSTORE POP POP JUMP JUMPDEST PUSH1 0x0 PUSH1 0x20 DUP3 ADD SWAP1 POP PUSH2 0x396B PUSH1 0x0 DUP4 ADD DUP5 PUSH2 0x3947 JUMP JUMPDEST SWAP3 SWAP2 POP POP JUMP JUMPDEST PUSH1 0x0 DUP1 PUSH1 0x40 DUP4 DUP6 SUB SLT ISZERO PUSH2 0x3988 JUMPI PUSH2 0x3987 PUSH2 0x3763 JUMP JUMPDEST JUMPDEST PUSH1 0x0 PUSH2 0x3996 DUP6 DUP3 DUP7 ADD PUSH2 0x37DD JUMP JUMPDEST SWAP3 POP POP PUSH1 0x20 PUSH2 0x39A7 DUP6 DUP3 DUP7 ADD PUSH2 0x37DD JUMP JUMPDEST SWAP2 POP POP SWAP3 POP SWAP3 SWAP1 POP JUMP JUMPDEST PUSH2 0x39BA DUP2 PUSH2 0x3788 JUMP JUMPDEST DUP3 MSTORE POP POP JUMP JUMPDEST PUSH1 0xC0 DUP3 ADD PUSH1 0x0 DUP3 ADD MLOAD PUSH2 0x39D6 PUSH1 0x0 DUP6 ADD DUP3 PUSH2 0x39B1 JUMP JUMPDEST POP PUSH1 0x20 DUP3 ADD MLOAD PUSH2 0x39E9 PUSH1 0x20 DUP6 ADD DUP3 PUSH2 0x3868 JUMP JUMPDEST POP PUSH1 0x40 DUP3 ADD MLOAD PUSH2 0x39FC PUSH1 0x40 DUP6 ADD DUP3 PUSH2 0x3868 JUMP JUMPDEST POP PUSH1 0x60 DUP3 ADD MLOAD PUSH2 0x3A0F PUSH1 0x60 DUP6 ADD DUP3 PUSH2 0x3868 JUMP JUMPDEST POP PUSH1 0x80 DUP3 ADD MLOAD PUSH2 0x3A22 PUSH1 0x80 DUP6 ADD DUP3 PUSH2 0x3868 JUMP JUMPDEST POP PUSH1 0xA0 DUP3 ADD MLOAD PUSH2 0x3A35 PUSH1 0xA0 DUP6 ADD DUP3 PUSH2 0x3868 JUMP JUMPDEST POP POP POP POP JUMP JUMPDEST PUSH1 0x0 PUSH1 0xC0 DUP3 ADD SWAP1 POP PUSH2 0x3A50 PUSH1 0x0 DUP4 ADD DUP5 PUSH2 0x39C0 JUMP JUMPDEST SWAP3 SWAP2 POP POP JUMP JUMPDEST PUSH1 0x0 PUSH1 0x20 DUP3 DUP5 SUB SLT ISZERO PUSH2 0x3A6C JUMPI PUSH2 0x3A6B PUSH2 0x3763 JUMP JUMPDEST JUMPDEST PUSH1 0x0 PUSH2 0x3A7A DUP5 DUP3 DUP6 ADD PUSH2 0x37B1 JUMP JUMPDEST SWAP2 POP POP SWAP3 SWAP2 POP POP JUMP JUMPDEST PUSH1 0x0 PUSH1 0x80 DUP3 ADD SWAP1 POP PUSH2 0x3A98 PUSH1 0x0 DUP4 ADD DUP8 PUSH2 0x367E JUMP JUMPDEST PUSH2 0x3AA5 PUSH1 0x20 DUP4 ADD DUP7 PUSH2 0x367E JUMP JUMPDEST PUSH2 0x3AB2 PUSH1 0x40 DUP4 ADD DUP6 PUSH2 0x367E JUMP JUMPDEST PUSH2 0x3ABF PUSH1 0x60 DUP4 ADD DUP5 PUSH2 0x367E JUMP JUMPDEST SWAP6 SWAP5 POP POP POP POP POP JUMP JUMPDEST PUSH1 0x0 PUSH1 0x20 DUP3 DUP5 SUB SLT ISZERO PUSH2 0x3ADE JUMPI PUSH2 0x3ADD PUSH2 0x3763 JUMP JUMPDEST JUMPDEST PUSH1 0x0 PUSH2 0x3AEC DUP5 DUP3 DUP6 ADD PUSH2 0x37DD JUMP JUMPDEST SWAP2 POP POP SWAP3 SWAP2 POP POP JUMP JUMPDEST PUSH1 0x0 DUP1 PUSH1 0x0 DUP1 PUSH1 0x80 DUP6 DUP8 SUB SLT ISZERO PUSH2 0x3B0F JUMPI PUSH2 0x3B0E PUSH2 0x3763 JUMP JUMPDEST JUMPDEST PUSH1 0x0 PUSH2 0x3B1D DUP8 DUP3 DUP9 ADD PUSH2 0x37DD JUMP JUMPDEST SWAP5 POP POP PUSH1 0x20 PUSH2 0x3B2E DUP8 DUP3 DUP9 ADD PUSH2 0x37DD JUMP JUMPDEST SWAP4 POP POP PUSH1 0x40 PUSH2 0x3B3F DUP8 DUP3 DUP9 ADD PUSH2 0x37DD JUMP JUMPDEST SWAP3 POP POP PUSH1 0x60 PUSH2 0x3B50 DUP8 DUP3 DUP9 ADD PUSH2 0x37DD JUMP JUMPDEST SWAP2 POP POP SWAP3 SWAP6 SWAP2 SWAP5 POP SWAP3 POP JUMP JUMPDEST PUSH1 0x0 DUP1 PUSH1 0x40 DUP4 DUP6 SUB SLT ISZERO PUSH2 0x3B73 JUMPI PUSH2 0x3B72 PUSH2 0x3763 JUMP JUMPDEST JUMPDEST PUSH1 0x0 PUSH2 0x3B81 DUP6 DUP3 DUP7 ADD PUSH2 0x37B1 JUMP JUMPDEST SWAP3 POP POP PUSH1 0x20 PUSH2 0x3B92 DUP6 DUP3 DUP7 ADD PUSH2 0x37B1 JUMP JUMPDEST SWAP2 POP POP SWAP3 POP SWAP3 SWAP1 POP JUMP JUMPDEST PUSH2 0x3BA5 DUP2 PUSH2 0x3788 JUMP JUMPDEST DUP3 MSTORE POP POP JUMP JUMPDEST PUSH1 0x0 PUSH1 0xC0 DUP3 ADD SWAP1 POP PUSH2 0x3BC0 PUSH1 0x0 DUP4 ADD DUP10 PUSH2 0x3B9C JUMP JUMPDEST PUSH2 0x3BCD PUSH1 0x20 DUP4 ADD DUP9 PUSH2 0x367E JUMP JUMPDEST PUSH2 0x3BDA PUSH1 0x40 DUP4 ADD DUP8 PUSH2 0x367E JUMP JUMPDEST PUSH2 0x3BE7 PUSH1 0x60 DUP4 ADD DUP7 PUSH2 0x367E JUMP JUMPDEST PUSH2 0x3BF4 PUSH1 0x80 DUP4 ADD DUP6 PUSH2 0x367E JUMP JUMPDEST PUSH2 0x3C01 PUSH1 0xA0 DUP4 ADD DUP5 PUSH2 0x367E JUMP JUMPDEST SWAP8 SWAP7 POP POP POP POP POP POP POP JUMP JUMPDEST PUSH32 0x4E487B7100000000000000000000000000000000000000000000000000000000 PUSH1 0x0 MSTORE PUSH1 0x22 PUSH1 0x4 MSTORE PUSH1 0x24 PUSH1 0x0 REVERT JUMPDEST PUSH1 0x0 PUSH1 0x2 DUP3 DIV SWAP1 POP PUSH1 0x1 DUP3 AND DUP1 PUSH2 0x3C53 JUMPI PUSH1 0x7F DUP3 AND SWAP2 POP JUMPDEST PUSH1 0x20 DUP3 LT DUP2 EQ ISZERO PUSH2 0x3C67 JUMPI PUSH2 0x3C66 PUSH2 0x3C0C JUMP JUMPDEST JUMPDEST POP SWAP2 SWAP1 POP JUMP JUMPDEST PUSH32 0x4E487B7100000000000000000000000000000000000000000000000000000000 PUSH1 0x0 MSTORE PUSH1 0x11 PUSH1 0x4 MSTORE PUSH1 0x24 PUSH1 0x0 REVERT JUMPDEST PUSH1 0x0 PUSH2 0x3CA7 DUP3 PUSH2 0x3674 JUMP JUMPDEST SWAP2 POP PUSH2 0x3CB2 DUP4 PUSH2 0x3674 JUMP JUMPDEST SWAP3 POP DUP2 PUSH32 0xFFFFFFFFFFFFFFFFFFFFFFFFFFFFFFFFFFFFFFFFFFFFFFFFFFFFFFFFFFFFFFFF DIV DUP4 GT DUP3 ISZERO ISZERO AND ISZERO PUSH2 0x3CEB JUMPI PUSH2 0x3CEA PUSH2 0x3C6D JUMP JUMPDEST JUMPDEST DUP3 DUP3 MUL SWAP1 POP SWAP3 SWAP2 POP POP JUMP JUMPDEST PUSH32 0x4352616E6B3A2043616E6E6F742073686172652077697468207A65726F206164 PUSH1 0x0 DUP3 ADD MSTORE PUSH32 0x6472657373000000000000000000000000000000000000000000000000000000 PUSH1 0x20 DUP3 ADD MSTORE POP JUMP JUMPDEST PUSH1 0x0 PUSH2 0x3D52 PUSH1 0x25 DUP4 PUSH2 0x36B3 JUMP JUMPDEST SWAP2 POP PUSH2 0x3D5D DUP3 PUSH2 0x3CF6 JUMP JUMPDEST PUSH1 0x40 DUP3 ADD SWAP1 POP SWAP2 SWAP1 POP JUMP JUMPDEST PUSH1 0x0 PUSH1 0x20 DUP3 ADD SWAP1 POP DUP2 DUP2 SUB PUSH1 0x0 DUP4 ADD MSTORE PUSH2 0x3D81 DUP2 PUSH2 0x3D45 JUMP JUMPDEST SWAP1 POP SWAP2 SWAP1 POP JUMP JUMPDEST PUSH32 0x4352616E6B3A2043616E6E6F74207368617265207A65726F2070657263656E74 PUSH1 0x0 DUP3 ADD MSTORE POP JUMP JUMPDEST PUSH1 0x0 PUSH2 0x3DBE PUSH1 0x20 DUP4 PUSH2 0x36B3 JUMP JUMPDEST SWAP2 POP PUSH2 0x3DC9 DUP3 PUSH2 0x3D88 JUMP JUMPDEST PUSH1 0x20 DUP3 ADD SWAP1 POP SWAP2 SWAP1 POP JUMP JUMPDEST PUSH1 0x0 PUSH1 0x20 DUP3 ADD SWAP1 POP DUP2 DUP2 SUB PUSH1 0x0 DUP4 ADD MSTORE PUSH2 0x3DED DUP2 PUSH2 0x3DB1 JUMP JUMPDEST SWAP1 POP SWAP2 SWAP1 POP JUMP JUMPDEST PUSH32 0x4352616E6B3A2043616E6E6F74207368617265203130302B2070657263656E74 PUSH1 0x0 DUP3 ADD MSTORE POP JUMP JUMPDEST PUSH1 0x0 PUSH2 0x3E2A PUSH1 0x20 DUP4 PUSH2 0x36B3 JUMP JUMPDEST SWAP2 POP PUSH2 0x3E35 DUP3 PUSH2 0x3DF4 JUMP JUMPDEST PUSH1 0x20 DUP3 ADD SWAP1 POP SWAP2 SWAP1 POP JUMP JUMPDEST PUSH1 0x0 PUSH1 0x20 DUP3 ADD SWAP1 POP DUP2 DUP2 SUB PUSH1 0x0 DUP4 ADD MSTORE PUSH2 0x3E59 DUP2 PUSH2 0x3E1D JUMP JUMPDEST SWAP1 POP SWAP2 SWAP1 POP JUMP JUMPDEST PUSH32 0x4352616E6B3A204E6F206D696E74206578697374730000000000000000000000 PUSH1 0x0 DUP3 ADD MSTORE POP JUMP JUMPDEST PUSH1 0x0 PUSH2 0x3E96 PUSH1 0x15 DUP4 PUSH2 0x36B3 JUMP JUMPDEST SWAP2 POP PUSH2 0x3EA1 DUP3 PUSH2 0x3E60 JUMP JUMPDEST PUSH1 0x20 DUP3 ADD SWAP1 POP SWAP2 SWAP1 POP JUMP JUMPDEST PUSH1 0x0 PUSH1 0x20 DUP3 ADD SWAP1 POP DUP2 DUP2 SUB PUSH1 0x0 DUP4 ADD MSTORE PUSH2 0x3EC5 DUP2 PUSH2 0x3E89 JUMP JUMPDEST SWAP1 POP SWAP2 SWAP1 POP JUMP JUMPDEST PUSH32 0x4352616E6B3A204D696E74206D61747572697479206E6F742072656163686564 PUSH1 0x0 DUP3 ADD MSTORE POP JUMP JUMPDEST PUSH1 0x0 PUSH2 0x3F02 PUSH1 0x20 DUP4 PUSH2 0x36B3 JUMP JUMPDEST SWAP2 POP PUSH2 0x3F0D DUP3 PUSH2 0x3ECC JUMP JUMPDEST PUSH1 0x20 DUP3 ADD SWAP1 POP SWAP2 SWAP1 POP JUMP JUMPDEST PUSH1 0x0 PUSH1 0x20 DUP3 ADD SWAP1 POP DUP2 DUP2 SUB PUSH1 0x0 DUP4 ADD MSTORE PUSH2 0x3F31 DUP2 PUSH2 0x3EF5 JUMP JUMPDEST SWAP1 POP SWAP2 SWAP1 POP JUMP JUMPDEST PUSH32 0x4E487B7100000000000000000000000000000000000000000000000000000000 PUSH1 0x0 MSTORE PUSH1 0x12 PUSH1 0x4 MSTORE PUSH1 0x24 PUSH1 0x0 REVERT JUMPDEST PUSH1 0x0 PUSH2 0x3F72 DUP3 PUSH2 0x3674 JUMP JUMPDEST SWAP2 POP PUSH2 0x3F7D DUP4 PUSH2 0x3674 JUMP JUMPDEST SWAP3 POP DUP3 PUSH2 0x3F8D JUMPI PUSH2 0x3F8C PUSH2 0x3F38 JUMP JUMPDEST JUMPDEST DUP3 DUP3 DIV SWAP1 POP SWAP3 SWAP2 POP POP JUMP JUMPDEST PUSH1 0x0 PUSH2 0x3FA3 DUP3 PUSH2 0x3674 JUMP JUMPDEST SWAP2 POP PUSH2 0x3FAE DUP4 PUSH2 0x3674 JUMP JUMPDEST SWAP3 POP DUP3 DUP3 LT ISZERO PUSH2 0x3FC1 JUMPI PUSH2 0x3FC0 PUSH2 0x3C6D JUMP JUMPDEST JUMPDEST DUP3 DUP3 SUB SWAP1 POP SWAP3 SWAP2 POP POP JUMP JUMPDEST PUSH1 0x0 PUSH2 0x3FD7 DUP3 PUSH2 0x3674 JUMP JUMPDEST SWAP2 POP PUSH2 0x3FE2 DUP4 PUSH2 0x3674 JUMP JUMPDEST SWAP3 POP DUP3 PUSH32 0xFFFFFFFFFFFFFFFFFFFFFFFFFFFFFFFFFFFFFFFFFFFFFFFFFFFFFFFFFFFFFFFF SUB DUP3 GT ISZERO PUSH2 0x4017 JUMPI PUSH2 0x4016 PUSH2 0x3C6D JUMP JUMPDEST JUMPDEST DUP3 DUP3 ADD SWAP1 POP SWAP3 SWAP2 POP POP JUMP JUMPDEST PUSH32 0x58454E3A206E6F207374616B6520657869737473000000000000000000000000 PUSH1 0x0 DUP3 ADD MSTORE POP JUMP JUMPDEST PUSH1 0x0 PUSH2 0x4058 PUSH1 0x14 DUP4 PUSH2 0x36B3 JUMP JUMPDEST SWAP2 POP PUSH2 0x4063 DUP3 PUSH2 0x4022 JUMP JUMPDEST PUSH1 0x20 DUP3 ADD SWAP1 POP SWAP2 SWAP1 POP JUMP JUMPDEST PUSH1 0x0 PUSH1 0x20 DUP3 ADD SWAP1 POP DUP2 DUP2 SUB PUSH1 0x0 DUP4 ADD MSTORE PUSH2 0x4087 DUP2 PUSH2 0x404B JUMP JUMPDEST SWAP1 POP SWAP2 SWAP1 POP JUMP JUMPDEST PUSH1 0x0 PUSH2 0x4099 DUP3 PUSH2 0x3674 JUMP JUMPDEST SWAP2 POP PUSH1 0x0 DUP3 EQ ISZERO PUSH2 0x40AD JUMPI PUSH2 0x40AC PUSH2 0x3C6D JUMP JUMPDEST JUMPDEST PUSH1 0x1 DUP3 SUB SWAP1 POP SWAP2 SWAP1 POP JUMP JUMPDEST PUSH1 0x0 PUSH1 0x40 DUP3 ADD SWAP1 POP PUSH2 0x40CD PUSH1 0x0 DUP4 ADD DUP6 PUSH2 0x367E JUMP JUMPDEST PUSH2 0x40DA PUSH1 0x20 DUP4 ADD DUP5 PUSH2 0x367E JUMP JUMPDEST SWAP4 SWAP3 POP POP POP JUMP JUMPDEST PUSH32 0x4352616E6B3A2043616E6E6F74207368617265203E3130302070657263656E74 PUSH1 0x0 DUP3 ADD MSTORE POP JUMP JUMPDEST PUSH1 0x0 PUSH2 0x4117 PUSH1 0x20 DUP4 PUSH2 0x36B3 JUMP JUMPDEST SWAP2 POP PUSH2 0x4122 DUP3 PUSH2 0x40E1 JUMP JUMPDEST PUSH1 0x20 DUP3 ADD SWAP1 POP SWAP2 SWAP1 POP JUMP JUMPDEST PUSH1 0x0 PUSH1 0x20 DUP3 ADD SWAP1 POP DUP2 DUP2 SUB PUSH1 0x0 DUP4 ADD MSTORE PUSH2 0x4146 DUP2 PUSH2 0x410A JUMP JUMPDEST SWAP1 POP SWAP2 SWAP1 POP JUMP JUMPDEST PUSH32 0x58454E3A2042656C6F77206D696E207374616B65000000000000000000000000 PUSH1 0x0 DUP3 ADD MSTORE POP JUMP JUMPDEST PUSH1 0x0 PUSH2 0x4183 PUSH1 0x14 DUP4 PUSH2 0x36B3 JUMP JUMPDEST SWAP2 POP PUSH2 0x418E DUP3 PUSH2 0x414D JUMP JUMPDEST PUSH1 0x20 DUP3 ADD SWAP1 POP SWAP2 SWAP1 POP JUMP JUMPDEST PUSH1 0x0 PUSH1 0x20 DUP3 ADD SWAP1 POP DUP2 DUP2 SUB PUSH1 0x0 DUP4 ADD MSTORE PUSH2 0x41B2 DUP2 PUSH2 0x4176 JUMP JUMPDEST SWAP1 POP SWAP2 SWAP1 POP JUMP JUMPDEST PUSH32 0x58454E3A2042656C6F77206D696E207374616B65207465726D00000000000000 PUSH1 0x0 DUP3 ADD MSTORE POP JUMP JUMPDEST PUSH1 0x0 PUSH2 0x41EF PUSH1 0x19 DUP4 PUSH2 0x36B3 JUMP JUMPDEST SWAP2 POP PUSH2 0x41FA DUP3 PUSH2 0x41B9 JUMP JUMPDEST PUSH1 0x20 DUP3 ADD SWAP1 POP SWAP2 SWAP1 POP JUMP JUMPDEST PUSH1 0x0 PUSH1 0x20 DUP3 ADD SWAP1 POP DUP2 DUP2 SUB PUSH1 0x0 DUP4 ADD MSTORE PUSH2 0x421E DUP2 PUSH2 0x41E2 JUMP JUMPDEST SWAP1 POP SWAP2 SWAP1 POP JUMP JUMPDEST PUSH32 0x58454E3A2041626F7665206D6178207374616B65207465726D00000000000000 PUSH1 0x0 DUP3 ADD MSTORE POP JUMP JUMPDEST PUSH1 0x0 PUSH2 0x425B PUSH1 0x19 DUP4 PUSH2 0x36B3 JUMP JUMPDEST SWAP2 POP PUSH2 0x4266 DUP3 PUSH2 0x4225 JUMP JUMPDEST PUSH1 0x20 DUP3 ADD SWAP1 POP SWAP2 SWAP1 POP JUMP JUMPDEST PUSH1 0x0 PUSH1 0x20 DUP3 ADD SWAP1 POP DUP2 DUP2 SUB PUSH1 0x0 DUP4 ADD MSTORE PUSH2 0x428A DUP2 PUSH2 0x424E JUMP JUMPDEST SWAP1 POP SWAP2 SWAP1 POP JUMP JUMPDEST PUSH32 0x58454E3A207374616B6520657869737473000000000000000000000000000000 PUSH1 0x0 DUP3 ADD MSTORE POP JUMP JUMPDEST PUSH1 0x0 PUSH2 0x42C7 PUSH1 0x11 DUP4 PUSH2 0x36B3 JUMP JUMPDEST SWAP2 POP PUSH2 0x42D2 DUP3 PUSH2 0x4291 JUMP JUMPDEST PUSH1 0x20 DUP3 ADD SWAP1 POP SWAP2 SWAP1 POP JUMP JUMPDEST PUSH1 0x0 PUSH1 0x20 DUP3 ADD SWAP1 POP DUP2 DUP2 SUB PUSH1 0x0 DUP4 ADD MSTORE PUSH2 0x42F6 DUP2 PUSH2 0x42BA JUMP JUMPDEST SWAP1 POP SWAP2 SWAP1 POP JUMP JUMPDEST PUSH32 0x58454E3A206E6F7420656E6F7567682062616C616E6365000000000000000000 PUSH1 0x0 DUP3 ADD MSTORE POP JUMP JUMPDEST PUSH1 0x0 PUSH2 0x4333 PUSH1 0x17 DUP4 PUSH2 0x36B3 JUMP JUMPDEST SWAP2 POP PUSH2 0x433E DUP3 PUSH2 0x42FD JUMP JUMPDEST PUSH1 0x20 DUP3 ADD SWAP1 POP SWAP2 SWAP1 POP JUMP JUMPDEST PUSH1 0x0 PUSH1 0x20 DUP3 ADD SWAP1 POP DUP2 DUP2 SUB PUSH1 0x0 DUP4 ADD MSTORE PUSH2 0x4362 DUP2 PUSH2 0x4326 JUMP JUMPDEST SWAP1 POP SWAP2 SWAP1 POP JUMP JUMPDEST PUSH32 0x4275726E3A2042656C6F77206D696E206C696D69740000000000000000000000 PUSH1 0x0 DUP3 ADD MSTORE POP JUMP JUMPDEST PUSH1 0x0 PUSH2 0x439F PUSH1 0x15 DUP4 PUSH2 0x36B3 JUMP JUMPDEST SWAP2 POP PUSH2 0x43AA DUP3 PUSH2 0x4369 JUMP JUMPDEST PUSH1 0x20 DUP3 ADD SWAP1 POP SWAP2 SWAP1 POP JUMP JUMPDEST PUSH1 0x0 PUSH1 0x20 DUP3 ADD SWAP1 POP DUP2 DUP2 SUB PUSH1 0x0 DUP4 ADD MSTORE PUSH2 0x43CE DUP2 PUSH2 0x4392 JUMP JUMPDEST SWAP1 POP SWAP2 SWAP1 POP JUMP JUMPDEST PUSH1 0x0 PUSH32 0xFFFFFFFF00000000000000000000000000000000000000000000000000000000 DUP3 AND SWAP1 POP SWAP2 SWAP1 POP JUMP JUMPDEST PUSH2 0x440A DUP2 PUSH2 0x43D5 JUMP JUMPDEST DUP3 MSTORE POP POP JUMP JUMPDEST PUSH1 0x0 PUSH1 0x20 DUP3 ADD SWAP1 POP PUSH2 0x4425 PUSH1 0x0 DUP4 ADD DUP5 PUSH2 0x4401 JUMP JUMPDEST SWAP3 SWAP2 POP POP JUMP JUMPDEST PUSH2 0x4434 DUP2 PUSH2 0x3832 JUMP JUMPDEST DUP2 EQ PUSH2 0x443F JUMPI PUSH1 0x0 DUP1 REVERT JUMPDEST POP JUMP JUMPDEST PUSH1 0x0 DUP2 MLOAD SWAP1 POP PUSH2 0x4451 DUP2 PUSH2 0x442B JUMP JUMPDEST SWAP3 SWAP2 POP POP JUMP JUMPDEST PUSH1 0x0 PUSH1 0x20 DUP3 DUP5 SUB SLT ISZERO PUSH2 0x446D JUMPI PUSH2 0x446C PUSH2 0x3763 JUMP JUMPDEST JUMPDEST PUSH1 0x0 PUSH2 0x447B DUP5 DUP3 DUP6 ADD PUSH2 0x4442 JUMP JUMPDEST SWAP2 POP POP SWAP3 SWAP2 POP POP JUMP JUMPDEST PUSH32 0x4275726E3A206E6F74206120737570706F7274656420636F6E74726163740000 PUSH1 0x0 DUP3 ADD MSTORE POP JUMP JUMPDEST PUSH1 0x0 PUSH2 0x44BA PUSH1 0x1E DUP4 PUSH2 0x36B3 JUMP JUMPDEST SWAP2 POP PUSH2 0x44C5 DUP3 PUSH2 0x4484 JUMP JUMPDEST PUSH1 0x20 DUP3 ADD SWAP1 POP SWAP2 SWAP1 POP JUMP JUMPDEST PUSH1 0x0 PUSH1 0x20 DUP3 ADD SWAP1 POP DUP2 DUP2 SUB PUSH1 0x0 DUP4 ADD MSTORE PUSH2 0x44E9 DUP2 PUSH2 0x44AD JUMP JUMPDEST SWAP1 POP SWAP2 SWAP1 POP JUMP JUMPDEST PUSH1 0x0 PUSH1 0x40 DUP3 ADD SWAP1 POP PUSH2 0x4505 PUSH1 0x0 DUP4 ADD DUP6 PUSH2 0x3B9C JUMP JUMPDEST PUSH2 0x4512 PUSH1 0x20 DUP4 ADD DUP5 PUSH2 0x367E JUMP JUMPDEST SWAP4 SWAP3 POP POP POP JUMP JUMPDEST PUSH32 0x4352616E6B3A205465726D206C657373207468616E206D696E00000000000000 PUSH1 0x0 DUP3 ADD MSTORE POP JUMP JUMPDEST PUSH1 0x0 PUSH2 0x454F PUSH1 0x19 DUP4 PUSH2 0x36B3 JUMP JUMPDEST SWAP2 POP PUSH2 0x455A DUP3 PUSH2 0x4519 JUMP JUMPDEST PUSH1 0x20 DUP3 ADD SWAP1 POP SWAP2 SWAP1 POP JUMP JUMPDEST PUSH1 0x0 PUSH1 0x20 DUP3 ADD SWAP1 POP DUP2 DUP2 SUB PUSH1 0x0 DUP4 ADD MSTORE PUSH2 0x457E DUP2 PUSH2 0x4542 JUMP JUMPDEST SWAP1 POP SWAP2 SWAP1 POP JUMP JUMPDEST PUSH32 0x4352616E6B3A205465726D206D6F7265207468616E2063757272656E74206D61 PUSH1 0x0 DUP3 ADD MSTORE PUSH32 0x78207465726D0000000000000000000000000000000000000000000000000000 PUSH1 0x20 DUP3 ADD MSTORE POP JUMP JUMPDEST PUSH1 0x0 PUSH2 0x45E1 PUSH1 0x26 DUP4 PUSH2 0x36B3 JUMP JUMPDEST SWAP2 POP PUSH2 0x45EC DUP3 PUSH2 0x4585 JUMP JUMPDEST PUSH1 0x40 DUP3 ADD SWAP1 POP SWAP2 SWAP1 POP JUMP JUMPDEST PUSH1 0x0 PUSH1 0x20 DUP3 ADD SWAP1 POP DUP2 DUP2 SUB PUSH1 0x0 DUP4 ADD MSTORE PUSH2 0x4610 DUP2 PUSH2 0x45D4 JUMP JUMPDEST SWAP1 POP SWAP2 SWAP1 POP JUMP JUMPDEST PUSH32 0x4352616E6B3A204D696E7420616C726561647920696E2070726F677265737300 PUSH1 0x0 DUP3 ADD MSTORE POP JUMP JUMPDEST PUSH1 0x0 PUSH2 0x464D PUSH1 0x1F DUP4 PUSH2 0x36B3 JUMP JUMPDEST SWAP2 POP PUSH2 0x4658 DUP3 PUSH2 0x4617 JUMP JUMPDEST PUSH1 0x20 DUP3 ADD SWAP1 POP SWAP2 SWAP1 POP JUMP JUMPDEST PUSH1 0x0 PUSH1 0x20 DUP3 ADD SWAP1 POP DUP2 DUP2 SUB PUSH1 0x0 DUP4 ADD MSTORE PUSH2 0x467C DUP2 PUSH2 0x4640 JUMP JUMPDEST SWAP1 POP SWAP2 SWAP1 POP JUMP JUMPDEST PUSH1 0x0 PUSH2 0x468E DUP3 PUSH2 0x3674 JUMP JUMPDEST SWAP2 POP PUSH32 0xFFFFFFFFFFFFFFFFFFFFFFFFFFFFFFFFFFFFFFFFFFFFFFFFFFFFFFFFFFFFFFFF DUP3 EQ ISZERO PUSH2 0x46C1 JUMPI PUSH2 0x46C0 PUSH2 0x3C6D JUMP JUMPDEST JUMPDEST PUSH1 0x1 DUP3 ADD SWAP1 POP SWAP2 SWAP1 POP JUMP JUMPDEST PUSH32 0x45524332303A2064656372656173656420616C6C6F77616E63652062656C6F77 PUSH1 0x0 DUP3 ADD MSTORE PUSH32 0x207A65726F000000000000000000000000000000000000000000000000000000 PUSH1 0x20 DUP3 ADD MSTORE POP JUMP JUMPDEST PUSH1 0x0 PUSH2 0x4728 PUSH1 0x25 DUP4 PUSH2 0x36B3 JUMP JUMPDEST SWAP2 POP PUSH2 0x4733 DUP3 PUSH2 0x46CC JUMP JUMPDEST PUSH1 0x40 DUP3 ADD SWAP1 POP SWAP2 SWAP1 POP JUMP JUMPDEST PUSH1 0x0 PUSH1 0x20 DUP3 ADD SWAP1 POP DUP2 DUP2 SUB PUSH1 0x0 DUP4 ADD MSTORE PUSH2 0x4757 DUP2 PUSH2 0x471B JUMP JUMPDEST SWAP1 POP SWAP2 SWAP1 POP JUMP JUMPDEST PUSH32 0x45524332303A20617070726F76652066726F6D20746865207A65726F20616464 PUSH1 0x0 DUP3 ADD MSTORE PUSH32 0x7265737300000000000000000000000000000000000000000000000000000000 PUSH1 0x20 DUP3 ADD MSTORE POP JUMP JUMPDEST PUSH1 0x0 PUSH2 0x47BA PUSH1 0x24 DUP4 PUSH2 0x36B3 JUMP JUMPDEST SWAP2 POP PUSH2 0x47C5 DUP3 PUSH2 0x475E JUMP JUMPDEST PUSH1 0x40 DUP3 ADD SWAP1 POP SWAP2 SWAP1 POP JUMP JUMPDEST PUSH1 0x0 PUSH1 0x20 DUP3 ADD SWAP1 POP DUP2 DUP2 SUB PUSH1 0x0 DUP4 ADD MSTORE PUSH2 0x47E9 DUP2 PUSH2 0x47AD JUMP JUMPDEST SWAP1 POP SWAP2 SWAP1 POP JUMP JUMPDEST PUSH32 0x45524332303A20617070726F766520746F20746865207A65726F206164647265 PUSH1 0x0 DUP3 ADD MSTORE PUSH32 0x7373000000000000000000000000000000000000000000000000000000000000 PUSH1 0x20 DUP3 ADD MSTORE POP JUMP JUMPDEST PUSH1 0x0 PUSH2 0x484C PUSH1 0x22 DUP4 PUSH2 0x36B3 JUMP JUMPDEST SWAP2 POP PUSH2 0x4857 DUP3 PUSH2 0x47F0 JUMP JUMPDEST PUSH1 0x40 DUP3 ADD SWAP1 POP SWAP2 SWAP1 POP JUMP JUMPDEST PUSH1 0x0 PUSH1 0x20 DUP3 ADD SWAP1 POP DUP2 DUP2 SUB PUSH1 0x0 DUP4 ADD MSTORE PUSH2 0x487B DUP2 PUSH2 0x483F JUMP JUMPDEST SWAP1 POP SWAP2 SWAP1 POP JUMP JUMPDEST PUSH2 0x488B DUP2 PUSH2 0x3674 JUMP JUMPDEST DUP3 MSTORE POP POP JUMP JUMPDEST PUSH1 0x0 DUP2 SWAP1 POP SWAP2 SWAP1 POP JUMP JUMPDEST PUSH1 0x0 DUP2 SWAP1 POP SWAP2 SWAP1 POP JUMP JUMPDEST PUSH1 0x0 PUSH2 0x48C0 PUSH2 0x48BB PUSH2 0x48B6 DUP5 PUSH2 0x4891 JUMP JUMPDEST PUSH2 0x489B JUMP JUMPDEST PUSH2 0x3674 JUMP JUMPDEST SWAP1 POP SWAP2 SWAP1 POP JUMP JUMPDEST PUSH2 0x48D0 DUP2 PUSH2 0x48A5 JUMP JUMPDEST DUP3 MSTORE POP POP JUMP JUMPDEST PUSH1 0x0 PUSH1 0x40 DUP3 ADD SWAP1 POP PUSH2 0x48EB PUSH1 0x0 DUP4 ADD DUP6 PUSH2 0x4882 JUMP JUMPDEST PUSH2 0x48F8 PUSH1 0x20 DUP4 ADD DUP5 PUSH2 0x48C7 JUMP JUMPDEST SWAP4 SWAP3 POP POP POP JUMP JUMPDEST PUSH1 0x0 DUP2 MLOAD SWAP1 POP PUSH2 0x490E DUP2 PUSH2 0x37C6 JUMP JUMPDEST SWAP3 SWAP2 POP POP JUMP JUMPDEST PUSH1 0x0 PUSH1 0x20 DUP3 DUP5 SUB SLT ISZERO PUSH2 0x492A JUMPI PUSH2 0x4929 PUSH2 0x3763 JUMP JUMPDEST JUMPDEST PUSH1 0x0 PUSH2 0x4938 DUP5 DUP3 DUP6 ADD PUSH2 0x48FF JUMP JUMPDEST SWAP2 POP POP SWAP3 SWAP2 POP POP JUMP JUMPDEST PUSH32 0x45524332303A206D696E7420746F20746865207A65726F206164647265737300 PUSH1 0x0 DUP3 ADD MSTORE POP JUMP JUMPDEST PUSH1 0x0 PUSH2 0x4977 PUSH1 0x1F DUP4 PUSH2 0x36B3 JUMP JUMPDEST SWAP2 POP PUSH2 0x4982 DUP3 PUSH2 0x4941 JUMP JUMPDEST PUSH1 0x20 DUP3 ADD SWAP1 POP SWAP2 SWAP1 POP JUMP JUMPDEST PUSH1 0x0 PUSH1 0x20 DUP3 ADD SWAP1 POP DUP2 DUP2 SUB PUSH1 0x0 DUP4 ADD MSTORE PUSH2 0x49A6 DUP2 PUSH2 0x496A JUMP JUMPDEST SWAP1 POP SWAP2 SWAP1 POP JUMP JUMPDEST PUSH32 0x45524332303A20696E73756666696369656E7420616C6C6F77616E6365000000 PUSH1 0x0 DUP3 ADD MSTORE POP JUMP JUMPDEST PUSH1 0x0 PUSH2 0x49E3 PUSH1 0x1D DUP4 PUSH2 0x36B3 JUMP JUMPDEST SWAP2 POP PUSH2 0x49EE DUP3 PUSH2 0x49AD JUMP JUMPDEST PUSH1 0x20 DUP3 ADD SWAP1 POP SWAP2 SWAP1 POP JUMP JUMPDEST PUSH1 0x0 PUSH1 0x20 DUP3 ADD SWAP1 POP DUP2 DUP2 SUB PUSH1 0x0 DUP4 ADD MSTORE PUSH2 0x4A12 DUP2 PUSH2 0x49D6 JUMP JUMPDEST SWAP1 POP SWAP2 SWAP1 POP JUMP JUMPDEST PUSH32 0x45524332303A207472616E736665722066726F6D20746865207A65726F206164 PUSH1 0x0 DUP3 ADD MSTORE PUSH32 0x6472657373000000000000000000000000000000000000000000000000000000 PUSH1 0x20 DUP3 ADD MSTORE POP JUMP JUMPDEST PUSH1 0x0 PUSH2 0x4A75 PUSH1 0x25 DUP4 PUSH2 0x36B3 JUMP JUMPDEST SWAP2 POP PUSH2 0x4A80 DUP3 PUSH2 0x4A19 JUMP JUMPDEST PUSH1 0x40 DUP3 ADD SWAP1 POP SWAP2 SWAP1 POP JUMP JUMPDEST PUSH1 0x0 PUSH1 0x20 DUP3 ADD SWAP1 POP DUP2 DUP2 SUB PUSH1 0x0 DUP4 ADD MSTORE PUSH2 0x4AA4 DUP2 PUSH2 0x4A68 JUMP JUMPDEST SWAP1 POP SWAP2 SWAP1 POP JUMP JUMPDEST PUSH32 0x45524332303A207472616E7366657220746F20746865207A65726F2061646472 PUSH1 0x0 DUP3 ADD MSTORE PUSH32 0x6573730000000000000000000000000000000000000000000000000000000000 PUSH1 0x20 DUP3 ADD MSTORE POP JUMP JUMPDEST PUSH1 0x0 PUSH2 0x4B07 PUSH1 0x23 DUP4 PUSH2 0x36B3 JUMP JUMPDEST SWAP2 POP PUSH2 0x4B12 DUP3 PUSH2 0x4AAB JUMP JUMPDEST PUSH1 0x40 DUP3 ADD SWAP1 POP SWAP2 SWAP1 POP JUMP JUMPDEST PUSH1 0x0 PUSH1 0x20 DUP3 ADD SWAP1 POP DUP2 DUP2 SUB PUSH1 0x0 DUP4 ADD MSTORE PUSH2 0x4B36 DUP2 PUSH2 0x4AFA JUMP JUMPDEST SWAP1 POP SWAP2 SWAP1 POP JUMP JUMPDEST PUSH32 0x45524332303A207472616E7366657220616D6F756E7420657863656564732062 PUSH1 0x0 DUP3 ADD MSTORE PUSH32 0x616C616E63650000000000000000000000000000000000000000000000000000 PUSH1 0x20 DUP3 ADD MSTORE POP JUMP JUMPDEST PUSH1 0x0 PUSH2 0x4B99 PUSH1 0x26 DUP4 PUSH2 0x36B3 JUMP JUMPDEST SWAP2 POP PUSH2 0x4BA4 DUP3 PUSH2 0x4B3D JUMP JUMPDEST PUSH1 0x40 DUP3 ADD SWAP1 POP SWAP2 SWAP1 POP JUMP JUMPDEST PUSH1 0x0 PUSH1 0x20 DUP3 ADD SWAP1 POP DUP2 DUP2 SUB PUSH1 0x0 DUP4 ADD MSTORE PUSH2 0x4BC8 DUP2 PUSH2 0x4B8C JUMP JUMPDEST SWAP1 POP SWAP2 SWAP1 POP JUMP JUMPDEST PUSH1 0x0 PUSH1 0x40 DUP3 ADD SWAP1 POP PUSH2 0x4BE4 PUSH1 0x0 DUP4 ADD DUP6 PUSH2 0x4882 JUMP JUMPDEST PUSH2 0x4BF1 PUSH1 0x20 DUP4 ADD DUP5 PUSH2 0x4882 JUMP JUMPDEST SWAP4 SWAP3 POP POP POP JUMP JUMPDEST PUSH32 0x45524332303A206275726E2066726F6D20746865207A65726F20616464726573 PUSH1 0x0 DUP3 ADD MSTORE PUSH32 0x7300000000000000000000000000000000000000000000000000000000000000 PUSH1 0x20 DUP3 ADD MSTORE POP JUMP JUMPDEST PUSH1 0x0 PUSH2 0x4C54 PUSH1 0x21 DUP4 PUSH2 0x36B3 JUMP JUMPDEST SWAP2 POP PUSH2 0x4C5F DUP3 PUSH2 0x4BF8 JUMP JUMPDEST PUSH1 0x40 DUP3 ADD SWAP1 POP SWAP2 SWAP1 POP JUMP JUMPDEST PUSH1 0x0 PUSH1 0x20 DUP3 ADD SWAP1 POP DUP2 DUP2 SUB PUSH1 0x0 DUP4 ADD MSTORE PUSH2 0x4C83 DUP2 PUSH2 0x4C47 JUMP JUMPDEST SWAP1 POP SWAP2 SWAP1 POP JUMP JUMPDEST PUSH32 0x45524332303A206275726E20616D6F756E7420657863656564732062616C616E PUSH1 0x0 DUP3 ADD MSTORE PUSH32 0x6365000000000000000000000000000000000000000000000000000000000000 PUSH1 0x20 DUP3 ADD MSTORE POP JUMP JUMPDEST PUSH1 0x0 PUSH2 0x4CE6 PUSH1 0x22 DUP4 PUSH2 0x36B3 JUMP JUMPDEST SWAP2 POP PUSH2 0x4CF1 DUP3 PUSH2 0x4C8A JUMP JUMPDEST PUSH1 0x40 DUP3 ADD SWAP1 POP SWAP2 SWAP1 POP JUMP JUMPDEST PUSH1 0x0 PUSH1 0x20 DUP3 ADD SWAP1 POP DUP2 DUP2 SUB PUSH1 0x0 DUP4 ADD MSTORE PUSH2 0x4D15 DUP2 PUSH2 0x4CD9 JUMP JUMPDEST SWAP1 POP SWAP2 SWAP1 POP JUMP INVALID BLOCKHASH 0x4D PUSH19 0x4A61636B4C6576696E20406C62656C79616576 KECCAK256 PUSH7 0x61697263727970 PUSH21 0x6F2E6F7267A26469706673582212206210E575D52E ISZERO DUP11 0xFC 0x4B BASEFEE LOG2 0xB2 0x1F BALANCE 0x2D 0xDB 0xAB SLOAD 0xD5 BYTE LOG4 0xC5 0xBF 0xCB 0xAA 0xD8 0xB0 ADDMOD DUP15 CODESIZE 0xAB PUSH5 0x736F6C6343 STOP ADDMOD EXP STOP CALLER "},"gasEstimates":{"creation":{"codeDepositCost":"3966200","executionCost":"infinite","totalCost":"infinite"},"external":{"AUTHORS()":"infinite","DAYS_IN_YEAR()":"376","EAA_PM_START()":"441","EAA_PM_STEP()":"441","EAA_RANK_STEP()":"439","GENESIS_RANK()":"441","MAX_PENALTY_PCT()":"486","MAX_TERM_END()":"infinite","MAX_TERM_START()":"infinite","MIN_TERM()":"infinite","REWARD_AMPLIFIER_END()":"397","REWARD_AMPLIFIER_START()":"440","SECONDS_IN_DAY()":"441","TERM_AMPLIFIER()":"440","TERM_AMPLIFIER_THRESHOLD()":"462","WITHDRAWAL_WINDOW_DAYS()":"418","XEN_APY_DAYS_STEP()":"442","XEN_APY_END()":"375","XEN_APY_START()":"461","XEN_MIN_BURN()":"398","XEN_MIN_STAKE()":"398","activeMinters()":"2497","activeStakes()":"2495","allowance(address,address)":"infinite","approve(address,uint256)":"infinite","balanceOf(address)":"2930","burn(address,uint256)":"infinite","claimMintReward()":"infinite","claimMintRewardAndShare(address,uint256)":"infinite","claimMintRewardAndStake(uint256,uint256)":"infinite","claimRank(uint256)":"infinite","decimals()":"434","decreaseAllowance(address,uint256)":"infinite","genesisTs()":"infinite","getCurrentAMP()":"infinite","getCurrentAPY()":"infinite","getCurrentEAAR()":"infinite","getCurrentMaxTerm()":"infinite","getGrossReward(uint256,uint256,uint256,uint256)":"infinite","getUserMint()":"infinite","getUserStake()":"infinite","globalRank()":"2497","increaseAllowance(address,uint256)":"infinite","name()":"infinite","stake(uint256,uint256)":"infinite","symbol()":"infinite","totalSupply()":"2550","totalXenStaked()":"2498","transfer(address,uint256)":"infinite","transferFrom(address,address,uint256)":"infinite","userBurns(address)":"2925","userMints(address)":"infinite","userStakes(address)":"infinite","withdraw()":"infinite"},"internal":{"_calculateAPY()":"infinite","_calculateEAARate()":"infinite","_calculateMaxTerm()":"infinite","_calculateMintReward(uint256,uint256,uint256,uint256,uint256)":"infinite","_calculateRewardAmplifier()":"infinite","_calculateStakeReward(uint256,uint256,uint256,uint256)":"infinite","_cleanUpUserMint()":"73832","_createStake(uint256,uint256)":"infinite","_penalty(uint256)":"infinite"}},"methodIdentifiers":{"AUTHORS()":"ba3ec741","DAYS_IN_YEAR()":"02378932","EAA_PM_START()":"909a2ff6","EAA_PM_STEP()":"bcfe394f","EAA_RANK_STEP()":"f340faed","GENESIS_RANK()":"1c6f212e","MAX_PENALTY_PCT()":"0f2e1228","MAX_TERM_END()":"c0c65259","MAX_TERM_START()":"0bfae56b","MIN_TERM()":"f0604829","REWARD_AMPLIFIER_END()":"543d3652","REWARD_AMPLIFIER_START()":"e81917b4","SECONDS_IN_DAY()":"61a52a36","TERM_AMPLIFIER()":"72475f94","TERM_AMPLIFIER_THRESHOLD()":"b21d35f2","WITHDRAWAL_WINDOW_DAYS()":"c56f0bab","XEN_APY_DAYS_STEP()":"32870fda","XEN_APY_END()":"7e7aa62e","XEN_APY_START()":"fed74269","XEN_MIN_BURN()":"110d7fc2","XEN_MIN_STAKE()":"2a62d966","activeMinters()":"b4800cdc","activeStakes()":"ed2f2369","allowance(address,address)":"dd62ed3e","approve(address,uint256)":"095ea7b3","balanceOf(address)":"70a08231","burn(address,uint256)":"9dc29fac","claimMintReward()":"52c7f8dc","claimMintRewardAndShare(address,uint256)":"1c560305","claimMintRewardAndStake(uint256,uint256)":"5bccb4c4","claimRank(uint256)":"9ff054df","decimals()":"313ce567","decreaseAllowance(address,uint256)":"a457c2d7","genesisTs()":"e3af6d0a","getCurrentAMP()":"99202454","getCurrentAPY()":"962ca496","getCurrentEAAR()":"8979c87c","getCurrentMaxTerm()":"45125715","getGrossReward(uint256,uint256,uint256,uint256)":"b0fd1fc2","getUserMint()":"7010d7a1","getUserStake()":"16f9c8fd","globalRank()":"1c244082","increaseAllowance(address,uint256)":"39509351","name()":"06fdde03","stake(uint256,uint256)":"7b0472f0","symbol()":"95d89b41","totalSupply()":"18160ddd","totalXenStaked()":"069612a5","transfer(address,uint256)":"a9059cbb","transferFrom(address,address,uint256)":"23b872dd","userBurns(address)":"ce653d5f","userMints(address)":"df282331","userStakes(address)":"8da7ad23","withdraw()":"3ccfd60b"}},"storageLayout":{"storage":[{"astId":18,"contract":"contracts/XENCrypto.sol:XENCrypto","label":"_balances","offset":0,"slot":"0","type":"t_mapping(t_address,t_uint256)"},{"astId":24,"contract":"contracts/XENCrypto.sol:XENCrypto","label":"_allowances","offset":0,"slot":"1","type":"t_mapping(t_address,t_mapping(t_address,t_uint256))"},{"astId":26,"contract":"contracts/XENCrypto.sol:XENCrypto","label":"_totalSupply","offset":0,"slot":"2","type":"t_uint256"},{"astId":28,"contract":"contracts/XENCrypto.sol:XENCrypto","label":"_name","offset":0,"slot":"3","type":"t_string_storage"},{"astId":30,"contract":"contracts/XENCrypto.sol:XENCrypto","label":"_symbol","offset":0,"slot":"4","type":"t_string_storage"},{"astId":3726,"contract":"contracts/XENCrypto.sol:XENCrypto","label":"globalRank","offset":0,"slot":"5","type":"t_uint256"},{"astId":3728,"contract":"contracts/XENCrypto.sol:XENCrypto","label":"activeMinters","offset":0,"slot":"6","type":"t_uint256"},{"astId":3730,"contract":"contracts/XENCrypto.sol:XENCrypto","label":"activeStakes","offset":0,"slot":"7","type":"t_uint256"},{"astId":3732,"contract":"contracts/XENCrypto.sol:XENCrypto","label":"totalXenStaked","offset":0,"slot":"8","type":"t_uint256"},{"astId":3737,"contract":"contracts/XENCrypto.sol:XENCrypto","label":"userMints","offset":0,"slot":"9","type":"t_mapping(t_address,t_struct(MintInfo)3639_storage)"},{"astId":3742,"contract":"contracts/XENCrypto.sol:XENCrypto","label":"userStakes","offset":0,"slot":"10","type":"t_mapping(t_address,t_struct(StakeInfo)3648_storage)"},{"astId":3746,"contract":"contracts/XENCrypto.sol:XENCrypto","label":"userBurns","offset":0,"slot":"11","type":"t_mapping(t_address,t_uint256)"}],"types":{"t_address":{"encoding":"inplace","label":"address","numberOfBytes":"20"},"t_mapping(t_address,t_mapping(t_address,t_uint256))":{"encoding":"mapping","key":"t_address","label":"mapping(address => mapping(address => uint256))","numberOfBytes":"32","value":"t_mapping(t_address,t_uint256)"},"t_mapping(t_address,t_struct(MintInfo)3639_storage)":{"encoding":"mapping","key":"t_address","label":"mapping(address => struct XENCrypto.MintInfo)","numberOfBytes":"32","value":"t_struct(MintInfo)3639_storage"},"t_mapping(t_address,t_struct(StakeInfo)3648_storage)":{"encoding":"mapping","key":"t_address","label":"mapping(address => struct XENCrypto.StakeInfo)","numberOfBytes":"32","value":"t_struct(StakeInfo)3648_storage"},"t_mapping(t_address,t_uint256)":{"encoding":"mapping","key":"t_address","label":"mapping(address => uint256)","numberOfBytes":"32","value":"t_uint256"},"t_string_storage":{"encoding":"bytes","label":"string","numberOfBytes":"32"},"t_struct(MintInfo)3639_storage":{"encoding":"inplace","label":"struct XENCrypto.MintInfo","members":[{"astId":3628,"contract":"contracts/XENCrypto.sol:XENCrypto","label":"user","offset":0,"slot":"0","type":"t_address"},{"astId":3630,"contract":"contracts/XENCrypto.sol:XENCrypto","label":"term","offset":0,"slot":"1","type":"t_uint256"},{"astId":3632,"contract":"contracts/XENCrypto.sol:XENCrypto","label":"maturityTs","offset":0,"slot":"2","type":"t_uint256"},{"astId":3634,"contract":"contracts/XENCrypto.sol:XENCrypto","label":"rank","offset":0,"slot":"3","type":"t_uint256"},{"astId":3636,"contract":"contracts/XENCrypto.sol:XENCrypto","label":"amplifier","offset":0,"slot":"4","type":"t_uint256"},{"astId":3638,"contract":"contracts/XENCrypto.sol:XENCrypto","label":"eaaRate","offset":0,"slot":"5","type":"t_uint256"}],"numberOfBytes":"192"},"t_struct(StakeInfo)3648_storage":{"encoding":"inplace","label":"struct XENCrypto.StakeInfo","members":[{"astId":3641,"contract":"contracts/XENCrypto.sol:XENCrypto","label":"term","offset":0,"slot":"0","type":"t_uint256"},{"astId":3643,"contract":"contracts/XENCrypto.sol:XENCrypto","label":"maturityTs","offset":0,"slot":"1","type":"t_uint256"},{"astId":3645,"contract":"contracts/XENCrypto.sol:XENCrypto","label":"amount","offset":0,"slot":"2","type":"t_uint256"},{"astId":3647,"contract":"contracts/XENCrypto.sol:XENCrypto","label":"apy","offset":0,"slot":"3","type":"t_uint256"}],"numberOfBytes":"128"},"t_uint256":{"encoding":"inplace","label":"uint256","numberOfBytes":"32"}}},"userdoc":{"kind":"user","methods":{},"version":1}}}}