{"contracts/Math.sol":{"Math":{"abi":[{"inputs":[{"internalType":"uint256","name":"x","type":"uint256"}],"name":"logX64","outputs":[{"internalType":"int128","name":"","type":"int128"}],"stateMutability":"pure","type":"function"},{"inputs":[{"internalType":"uint256","name":"a","type":"uint256"},{"internalType":"uint256","name":"b","type":"uint256"}],"name":"max","outputs":[{"internalType":"uint256","name":"","type":"uint256"}],"stateMutability":"pure","type":"function"},{"inputs":[{"internalType":"uint256","name":"a","type":"uint256"},{"internalType":"uint256","name":"b","type":"uint256"}],"name":"min","outputs":[{"internalType":"uint256","name":"","type":"uint256"}],"stateMutability":"pure","type":"function"}],"devdoc":{"kind":"dev","methods":{},"version":1},"evm":{"bytecode":{"linkReferences":{},"object":"6103b8610053600b82828239805160001a607314610046577f4e487b7100000000000000000000000000000000000000000000000000000000600052600060045260246000fd5b30600052607381538281f3fe730000000000000000000000000000000000000000301460806040526004361061004b5760003560e01c80634793dbab146100505780636d5433e6146100805780637ae2b5c7146100b0575b600080fd5b61006a600480360381019061006591906102b4565b6100e0565b60405161007791906102fd565b60405180910390f35b61009a60048036038101906100959190610318565b6100fa565b6040516100a79190610367565b60405180910390f35b6100ca60048036038101906100c59190610318565b610116565b6040516100d79190610367565b60405180910390f35b60006100f36100ee83610132565b610155565b9050919050565b60008183111561010c57829050610110565b8190505b92915050565b6000818311156101285781905061012c565b8290505b92915050565b6000677fffffffffffffff82111561014957600080fd5b604082901b9050919050565b60008082600f0b1361016657600080fd5b60008083600f0b905068010000000000000000811261018d57604081901d90506040820191505b64010000000081126101a757602081901d90506020820191505b6201000081126101bf57601081901d90506010820191505b61010081126101d657600881901d90506008820191505b601081126101ec57600481901d90506004820191505b6004811261020257600281901d90506002820191505b60028112610211576001820191505b60006040808403901b9050600083607f0386600f0b901b9050600067800000000000000090505b600081131561026c578182029150600060ff83901c905080607f0183901c92508082028401935050600181901d9050610238565b5081945050505050919050565b600080fd5b6000819050919050565b6102918161027e565b811461029c57600080fd5b50565b6000813590506102ae81610288565b92915050565b6000602082840312156102ca576102c9610279565b5b60006102d88482850161029f565b91505092915050565b600081600f0b9050919050565b6102f7816102e1565b82525050565b600060208201905061031260008301846102ee565b92915050565b6000806040838503121561032f5761032e610279565b5b600061033d8582860161029f565b925050602061034e8582860161029f565b9150509250929050565b6103618161027e565b82525050565b600060208201905061037c6000830184610358565b9291505056fea26469706673582212208e5109899cdfba115a6b45c4d6c309e2ca45d5ec7ef2d4c3b462b7fa4854af1d64736f6c634300080a0033","opcodes":"PUSH2 0x3B8 PUSH2 0x53 PUSH1 0xB DUP3 DUP3 DUP3 CODECOPY DUP1 MLOAD PUSH1 0x0 BYTE PUSH1 0x73 EQ PUSH2 0x46 JUMPI PUSH32 0x4E487B7100000000000000000000000000000000000000000000000000000000 PUSH1 0x0 MSTORE PUSH1 0x0 PUSH1 0x4 MSTORE PUSH1 0x24 PUSH1 0x0 REVERT JUMPDEST ADDRESS PUSH1 0x0 MSTORE PUSH1 0x73 DUP2 MSTORE8 DUP3 DUP2 RETURN INVALID PUSH20 0x0 ADDRESS EQ PUSH1 0x80 PUSH1 0x40 MSTORE PUSH1 0x4 CALLDATASIZE LT PUSH2 0x4B JUMPI PUSH1 0x0 CALLDATALOAD PUSH1 0xE0 SHR DUP1 PUSH4 0x4793DBAB EQ PUSH2 0x50 JUMPI DUP1 PUSH4 0x6D5433E6 EQ PUSH2 0x80 JUMPI DUP1 PUSH4 0x7AE2B5C7 EQ PUSH2 0xB0 JUMPI JUMPDEST PUSH1 0x0 DUP1 REVERT JUMPDEST PUSH2 0x6A PUSH1 0x4 DUP1 CALLDATASIZE SUB DUP2 ADD SWAP1 PUSH2 0x65 SWAP2 SWAP1 PUSH2 0x2B4 JUMP JUMPDEST PUSH2 0xE0 JUMP JUMPDEST PUSH1 0x40 MLOAD PUSH2 0x77 SWAP2 SWAP1 PUSH2 0x2FD JUMP JUMPDEST PUSH1 0x40 MLOAD DUP1 SWAP2 SUB SWAP1 RETURN JUMPDEST PUSH2 0x9A PUSH1 0x4 DUP1 CALLDATASIZE SUB DUP2 ADD SWAP1 PUSH2 0x95 SWAP2 SWAP1 PUSH2 0x318 JUMP JUMPDEST PUSH2 0xFA JUMP JUMPDEST PUSH1 0x40 MLOAD PUSH2 0xA7 SWAP2 SWAP1 PUSH2 0x367 JUMP JUMPDEST PUSH1 0x40 MLOAD DUP1 SWAP2 SUB SWAP1 RETURN JUMPDEST PUSH2 0xCA PUSH1 0x4 DUP1 CALLDATASIZE SUB DUP2 ADD SWAP1 PUSH2 0xC5 SWAP2 SWAP1 PUSH2 0x318 JUMP JUMPDEST PUSH2 0x116 JUMP JUMPDEST PUSH1 0x40 MLOAD PUSH2 0xD7 SWAP2 SWAP1 PUSH2 0x367 JUMP JUMPDEST PUSH1 0x40 MLOAD DUP1 SWAP2 SUB SWAP1 RETURN JUMPDEST PUSH1 0x0 PUSH2 0xF3 PUSH2 0xEE DUP4 PUSH2 0x132 JUMP JUMPDEST PUSH2 0x155 JUMP JUMPDEST SWAP1 POP SWAP2 SWAP1 POP JUMP JUMPDEST PUSH1 0x0 DUP2 DUP4 GT ISZERO PUSH2 0x10C JUMPI DUP3 SWAP1 POP PUSH2 0x110 JUMP JUMPDEST DUP2 SWAP1 POP JUMPDEST SWAP3 SWAP2 POP POP JUMP JUMPDEST PUSH1 0x0 DUP2 DUP4 GT ISZERO PUSH2 0x128 JUMPI DUP2 SWAP1 POP PUSH2 0x12C JUMP JUMPDEST DUP3 SWAP1 POP JUMPDEST SWAP3 SWAP2 POP POP JUMP JUMPDEST PUSH1 0x0 PUSH8 0x7FFFFFFFFFFFFFFF DUP3 GT ISZERO PUSH2 0x149 JUMPI PUSH1 0x0 DUP1 REVERT JUMPDEST PUSH1 0x40 DUP3 SWAP1 SHL SWAP1 POP SWAP2 SWAP1 POP JUMP JUMPDEST PUSH1 0x0 DUP1 DUP3 PUSH1 0xF SIGNEXTEND SGT PUSH2 0x166 JUMPI PUSH1 0x0 DUP1 REVERT JUMPDEST PUSH1 0x0 DUP1 DUP4 PUSH1 0xF SIGNEXTEND SWAP1 POP PUSH9 0x10000000000000000 DUP2 SLT PUSH2 0x18D JUMPI PUSH1 0x40 DUP2 SWAP1 SAR SWAP1 POP PUSH1 0x40 DUP3 ADD SWAP2 POP JUMPDEST PUSH5 0x100000000 DUP2 SLT PUSH2 0x1A7 JUMPI PUSH1 0x20 DUP2 SWAP1 SAR SWAP1 POP PUSH1 0x20 DUP3 ADD SWAP2 POP JUMPDEST PUSH3 0x10000 DUP2 SLT PUSH2 0x1BF JUMPI PUSH1 0x10 DUP2 SWAP1 SAR SWAP1 POP PUSH1 0x10 DUP3 ADD SWAP2 POP JUMPDEST PUSH2 0x100 DUP2 SLT PUSH2 0x1D6 JUMPI PUSH1 0x8 DUP2 SWAP1 SAR SWAP1 POP PUSH1 0x8 DUP3 ADD SWAP2 POP JUMPDEST PUSH1 0x10 DUP2 SLT PUSH2 0x1EC JUMPI PUSH1 0x4 DUP2 SWAP1 SAR SWAP1 POP PUSH1 0x4 DUP3 ADD SWAP2 POP JUMPDEST PUSH1 0x4 DUP2 SLT PUSH2 0x202 JUMPI PUSH1 0x2 DUP2 SWAP1 SAR SWAP1 POP PUSH1 0x2 DUP3 ADD SWAP2 POP JUMPDEST PUSH1 0x2 DUP2 SLT PUSH2 0x211 JUMPI PUSH1 0x1 DUP3 ADD SWAP2 POP JUMPDEST PUSH1 0x0 PUSH1 0x40 DUP1 DUP5 SUB SWAP1 SHL SWAP1 POP PUSH1 0x0 DUP4 PUSH1 0x7F SUB DUP7 PUSH1 0xF SIGNEXTEND SWAP1 SHL SWAP1 POP PUSH1 0x0 PUSH8 0x8000000000000000 SWAP1 POP JUMPDEST PUSH1 0x0 DUP2 SGT ISZERO PUSH2 0x26C JUMPI DUP2 DUP3 MUL SWAP2 POP PUSH1 0x0 PUSH1 0xFF DUP4 SWAP1 SHR SWAP1 POP DUP1 PUSH1 0x7F ADD DUP4 SWAP1 SHR SWAP3 POP DUP1 DUP3 MUL DUP5 ADD SWAP4 POP POP PUSH1 0x1 DUP2 SWAP1 SAR SWAP1 POP PUSH2 0x238 JUMP JUMPDEST POP DUP2 SWAP5 POP POP POP POP POP SWAP2 SWAP1 POP JUMP JUMPDEST PUSH1 0x0 DUP1 REVERT JUMPDEST PUSH1 0x0 DUP2 SWAP1 POP SWAP2 SWAP1 POP JUMP JUMPDEST PUSH2 0x291 DUP2 PUSH2 0x27E JUMP JUMPDEST DUP2 EQ PUSH2 0x29C JUMPI PUSH1 0x0 DUP1 REVERT JUMPDEST POP JUMP JUMPDEST PUSH1 0x0 DUP2 CALLDATALOAD SWAP1 POP PUSH2 0x2AE DUP2 PUSH2 0x288 JUMP JUMPDEST SWAP3 SWAP2 POP POP JUMP JUMPDEST PUSH1 0x0 PUSH1 0x20 DUP3 DUP5 SUB SLT ISZERO PUSH2 0x2CA JUMPI PUSH2 0x2C9 PUSH2 0x279 JUMP JUMPDEST JUMPDEST PUSH1 0x0 PUSH2 0x2D8 DUP5 DUP3 DUP6 ADD PUSH2 0x29F JUMP JUMPDEST SWAP2 POP POP SWAP3 SWAP2 POP POP JUMP JUMPDEST PUSH1 0x0 DUP2 PUSH1 0xF SIGNEXTEND SWAP1 POP SWAP2 SWAP1 POP JUMP JUMPDEST PUSH2 0x2F7 DUP2 PUSH2 0x2E1 JUMP JUMPDEST DUP3 MSTORE POP POP JUMP JUMPDEST PUSH1 0x0 PUSH1 0x20 DUP3 ADD SWAP1 POP PUSH2 0x312 PUSH1 0x0 DUP4 ADD DUP5 PUSH2 0x2EE JUMP JUMPDEST SWAP3 SWAP2 POP POP JUMP JUMPDEST PUSH1 0x0 DUP1 PUSH1 0x40 DUP4 DUP6 SUB SLT ISZERO PUSH2 0x32F JUMPI PUSH2 0x32E PUSH2 0x279 JUMP JUMPDEST JUMPDEST PUSH1 0x0 PUSH2 0x33D DUP6 DUP3 DUP7 ADD PUSH2 0x29F JUMP JUMPDEST SWAP3 POP POP PUSH1 0x20 PUSH2 0x34E DUP6 DUP3 DUP7 ADD PUSH2 0x29F JUMP JUMPDEST SWAP2 POP POP SWAP3 POP SWAP3 SWAP1 POP JUMP JUMPDEST PUSH2 0x361 DUP2 PUSH2 0x27E JUMP JUMPDEST DUP3 MSTORE POP POP JUMP JUMPDEST PUSH1 0x0 PUSH1 0x20 DUP3 ADD SWAP1 POP PUSH2 0x37C PUSH1 0x0 DUP4 ADD DUP5 PUSH2 0x358 JUMP JUMPDEST SWAP3 SWAP2 POP POP JUMP INVALID LOG2 PUSH5 0x6970667358 0x22 SLT KECCAK256 DUP15 MLOAD MULMOD DUP10 SWAP13 0xDF 0xBA GT GAS PUSH12 0x45C4D6C309E2CA45D5EC7EF2 0xD4 0xC3 0xB4 PUSH3 0xB7FA48 SLOAD 0xAF SAR PUSH5 0x736F6C6343 STOP ADDMOD EXP STOP CALLER "},"gasEstimates":{"creation":{"codeDepositCost":"190400","executionCost":"260","totalCost":"190660"},"external":{"logX64(uint256)":"infinite","max(uint256,uint256)":"infinite","min(uint256,uint256)":"infinite"}},"methodIdentifiers":{"logX64(uint256)":"4793dbab","max(uint256,uint256)":"6d5433e6","min(uint256,uint256)":"7ae2b5c7"}},"storageLayout":{"storage":[],"types":null},"userdoc":{"kind":"user","methods":{},"version":1}}}}