{
  "_format": "hh-sol-artifact-1",
  "contractName": "Math",
  "sourceName": "contracts/Math.sol",
  "abi": [
    {
      "inputs": [
        {
          "internalType": "uint256",
          "name": "x",
          "type": "uint256"
        }
      ],
      "name": "logX64",
      "outputs": [
        {
          "internalType": "int128",
          "name": "",
          "type": "int128"
        }
      ],
      "stateMutability": "pure",
      "type": "function"
    },
    {
      "inputs": [
        {
          "internalType": "uint256",
          "name": "a",
          "type": "uint256"
        },
        {
          "internalType": "uint256",
          "name": "b",
          "type": "uint256"
        }
      ],
      "name": "max",
      "outputs": [
        {
          "internalType": "uint256",
          "name": "",
          "type": "uint256"
        }
      ],
      "stateMutability": "pure",
      "type": "function"
    },
    {
      "inputs": [
        {
          "internalType": "uint256",
          "name": "a",
          "type": "uint256"
        },
        {
          "internalType": "uint256",
          "name": "b",
          "type": "uint256"
        }
      ],
      "name": "min",
      "outputs": [
        {
          "internalType": "uint256",
          "name": "",
          "type": "uint256"
        }
      ],
      "stateMutability": "pure",
      "type": "function"
    }
  ],
  "bytecode": "0x6103b8610053600b82828239805160001a607314610046577f4e487b7100000000000000000000000000000000000000000000000000000000600052600060045260246000fd5b30600052607381538281f3fe730000000000000000000000000000000000000000301460806040526004361061004b5760003560e01c80634793dbab146100505780636d5433e6146100805780637ae2b5c7146100b0575b600080fd5b61006a600480360381019061006591906102b4565b6100e0565b60405161007791906102fd565b60405180910390f35b61009a60048036038101906100959190610318565b6100fa565b6040516100a79190610367565b60405180910390f35b6100ca60048036038101906100c59190610318565b610116565b6040516100d79190610367565b60405180910390f35b60006100f36100ee83610132565b610155565b9050919050565b60008183111561010c57829050610110565b8190505b92915050565b6000818311156101285781905061012c565b8290505b92915050565b6000677fffffffffffffff82111561014957600080fd5b604082901b9050919050565b60008082600f0b1361016657600080fd5b60008083600f0b905068010000000000000000811261018d57604081901d90506040820191505b64010000000081126101a757602081901d90506020820191505b6201000081126101bf57601081901d90506010820191505b61010081126101d657600881901d90506008820191505b601081126101ec57600481901d90506004820191505b6004811261020257600281901d90506002820191505b60028112610211576001820191505b60006040808403901b9050600083607f0386600f0b901b9050600067800000000000000090505b600081131561026c578182029150600060ff83901c905080607f0183901c92508082028401935050600181901d9050610238565b5081945050505050919050565b600080fd5b6000819050919050565b6102918161027e565b811461029c57600080fd5b50565b6000813590506102ae81610288565b92915050565b6000602082840312156102ca576102c9610279565b5b60006102d88482850161029f565b91505092915050565b600081600f0b9050919050565b6102f7816102e1565b82525050565b600060208201905061031260008301846102ee565b92915050565b6000806040838503121561032f5761032e610279565b5b600061033d8582860161029f565b925050602061034e8582860161029f565b9150509250929050565b6103618161027e565b82525050565b600060208201905061037c6000830184610358565b9291505056fea26469706673582212208e5109899cdfba115a6b45c4d6c309e2ca45d5ec7ef2d4c3b462b7fa4854af1d64736f6c634300080a0033",
  "linkReferences": {},
  "deployedLinkReferences": {}
}